:020000040800F2
:10000000C84800204901000849060008B905000851
:1000100045060008DD010008290F00080000000067
:10002000000000000000000000000000450C000877
:100030008D040008000000004B060008310D000888
:100040006301000863010008630100086301000800
:1000500063010008630100086301000863010008F0
:1000600063010008630100086301000863010008E0
:1000700063010008630100086301000863010008D0
:1000800063010008630100086301000863010008C0
:1000900063010008630100086301000863010008B0
:1000A00063010008630100086301000863010008A0
:1000B0006301000863010008630100086301000890
:1000C0006301000863010008630100086301000880
:1000D0006301000863010008630100086301000870
:1000E0006301000863010008630100086301000860
:1000F0006301000863010008630100086301000850
:10010000630100086301000863010008630100083F
:10011000630100086301000863010008630100082F
:10012000630100086301000863010008630100081F
:10013000DFF810D000F040F80048004741410008C7
:10014000AFF30080C84800200648804706480047B3
:10015000FEE7FEE7FEE7FEE7FEE7FEE7FEE7FEE777
:10016000FEE7FEE7350D000831010008421C10F8DB
:10017000011B0029FBD1801A7047034611F8012B9F
:1001800000F8012B002AF9D11846704730B50B460C
:10019000014600202022012409E021FA02F59D42B7
:1001A00005D303FA02F5491B04FA02F52844151E8B
:1001B000A2F10102F1DC30BD064C074D06E0E0681B
:1001C00040F0010394E8070098471034AC42F6D39E
:1001D000FFF7B2FF48F8020868F8020800BFFEE720
:1001E00030B5AFB0604800F0A1FE604800F09EFE60
:1001F0005D4800F09BFE5EA000F098FE5DA101A8A6
:10020000FFF7BBFF01A804F0A5FA5B4908705B4843
:1002100000F08CFE22AA21A956A001F0BBFE56498F
:1002200008702298C069801E2299498900FB01F557
:1002300022984089219900FB01F4A200A90050A056
:1002400000F074FE5C4800F071FE13225BA1604870
:1002500002F012FC4849087008460078002865D171
:100260005B48C16801F015FF4349087008460078F3
:1002700000281ED157A1564802F02EFDA300AA0067
:100280005BA1534802F028FD0021514801F001FF15
:10029000394908704E48634B6349C26802F051FE09
:1002A000354908700846007818B95F495FA000F02A
:1002B0003DFE474801F051FE2F4908702DA101A8CD
:1002C000FFF75BFF01A804F045FA2B4908705C4872
:1002D00000F02CFE5BA123A802F0C8FC26490870A0
:1002E0000846007828B157A001F0A4FF2249087001
:1002F00012E057A003F030F81F49087023A801F05E
:100300003DFE1D4908701BA101A8FFF736FF01A89B
:1003100004F020FA184908701748007878B94CA101
:1003200026A002F01CFF1449087008E0124801786A
:100330004EA000F0FBFD104800782FB030BD0CA09F
:1003400000F0F4FD0BA101A8FFF717FF01A804F0CE
:1003500001FA094908704C493DA003F023FA064907
:10036000087008460078E8E7FCF70208CCF60208B7
:100370000A000000333A0000140000209CF5020837
:100380000A3E2531306C75204B694220746F7461D0
:100390006C2064726976652073706163652E0A3E15
:1003A0002531306C75204B694220617661696C6142
:1003B000626C652E0A00000034F60208333A46618A
:1003C000744673522657544553542E747874000063
:1003D00060200020D4DAD4ADC0B4CEC4BCFED0C2FC
:1003E000CCEDBCD3D2BBD0D0C4DAC8DD3A0A000011
:1003F000C9E8B1B8D7DCBFD5BCE4A3BA25386C7561
:10040000204B6942A1A30AC9E8B1B8BFC9D3C3BF91
:10041000D5BCE4A3BA25386C75204B6942A1A30A68
:100420000000000018000020A03100200A3E4649CC
:100430004C45434F4E54454E54A3BA0A25730A0007
:10044000E8F50208333A546573744D4B4469720001
:10045000333A546573744D4B4469722F74657374E9
:100460006D6B6469722E7478740000000A3E21215D
:10047000204F50454E2046494C45204641494CA30B
:10048000BA25640A000000008830002070472DE97A
:10049000F04102460025002600200023002400270A
:1004A00091F803C00CF00F0591F803C00CF0100C8C
:1004B000BCF1000F03D091F802C04CEA050591F899
:1004C00000C0BCF1000F31D0146800202BE04FF0C9
:1004D000010C0CFA00F3B1F800C00CEA03069E42CE
:1004E00020D183004FF00F0C0CFA03F7BC4305FA40
:1004F00003FC4CEA040491F803C0BCF1280F06D1B8
:100500004FF0010C0CFA00FCC2F814C00AE091F89C
:1005100003C0BCF1480F05D14FF0010C0CFA00FCF0
:10052000C2F810C0401C0828D1D31460B1F800C034
:10053000BCF1FF0F34DD546800202EE000F1080C00
:100540004FF0010808FA0CF3B1F800C00CEA0306FA
:100550009E4221D183004FF00F0C0CFA03F7BC43ED
:1005600005FA03FC4CEA040491F803C0BCF1280F1F
:1005700005D100F1080C08FA0CF8C2F8148091F8C3
:1005800003C0BCF1480F07D100F1080C4FF001087F
:1005900008FA0CF8C2F81080401C0828CED354602A
:1005A000BDE8F08141617047016170470AB10161A6
:1005B00000E0416170470000002220210748FFF75A
:1005C000F5FF012211460548FFF7F0FF0122022145
:1005D0000248FFF7EBFF00BFFEE70000000C014000
:1005E00008B50121082000F031F801208DF8020043
:1005F00010208DF803002020ADF800006946104857
:10060000FFF745FF0120ADF8000069460C48FFF7F1
:100610003EFF0220ADF8000069460948FFF737FFAA
:10062000012220210648FFF7C1FF0122114604489C
:10063000FFF7BCFF012202210148FFF7B7FF08BD09
:10064000000C014000BFFEE77047704729B1064A21
:1006500092690243044B9A6104E0034A926982431F
:10066000014B9A61704700000010024030B5002134
:100670000022002400232D4D6D6805F00C0121B1EE
:10068000042905D0082923D105E0294D056022E081
:10069000274D05601FE0254D6D6805F47012234D50
:1006A0006D6805F48034022505EB92421CB9214D9A
:1006B000554305600BE01D4D6D6805F400351DB117
:1006C0001C4D5543056002E0194D5543056002E09D
:1006D000174D056000BF00BF144D6D6805F0F001B7
:1006E0000909154D6B5C0568DD4045600F4D6D686F
:1006F00005F4E061090A104D6B5C4568DD408560DA
:100700000A4D6D6805F46051C90A0B4D6B5C456874
:10071000DD40C560054D6D6805F44041890B074D0E
:100720006B5CC568B5FBF3F5056130BD0010024098
:1007300000127A0000093D00000000201000002097
:1007400021B1028842F04002028004E002884FF6A4
:10075000BF731A400280704770B505460C461646B6
:1007600001211048FFF71EFF032000F0A9F9C4F390
:10077000074000F0A5F9C4F3072000F0A1F9E0B2AA
:1007800000F09EF904E0FF2000F09AF928706D1C3B
:10079000301EA6F101018EB2F5D101210148FFF70B
:1007A00003FF70BD001001402DE9F05F07460E46C3
:1007B00014464FF00008C146C2460025AB4606F07D
:1007C000FF0ACAF10000C5B22046E11704EB11612F
:1007D000C1F30728E11704EB11610912A4EB012111
:1007E00001F0FF09BAF1000F20D1B8F1000F05D1D7
:1007F00022463146384600F0CBF864E009E04FF479
:1008000080723146384600F0C3F806F5807607F569
:100810008077B8F10000A8F1010101F0FF08EED1E6
:100820004A463146384600F0B3F84CE0B8F1000FC4
:1008300018D1A94510DDA9EB050000F0FF0B2A46F1
:100840003146384600F0A4F82E442F445A4631462B
:10085000384600F09DF836E022463146384600F032
:1008600097F830E0601B84B22046E11704EB116179
:10087000C1F30728E11704EB11610912A4EB012170
:1008800001F0FF092A463146384600F081F82E442F
:100890002F4409E04FF480723146384600F078F872
:1008A00006F5807607F58077B8F10000A8F1010120
:1008B00001F0FF08EED1B9F1000F04D04A463146ED
:1008C000384600F065F8BDE8F09F000000B587B03D
:1008D00001210803FFF7BAFE01211420FFF7B6FE3D
:1008E0000120ADF8040003208DF8060010208DF8DB
:1008F000070001A92348FFF7CAFD2020ADF8040036
:1009000018208DF8070001A91F48FFF7C0FD8020BF
:10091000ADF8040001A91C48FFF7B9FD4020ADF86F
:10092000040004208DF8070001A91748FFF7AFFD68
:1009300001211448FFF738FE0020ADF808004FF4FD
:100940008270ADF80A000020ADF80C000220ADF86E
:100950000E000120ADF810004002ADF81200082092
:10096000ADF814000020ADF816000720ADF818000F
:1009700002A9064800F028F901210448FFF7E0FE2B
:1009800007B000BD001001400008014000300140E8
:1009900070B505460C46164600F0E8F801211548EA
:1009A000FFF700FE022000F08BF8C4F3074000F0D0
:1009B00087F8C4F3072000F083F8E0B200F080F875
:1009C000B6F5807F04DD4FF480760BA000F0AEFA20
:1009D00003E0287800F074F86D1C301EA6F10101C8
:1009E0008EB2F6D101210348FFF7DEFD00F0A4F836
:1009F00070BD0000001001403C3C2D464C41534866
:100A00002D4552524F522D3E3E205350495F464C89
:100A10004153485F50616765577269746520746F10
:100A20006F206C61726765210A0000002DE9F041BA
:100A3000002400250026002701210F48FFF7B2FD02
:100A40009F2000F03DF8FF2000F03AF80546FF2017
:100A500000F036F80646FF2000F032F80746012184
:100A60000548FFF7A1FD280440EA062040EA0704F4
:100A70002046BDE8F08100000010014070B5054639
:100A80000C4600F073F800F057F801210B48FFF70F
:100A900089FD284600F014F8C4F3074000F010F870
:100AA000C4F3072000F00CF8E0B200F009F80121CF
:100AB0000248FFF779FD00F03FF870BD00100140DB
:100AC00010B504464FF48030194908600AE018490F
:100AD0000868411E164A116020B9002000F092F803
:100AE000C0B210BD0221134800F060F80028EED01B
:100AF0002146104800F066F84FF480300C49086039
:100B00000AE00B490868411E094A116020B901201A
:100B100000F078F8C0B2E4E70121064800F046F89A
:100B20000028EED0034800F04AF8C0B2D9E7000030
:100B30001C0000200030014010B5002401210A48AB
:100B4000FFF730FD0520FFF7BBFF00BFFF20FFF7D9
:100B5000B7FF044604F001000028F7D10121024844
:100B6000FFF722FD10BD00000010014010B501216B
:100B70000548FFF717FD0620FFF7A2FF01210248F5
:100B8000FFF712FD10BD00000010014010B501215B
:100B90000548FFF707FDAB20FFF792FF0121024850
:100BA000FFF702FD10BD00000010014002460020CA
:100BB00013890B400BB1012000E000207047014673
:100BC000888970478181704710B50022028802F43D
:100BD00041520B884C8823438C882343CC88234381
:100BE0000C8923434C8923438C892343CC89234399
:100BF0001A430280838B4FF2FF74234083830B8A56
:100C0000038210BD10B50446214602A000F08EF903
:100C1000002010BD3C3C2D464C4153482D455252BE
:100C20004F522D3E3E2053504920B5C8B4FDB3ACC1
:100C3000CAB1216572726F72436F6465203D2025D1
:100C4000640A0000704710B500F002F810BD000003
:100C50000CB50020019000903348006840F48030CB
:100C60003149086000BF3048006800F4003000904F
:100C70000198401C0190009818B90198B0F5A06F38
:100C8000F1D12948006800F4003010B10120009033
:100C900001E0002000900098012843D1234800681B
:100CA00040F01000214908600846006820F0030069
:100CB00008600846006840F0020008601A48406872
:100CC000194948600846406848600846406840F452
:100CD000806048600846406820F47C104860084600
:100CE000406840F4E81048600846006840F08070B2
:100CF000086000BF0C48006800F000700028F9D0C0
:100D00000948406820F003000749486008464068E9
:100D100040F00200486000BF0348406800F00C004B
:100D20000828F9D10CBD000000100240002002404C
:100D30007047000010B51348006840F001001149E9
:100D4000086008464068104908400E494860084657
:100D500000680E4908400B4908600846006820F406
:100D6000802008600846406820F4FE0048604FF488
:100D70001F008860FFF767FF4FF0006004490860BC
:100D800010BD0000001002400000FFF8FFFFF6FE5B
:100D900008ED00E021B1828942F40052828104E032
:100DA00082894DF6FF731A408281704700B585B085
:100DB00001210420FFF74AFC01218803FFF746FCCC
:100DC0004FF40070ADF8100018208DF813000320C8
:100DD0008DF8120004A91348FFF759FB4FF4806007
:100DE000ADF8100004208DF8130004A90D48FFF79A
:100DF0004EFB4FF4E13000900020ADF80400ADF858
:100E00000600ADF80800ADF80C000C20ADF80A00A3
:100E10006946054800F018F801210348FFF7BAFFBA
:100E200005B000BD00080140003801400246002026
:100E3000B1F5007F00D100BF13880B400BB101203A
:100E400000E00020704700002DE9F04786B005461D
:100E50000E460024A24600BFA1460027B08900B17B
:100E600000BF2F462C8A4CF6FF700440F0880443E4
:100E70002C82AC894EF6F3100440B08831890843C7
:100E8000718908430443AC81AC8A4FF6FF400440AB
:100E9000B0890443AC8201A8FFF7E8FB1F488742F2
:100EA00002D1DDF810A001E0DDF80CA0A88900F463
:100EB000004040B10AEBCA0000EB0A10316849005B
:100EC000B0FBF1F807E00AEBCA0000EB0A1031684A
:100ED0008900B0FBF1F86420B8FBF0F004012009B0
:100EE000642101FB1089A88900F4004040B1322040
:100EF00000EBC900B0FBF1F000F00700044308E08C
:100F0000322000EB09106421B0FBF1F000F00F007B
:100F100004432C8106B0BDE8F08700000038014092
:100F2000C1F308028280704700BFFEE70FB4054B93
:100F300010B503A9044A029800F02CF810BC5DF823
:100F400014FB0000113D0008240000200FB4084BE2
:100F500010B504A902AA039800F01CF8044602A9DF
:100F6000002000F0B8F9204610BC5DF814FB00002A
:100F7000D712000802E008C8121F08C1002AFAD1DF
:100F800070477047002001E001C1121F002AFBD109
:100F9000704700002DE9FF4F8BB0884605460026BC
:100FA00006E025280BD0DDE90D1290476D1C761C5C
:100FB00028780028F5D10FB03046BDE8F08F002426
:100FC000A146A2460122AE4900E0044315F8013FC4
:100FD000203B02FA03F00842F7D128782A2810D0E3
:100FE0006FF02F022878A0F13001092915D809EBFC
:100FF000890102EB410144F0020400EB01096D1C80
:10100000F0E758F8041B5FEA010903D544F40054E3
:10101000C9F1000944F002046D1C28782E2817D16C
:1010200015F8010F44F004042A280ED06FF02F02A7
:101030002878A0F1300109290AD80AEB8A0102EBCD
:10104000410100EB010A6D1CF2E758F804AB6D1C7E
:1010500028786C280FD006DC4C2817D068280DD0D3
:101060006A2814D104E0742810D07A280FD10DE03A
:1010700044F400140AE044F4801401E044F4401401
:101080006978814202D104F580146D1C6D1C2878AA
:10109000692865D006DC00288DD0632827D0642815
:1010A00006D15DE06E2808D073282AD0752877D045
:1010B000DDE90D129047761CE0E0C4F302500228EF
:1010C00009D003280DD0D8F8001004280DD00E60E8
:1010D00008F10408D2E0D8F80010F217C1E9006264
:1010E000F6E7D8F800100E80F2E70E70F0E718F877
:1010F000041B8DF8001000208DF80100EB46012044
:1011000003E058F804BB4FF0FF3061074FF00007D1
:1011100001D40AE07F1C57450DDA8742FADB1BF841
:1011200007100029F6D106E07F1C8742FCDB1BF884
:1011300007100029F8D1DDE90D23A9EB070081464E
:10114000214600F0B1F83044C61904E0DDE90D1283
:101150001BF8010B90477F1EF8D22146484688E0D5
:1011600058F8040BC4F302514FF00A0B032900D1C5
:1011700000B2042900D140B2002802DA40422D21F9
:1011800002E0210505D52B218DF82410012104E072
:1011900006E0E10710D02021F6E708AF089113E040
:1011A00058F8040BC4F302514FF00A0B032900D185
:1011B00080B2042900D1C0B20021EEE75946FEF703
:1011C000E5FF303107F8011D0028F7D1ADEB07002E
:1011D00000F1200B600702D524F4803401E04FF0C9
:1011E000010ADA4502DDAAEB0B0000E0002082468E
:1011F00000EB0B0108980144A9EB01000A90E00301
:1012000006D4DDE90D2321460A9800F04DF8064486
:101210004FF0000908E009A911F80900DDE90D12F5
:10122000904709F10109761C08998945F3DBE00331
:101230000CD5DDE90D2321460A9800F035F8064467
:1012400004E0DDE90D1230209047761CBAF1000170
:10125000AAF1010AF5DC05E0DDE90D1217F8010B32
:101260009047761CBBF10001ABF1010BF4DC0A984E
:101270002146DDE90D2300F005F806446D1C97E6D4
:10128000092801002DE9F041044600251E461746B5
:10129000880404D405E039462020B0476D1C641E44
:1012A000F9D52846BDE8F0812DE9F0410446002536
:1012B0001E469046C80301D5302700E02027880449
:1012C00004D505E041463846B0476D1C641EF9D58B
:1012D0002846BDE8F0810A68531C0B601070704707
:1012E00070B504460D460020E070401E606329463C
:1012F000204603F019F808B1042070BD04F236202E
:1013000002F018FF4AF65521884201D00320F4E785
:1013100094F83800E92807D094F83800EB2803D077
:1013200094F83800E82811D1032209A104F16E00D5
:1013300002F0D2FF08B90020DFE7052205A104F181
:101340008A0002F0C9FF08B90020D6E70220D4E7DE
:10135000464154004641543332000000024600E04A
:10136000521C107810B110788842F9D1107870476B
:101370000246891ED069801E884201D8002070472D
:101380005389106B03FB0100F9E700002DE9F047DA
:1013900080460C4604F11A0002F0CCFE10B1002089
:1013A000BDE8F087207800F03F00401E00EB800190
:1013B00001EBC0054FF00109002621E01849895DC5
:1013C000081902F0B7FE0746B9F1000F11D0FF2D42
:1013D0000BD2384602F08EF9824629466D1C38F849
:1013E000110002F087F9824501D00020D8E7B94604
:1013F00005E04FF6FF70874201D00020D0E7761C51
:101400000D2EDBD3207800F0400038B1B9F1000F89
:1014100004D038F8150008B10020C1E70120BFE76B
:10142000B24900082DE9F04782468846DAF80040C4
:10143000B8F1000F06D1676917B1E069B84215D855
:10144000012713E04146504602F0DAFC0546022D22
:1014500002D20120BDE8F087681C08B92846F9E7E8
:10146000E069A84201D92846F4E74746A06908B9CF
:101470000020EFE70026474518D17E1CE069B04206
:1014800000D802263146504602F0BAFC0546012D2E
:1014900001D0681C08B92846DCE73DB16569022D1A
:1014A00003D3E069A84200D92F460026E6B93E469C
:1014B00000BF761CE069B04204D80226BE4201D9C2
:1014C0000020C7E73146504602F09AFC054605B9B0
:1014D00009E0012D01D0681C08B92846BAE7BE42D0
:1014E000E7D10020B6E700BF4FF0FF32314620467B
:1014F00002F078FF8146B9F1000F08D1B8F1000F72
:1015000005D032464146204602F06CFF8146B9F1D3
:10151000000F0DD16661D4E90610801E814202D809
:10152000A069401EA061207940F00100207107E011
:10153000B9F1010F02D14FF0FF3000E00120064663
:10154000304687E72DE9F34F85B08146069800685D
:101550000290D9F80000D0F810A0002500BF02A822
:1015600003F0E3F983460BF1010018B9062007B038
:10157000BDE8F08FBBF5803F05D34FEA1B422846FC
:101580006D1C2AF810201FFA8BF4202C03DB2F2C63
:1015900001D05C2C00D111E0802C06DA214679A024
:1015A000FFF7DCFE08B10620E1E7FF2D01D306209E
:1015B000DDE728466D1C2AF81040D0E700BF02E0A6
:1015C0000298401C0290029800782F28F8D00298C8
:1015D00000785C28F4D0029906980160202C01DA8A
:1015E000042000E00020064608E0681E3AF810409B
:1015F000202C02D02E2C00D002E06D1E002DF4D144
:1016000000BF00202AF815000DB90620AFE700271B
:1016100000E07F1C3AF817002028FAD01FB93AF8EA
:1016200017002E2801D146F0030600E06D1E25B1FB
:10163000681E3AF810002E28F8D10B22202109F15B
:10164000200002F068FE4FF00008CDF8108008205E
:10165000039000BF38467F1C3AF8104004B966E09A
:10166000202C03D02E2C04D1AF4202D046F003062A
:10167000F0E7DDE90310884201D2AF4216D10398AA
:101680000B2802D146F0030651E0AF4201D046F0EC
:101690000306AF4200D94AE02F46082004900B20F1
:1016A00003904FEA88604FEA1068D3E7802C0ADB8A
:1016B00046F00206204602F01DF84FF46A710190D0
:1016C00001F0DEFF0446FF2C11DD0398401E049953
:1016D000884204D846F0030603980490BAE7221221
:1016E0000498411C049109F120010A5418E024B126
:1016F000214627A0FFF732FE18B15F2446F003060B
:101700000EE0412C03DB5A2C01DC48F00208612C6E
:1017100006DB7A2C04DC48F00108A4F1200084B236
:101720000498411C049109F120010C5492E700BF78
:1017300099F82000E52802D1052089F820000398B7
:10174000082803D14FEA88604FEA106808F00C00BF
:101750000C2803D008F00300032801D146F002064C
:1017600006F0020048B908F0010008B146F0100682
:1017700008F0040008B146F008062B2000F80960C4
:101780000020F4E6222A3A3C3E3F7C7F0000000025
:101790002B2C3B3D5B5D000001460B4800788842E6
:1017A0000FDC09484078884201DB01207047064879
:1017B0008078884205DC0448C078884201DB01203B
:1017C000F4E70020F2E70000BF4900080146104896
:1017D0000079884219DC0E484079884201DB0120FB
:1017E00070470B488079884205DC0948C0798842F7
:1017F00001DB0120F4E70648007A884205DC044852
:10180000407A884201DB0120EAE70020E8E7000097
:10181000BF490008002107E042F6E06100BF0A1E50
:10182000A1F1010399B2FAD1021EA0F1010398B20D
:10183000F2D170472DE9F04104460E46D4F80080FD
:101840000021204600F078FA0546EDB9002700BFD8
:101850004046A16902F068FD054605B113E0E06964
:101860000078E52802D0E069007820B9781C0746A6
:10187000B04201D107E000270121204600F0B7F86F
:101880000546002DE4D000BF042D00D107252846D1
:10189000BDE8F0812DE9F04704468946204603F073
:1018A0001FF810B10120BDE8F08749462046FFF738
:1018B0005FFD06466663A289002104F1380002F04C
:1018C0002AFD04F138080127002500E03D44608925
:1018D000A84207D9721960783B46414600F012FBD6
:1018E0000028F3D06089A84201D00120DBE7002066
:1018F000D9E72DE9F0470446D4F800A0002120469E
:1019000000F01AFA064616B13046BDE8F0874FF0EF
:10191000FF08C1464FF0FF30E06200BF5046A169AA
:1019200002F002FD064606B15EE0E06905780DB9F9
:10193000042659E0E069C07A00F03F07A771E52D61
:1019400004D007F0080038B10F2F05D04FF0FF0882
:101950004FF0FF30E06240E00F2F22D12B20005DDE
:1019600000F0400098BB05F0400038B1E06990F805
:101970000D9005F0BF05A8462069E06245450CD1F1
:10198000E069407B484508D1E169DAF81000FFF7CB
:10199000FDFC10B1A8F1010000E0FF2000F0FF08FD
:1019A0001BE0B8F1000F05D1E06902F041FF4845A6
:1019B00000D119E02B20005D00F0010040B90B229E
:1019C00004F12001E06902F087FC08B90CE004E0B2
:1019D0004FF0FF084FF0FF30E0620021204600F09A
:1019E00006F80646002E99D000BF30468DE72DE957
:1019F000F041044688462668206900F12007A06966
:101A000010B1B7F5001F02D30420BDE8F081B08902
:101A1000B7FBF0F100FB1170002847D1A069401C12
:101A2000A061606938B93089B0EB571F3ED80020FB
:101A3000A0610420E9E7B089B7FBF0F07189491E85
:101A4000084098BB2046616902F0DAF90546012D8D
:101A500001D80220D9E7681C08B90120D5E7F06950
:101A6000A8421DD8B8F1000F03D10020A0610420C6
:101A7000CBE720466169FFF7D5FC05460DB9072085
:101A8000C3E7012D01D10220BFE7681C08B901207E
:101A9000BBE729463046FFF7FDFE08B10120B4E759
:101AA000656129463046FFF763FCA0612761B08974
:101AB000B7FBF0F100FB117106F138000844E0615A
:101AC0000020A2E72DE9F05F044689460426D4F8F9
:101AD00000A04FF0FF08C34653E05046A16902F052
:101AE00023FC064606B14FE0E06905780DB90426EF
:101AF0004AE0E069C07A00F03F07A771E52D0AD0FF
:101B00002E2D08D027F02000082801D1012000E068
:101B10000020484502D04FF0FF082BE00F2F1DD1C9
:101B200005F0400038B1E06990F80DB005F0BF0550
:101B3000A8462069E06245450CD1E069407B5845E4
:101B400008D1E169DAF8100002F008FC10B1A8F140
:101B5000010000E0FF2000F0FF080BE0B8F1000FEB
:101B600004D1E06902F064FE584502D04FF0FF3026
:101B7000E06209E000212046FFF739FF064606B182
:101B800002E0A0690028A8D100BF0EB10020A0612A
:101B90003046BDE8F09F2DE9FE4F044626682B2015
:101BA000005D00F0A00010B10620BDE8FE8F4FF0F0
:101BB000000901E009F10109306930F81900002835
:101BC000F8D10C2204F12001684602F097FB9DF841
:101BD0000B0000F0010028B340212B2001554FF0ED
:101BE00001080EE04346694604F12000326902F024
:101BF000A1F82046FFF77DFE054605B104E008F197
:101C00000108B8F1640FEDD300BFB8F1640F01D142
:101C10000720CAE7042D01D02846C6E79DF80B101F
:101C20002B2001559DF80B0000F0020030B109F1A6
:101C30000C000D21B0FBF1F0401C00E00120074634
:101C400039462046FFF7F6FD05464DBB781E071EB8
:101C500026D02069A0EB4711204600F06DF805461C
:101C6000F5B904F1200002F0E3FD824600BF3046E2
:101C7000A16902F059FB054605B110E0FAB2E1692D
:101C80005346306902F076FC0120F07000212046B6
:101C9000FFF7ADFE054615B9781E071EE7D100BF58
:101CA000C5B93046A16902F03FFB054695B920222F
:101CB0000021E06902F02FFB0B2204F12001E06912
:101CC00002F01CFB2B20005D00F01800E169087396
:101CD0000120F070284668E72DE9F04104462668A7
:101CE0002769E06A401C08B9002003E02046E16A49
:101CF00000F022F80546E5B900BF3046A16902F0C0
:101D000013FB054605B110E000BFE520E16908704E
:101D10000120F0702069B84200D306E0002120467F
:101D2000FFF765FE0546002DE7D000BF042D00D16A
:101D300002252846BDE8F0812DE9F04104460E4613
:101D40002568B6F5001F02D206F01F0010B1022070
:101D5000BDE8F0812661A7681FB92878032800DB59
:101D6000EF6A47B92889B0EB561F01D80220EFE788
:101D7000E86AA0611DE06889A98900FB01F811E00B
:101D80003946204602F03CF80746781C08B9012085
:101D9000DEE7022F02D3E869B84201D80220D7E774
:101DA000A6EB08064645EBD239462846FFF7E0FA8F
:101DB000A0616761A06908B90220C9E7A889B6FBDC
:101DC000F0F0A1690844A061A889B6FBF0F100FB1E
:101DD000116105F138000844E0610020B8E770B5F2
:101DE0000446012534B1012C06D0022C06D0032C68
:101DF00013D105E0284670BD2846FCE72846FAE7DF
:101E0000FEF764FD0A20FFF705FDFEF7BFFE032085
:101E100000F056F805462846EDE70120EBE710B53F
:101E20000346002433B1012B06D0022B06D0032B2E
:101E30001CD105E0204610BD2046FCE72046FAE70D
:101E4000012904D0022906D003290BD107E04FF461
:101E5000C060106006E04FF48050108002E0012066
:101E6000106000BF00BF00242046E4E70420E2E742
:101E70002DE9F04105460E4614461F464FF0000876
:101E800035B1012D07D0022D07D0032D15D106E065
:101E90004046BDE8F0814046FBE74046F9E704F5DF
:101EA00000744FF6FF7000EA073221033046FEF758
:101EB00053FC4FF000084046EBE70420E9E7000040
:101EC00070B50546012435B1012D06D0022D06D08E
:101ED000032D12D105E0204670BD2046FCE72046C8
:101EE000FAE7FEF7A3FD0649884202D124F0010477
:101EF00001E044F001042046EEE70120ECE7000099
:101F00001740EF002DE9F04105460E4614461F46E6
:101F10004FF0000835B1012D07D0022D07D0032D59
:101F200019D106E04046BDE8F0814046FBE7404657
:101F3000F9E704F5007421032020FEF79FFD4FF61A
:101F4000FF7000EA073221033046FEF72DFC4FF008
:101F500000084046E7E70420E5E738B5054628468F
:101F600001F0AAF904463CB96946284602F003FD8F
:101F700004460CB900202860204638BD38B5044618
:101F80006946204602F0F7FC05460DB900202060A6
:101F9000284638BD2DE9F74F86B088469246002284
:101FA00005A906A801F0B0FC8146B9F1000F6CD17B
:101FB0000598CAF800000598D0E90610801E8142F5
:101FC00004D805988069C8F800005EE000250598EF
:101FD000007801281BD102260598019000BF3146E8
:101FE00001A801F00DFF0746781C10B94FF0010958
:101FF0000CE0012F02D14FF0020907E007B96D1C78
:10200000701C06460599C9698842E8D333E00598F3
:10201000C6690598D0F828B0002400BF54B95946C5
:102020000BF1010B059802F07FF98146B9F1000F21
:1020300000D01FE005980078022808D105993831B2
:10204000081902F077F800B96D1CA41C09E0059985
:102050003831081902F062F820F0704000B96D1CA8
:10206000241D05988089B4FBF0F100FB1144701E1B
:10207000061ED3D100BFC8F80050059885610598A9
:10208000007940F0010005990871484609B0BDE8A3
:10209000F08F2DE9F84F04460E466946204602F0BF
:1020A0006AFC8246BAF1000F01D194F811A0BAF18E
:1020B000000F02D05046BDE8F88FE068B04204D26D
:1020C000207C00F0020000B9E668D4F814904FF0CC
:1020D0000008C4F81480002E72D00098408900993E
:1020E000898900FB01F7B9F1000F11D0701EB0FB18
:1020F000F7F1A9F10100B0FBF7F0814208D3A9F193
:102100000100791E884360616069361AA56912E092
:10211000A5687DB900212046FFF784F90546012D09
:1021200002D102206074C6E7681C10B901206074F7
:10213000C1E7A560A561002D42D024E0F61B6069CF
:1021400038446061207C00F0020040B100BF2946A5
:102150002046FFF767F9054635B9002615E0294600
:10216000204601F04DFE0546681C10B90120607440
:10217000A1E7012D03D90098C069A84202D8022026
:10218000607498E7A561BE42D8D800BF606930444A
:10219000606100988089B6FBF0F100FB116078B1B6
:1021A00029460098FFF7E4F88046B8F1000F02D105
:1021B000022060747FE700988089B6FBF0F08044CD
:1021C000E1686069884205D96069E060207C40F080
:1021D00040002074606900998989B0FBF1F201FB2D
:1021E000120020B3E069404521D0207C00F080003F
:1021F00078B1E26900994878012304F12801FFF7DA
:1022000081FE10B10120607455E7207C00F07F0052
:102210002074009948780123424604F12801FFF711
:1022200027FE10B10120607445E7C4F81C805046B9
:1022300041E700002DE9F1418DB0022269460DA869
:1022400001F062FB0546002D78D10098019001A8AD
:102250000D9901F009FD054605B9082500BF042DBB
:102260006CD1002101A8FFF7DDF8064600984089EF
:102270000099898948430490002506B90725012E55
:1022800000D10225701C00B901251DB9009802F08B
:1022900027FB0546DFF8AC807DBB31460098FFF791
:1022A000F9FA05464DBB00BF009800F138040B2237
:1022B0002021204602F02FF82E2020701020E072FE
:1022C000414604F1160002F0A1FA32462146009878
:1022D00002F08AFA2022214604F1200002F00EF8D2
:1022E0002E2084F82100039F3A4604F12001009833
:1022F00002F07AFA01200099C8701DB901A8FFF711
:102300004AFC0546ADB9089C414604F1160002F0AE
:102310007DFA32462146009802F066FA1020E072FB
:1023200001200099C8701DB9009802F091FA054685
:1023300004E00022314601A802F0BFF928460EB0A1
:10234000BDE8F0810000214C2DE9FF4F95B0174604
:10235000012014904002139015A801F0A5FE0290F0
:102360000298002803DA0B2019B0BDE8F08FFA4973
:10237000029851F8200028B10021F74A029852F83B
:10238000200001700298C0B21190002010901198A6
:10239000FFF725FD0190019800F0010008B103202E
:1023A000E2E7019800F0040008B10A20DCE70CAA7B
:1023B00003211198FFF733FD50B90C9840B10C98E8
:1023C000B0F5004F04D80C98401E0C99084008B195
:1023D00001200C900FAA02211198FFF720FD08B1EF
:1023E0000120C1E7BDF83C00B0F5805F0BDCBDF813
:1023F0003C00B0F5007F06DBBDF83C00401EBDF898
:102400003C10084008B10120AEE71FB1BDF83C0008
:10241000874205D3B7F1807F02D8781E384008B1D3
:102420001320A1E7BDF83C00B7FBF0F7189CBDF8FE
:102430003C102298B0FBF1F00D90BDF83C100D98C7
:1024400048430E900CB10D9808B911208CE700BFDD
:1024500007AA01211198FFF7E2FC08B1012083E7E8
:10246000169800F0080008B1002000E03F208346E5
:102470000798584501D20E2076E70798A0EB0B008D
:1024800007900798802801D20E206DE700BF00BF9B
:10249000802F01D9132067E7169800F0020050B191
:1024A000169800F00700022803D0169800F00100EB
:1024B00008B9032607E0169800F0010008B91320B8
:1024C00052E7022600BF00BF00BF3D46032E2FD1BA
:1024D000A5B907984FEA504900200390012503E071
:1024E0000398401C03906D009C49039831F810003C
:1024F00020B1039831F810004845F1D90798B0FB96
:10250000F5F8082000EB8800BDF83C100844401E98
:10251000B0FBF1F0059020200690002004904FF6CB
:10252000F570804502D98E4880453BD90E201BE7C7
:10253000A5B907984FEA103900200390012503E060
:102540000398401C03906D008649039831F81000F1
:1025500020B1039831F810004845F1D90798B0FB35
:10256000F5F840F6F570804503D9042000EB4809E2
:1025700006E0012608EB4800401C032101EB50094E
:10258000BDF83C004844401EBDF83C10B0FBF1F0E3
:10259000059001200690BDF83C004FF48041B1FB4E
:1025A000F0F0049006985844099009990598014460
:1025B0000498084408900C9908980844401E491E45
:1025C00020EA01010898A1EB0009032E06D1069824
:1025D0004844069009984844099002E00598484408
:1025E0000590089800EB0510A0EB0B0007998842B6
:1025F00001D90E20B8E6DDE90601091A0598091A85
:102600000498081AB0FBF5F8032E0AD14FF6F570BE
:10261000804506D81FB96808071E00D031E00E209B
:10262000A2E6022E24D14FF6F570804514D92FB9B9
:102630004020B0EB450F01D36F0022E0169800F068
:10264000020008B103261CE027B96800074680286D
:1026500000D816E00E2087E640F6F570804507D8D2
:1026600027B968000746802800D80AE00E207BE6DC
:10267000012E05D140F6F570804501D90E2073E694
:1026800000E022E700BFBDF83C200021204601F019
:1026900042FE0B2234A1204601F030FEBDF83C1072
:1026A00004F10B0002F0BEF86573069881B204F1E4
:1026B0000E0002F0B7F801202074032E01D1002093
:1026C00001E04FF40070014604F1110002F0AAF895
:1026D0000798B0F5803F06D2079881B204F1130045
:1026E00002F0A0F804E004F12000079902F08EF84F
:1026F000F82060753F2104F1180002F093F8FF21E3
:1027000004F11A0002F08EF8594604F11C0002F0A0
:102710007DF8032E36D1174904F1430002F076F814
:1027200004F12400059902F071F8022104F12C0053
:1027300002F06CF8012104F1300002F073F8062178
:1027400004F1320002F06EF8802084F84000292065
:1027500084F8420013220FE0B8420020D849000854
:10276000F5FFFF0FCA490008EBFE904D53444F534D
:10277000352E30000000214C9CA104F1470001F0EF
:10278000BDFD16E09E4904F1270002F03FF80598D0
:1027900081B204F1160002F045F8802084F824008C
:1027A000292084F82600132296A104F12B0001F0C1
:1027B000A5FD4AF6552104F5FF7002F033F8012318
:1027C0005A4621461198FFF79DFB08B10120CBE541
:1027D000032E34D101230BF1060221461198FFF795
:1027E00091FBBDF83C200021204601F094FD8A4970
:1027F000204602F00BF8894904F5F27002F006F861
:10280000A8F1010104F5F47002F000F8022104F5CA
:10281000F67001F0FBFF4AF6552104F5FF7002F057
:1028200001F801230BF1070221461198FFF76AFB1B
:1028300001230BF1010221461198FFF763FB0021F0
:1028400020460E9A01F067FD09980B900020039036
:1028500042E0032E0FD16FF00701204601F0D6FFB2
:10286000311F201D01F0D2FF6FF0704104F108000C
:1028700001F0CCFF09E0012E01D1694801E06FF0C1
:1028800007000146204601F0C1FF05980A9000BFED
:102890000D990A98884201D90D9800E00A9881465E
:1028A0004B4621460B9A1198FFF72CFB08B10120EB
:1028B0005AE5BDF83C200021204601F02CFD0B9884
:1028C00048440B900A98A0EB09000A900A98002847
:1028D000DED10398401C039003980028B9D0032E42
:1028E00001D1284600E004980A9000BF0D990A988B
:1028F000884201D90D9800E00A9881464B4621464E
:102900000B9A1198FFF7FEFA08B101202CE50B98FD
:1029100048440B900A98A0EB09000A900A980028F6
:10292000E4D100BF032E02D10C2012900CE00798D6
:10293000B0F5803F02D30620129005E0022E01D1AF
:10294000042000E00120129000BF169800F008005B
:10295000F0BBBDF83C200021204601F0DCFC4AF62B
:10296000552104F5FF7001F05DFF04F5DF7A0020CA
:102970008AF8000001208AF801008AF8020000208D
:102980008AF8030012988AF804000798584443F61E
:10299000C161B0FBF1F9FE208AF80500C02000EA11
:1029A000990040F03F008AF806008AF807905946DF
:1029B0000AF1080001F02AFF0AF10C00079901F062
:1029C00025FF0123002221461198FFF79BFA00E022
:1029D00002E008B10120C7E4002211461198FFF778
:1029E0001EFA08B10120BFE40020BDE44E4F204E86
:1029F000414D4520202020464154333220202000E4
:102A00000000214C4E4F204E414D452020202046B5
:102A100041542020202020005252614172724161B5
:102A2000F8FFFF00F7B582B016460398019001A8A1
:102A300001F03AFB0546002D02DA0B2005B0F0BD8F
:102A40000C4850F825400CB100202070029810B1BD
:102A50000020029908700749029841F825000EB934
:102A60000020EBE7002202A903A800F04DFF074673
:102A70003846E3E7B84200202DE9F74F8EB0044610
:102A800016461CB9092011B0BDE8F08F06F03F06CC
:102A9000324601A90FA800F037FF0546002D7DD171
:102AA0000198029002A80F9901F0DEF805462DB9B1
:102AB0009DF8330000F0800000B1062506F01C00F0
:102AC00000284DD045B1042D03D102A8FFF763F8CB
:102AD000054646F008060AE09DF80E0000F01100D9
:102AE00008B1072503E006F0040000B10825002D19
:102AF00047D106F00800002843D00999019801F059
:102B0000FAFA8146099901F10E00574901F07EFE5B
:102B100020200999C87200220999019801F064FEE9
:102B2000099901F11C00002101F070FE01200199BA
:102B3000C870B9F1000F24D00198406B00900022BA
:102B4000494602A801F0B9FD0546D5B9DDE90010F6
:102B500001F0EAFB0546A9F101000199486110E086
:102B60007DB99DF80E0000F0100008B1042508E0C2
:102B700006F0020028B19DF80E0000F0010000B13F
:102B800007254DB906F0080008B146F04006019847
:102B9000406B206209986062002D00E04EE05ED13B
:102BA0000999019801F0A7FAA060099901F11C00A8
:102BB00001F0B4FAE060019820600198C088A0801C
:102BC000267400206074E06160614FF4805200213F
:102BD00004F1280001F09FFB06F0200070B3E068CC
:102BE00060B3E0686061019840890199898900FBC0
:102BF00001FAA768D4F80C800CE03946204601F0B1
:102C0000FFF80746012F00D80225781C00B90125DE
:102C1000A8EB0A080DB9D045EFD8A76175B901989E
:102C20008089B8FBF0F100FB118038B1394601987A
:102C3000FEF79EFBB0F1000B01D102250FE00198D9
:102C40008089B8FBF0F05844E061E2690199487866
:102C5000012304F12801FFF70BF900B101250DB1A3
:102C60000020206028460EE70000214C33B581B0DB
:102C700004460CB909203EBD0022694602A800F0B6
:102C800043FE05461DBB009820602046029900F0D7
:102C9000EBFF0546C5B92B20005D00F0800050B960
:102CA000A07900F0100028B1E169009801F023FA42
:102CB000A06000E005253DB90098C088A0800021F3
:102CC0002046FFF739F80546042D00D105250DB142
:102CD000002020602846CEE70FB42DE9F04F9DB0CC
:102CE00009A8269901F0DFFC28A81C9000BF2798AE
:102CF00010F8014B279004B918E1252C04D0214687
:102D000009A801F098FCF2E70020064681462798C2
:102D100010F8014B2790302C05D10126279810F888
:102D2000014B279006E02D2C04D10226279810F89D
:102D3000014B27902A2C08D11C9850F8049B1C901A
:102D4000279810F8014B27900EE009E009EB890065
:102D500004EB4000A0F13009279810F8014B2790B0
:102D6000302C01DB392CF1DD6C2C01D04C2C05D141
:102D700046F00406279810F8014B279004B9D5E0D7
:102D80002546612D04DB7A2D02DCA5F12000C5B2B9
:102D90004F2D49D006DC422D43D0432D38D0442D51
:102DA0004CD144E0532D04D0552D41D0582D45D160
:102DB00041E01C9850F804BB1C904FF0000801E063
:102DC00008F101081BF808000028F9D106F00200FC
:102DD00048B903E0202109A801F02DFC404608F184
:102DE00001084845F6D304E01BF8011B09A801F0CF
:102DF00022FC9BF800000028F6D103E0202109A85E
:102E000001F019FC404608F101084845F6D36EE789
:102E10001C9810F8042BD1B21C9009A801F00BFCEF
:102E200065E7022008900EE0082008900BE000BF44
:102E30000A20089007E01020089004E0214609A825
:102E400001F0F9FB53E700BF06F0040028B11C981D
:102E500000681C99091D1C910CE0442D05D11C989B
:102E600000681C99091D1C9104E01C9800681C99BD
:102E7000091D1C918246442D06D10AF0004018B16C
:102E8000CAF1000A46F00806002700BF0898BAFBFE
:102E9000F0F100FB11A0C5B20898BAFBF0FA092DB9
:102EA00006DD782C01D1272000E007202844C5B298
:102EB00005F13000C2B238467F1C0DF80020BAF18F
:102EC000000F01D0202FE1D306F0080020B12D2201
:102ED00038467F1C0DF80020B84606F0010008B106
:102EE000302000E02020054606F0020048B903E04B
:102EF000294609A801F09FFB404608F10108484512
:102F0000F6D300BF781E07461DF8001009A801F08F
:102F100092FB002FF6D103E0294609A801F08BFBB4
:102F2000404608F101084845F6D3E0E600BF00201E
:102F30001C9009A801F0A1FB1DB0BDE8F00F5DF8E1
:102F400014FB2DE9FF4F85B0044615469A46DDF87F
:102F500018B00020CAF8000003A9204601F00BFDBC
:102F60000490049810B9607C049018B1049809B0DA
:102F7000BDE8F08F207C00F0010008B90720F6E7DB
:102F80006169E068401A01900198854200D9019D6D
:102F9000B9E0606903998989B0FBF1F201FB120085
:102FA000002876D1606903998989B0FBF1F0039913
:102FB0004989491E00EA0109B9F1000F17D160697A
:102FC00010B9A068029004E02046A16900F018FF43
:102FD00002900298022802D202206074C7E7029889
:102FE000401C10B901206074C1E70298A061A1697A
:102FF0000398FEF7BDF9064616B902206074B6E7DD
:103000004E4403988089B5FBF0F8B8F1000F2DD03D
:1030100009EB080003994989884203D9039840893C
:10302000A0EB090803994878434632465946FEF713
:103030001FFF10B10120607499E7207C00F0800030
:1030400078B1E069801B40450BD2E169891B039B85
:103050009B8901FB03B003998A8904F1280101F0DF
:103060004DF90398808900FB08F742E0E069B0421F
:1030700020D0207C00F0800080B1E269039948787C
:10308000012304F12801FEF73DFF18B1012060740F
:103090006DE710E0207C00F07F00207403994878F1
:1030A0000123324604F12801FEF7E2FE10B10120AF
:1030B00060745CE7E661606903998989B0FBF1F2AD
:1030C00001FB1200039989890F1AAF4200D92F46DC
:1030D000606903998989B0FBF1F201FB120104F1E7
:1030E000280008443A4601460090584601F006F987
:1030F00000BFED1BDAF800003844CAF80000BB44FA
:10310000606938446061002D7FF443AF00202EE7F2
:10311000F8B506460D466946304601F02CFC0446DB
:10312000DCB92DB900213046FEF706FE044614E056
:1031300000213046FEF7C6FC0446042C00D10024D2
:103140005CB92946304600F0F4FE00213046FEF717
:103150004EFC0446042C00D100242046F8BDF3B5F3
:10316000A1B022A800F0A0FF022208A921A800F027
:10317000CBFB0446002C7CD10898159015A821990A
:1031800000F072FD04462CB99DF87F0000F0A0000D
:1031900000B10624002C6CD1202268461C9901F055
:1031A000ADF8302215A909A801F0A8F809A82299BC
:1031B00000F05AFD04465CB917990B98884205D176
:1031C00019990D98884201D1042000E00820044696
:1031D000042C44D109A8FEF7DEFC0446002C3ED1A5
:1031E000109D13220DF10D0105F10D0001F086F87F
:1031F0009DF80B00E872E87A00F0100018B9E87A40
:1032000040F02000E87201200899C870E87A00F0C8
:10321000100020B30B991798884220D029460898AF
:1032200000F069FF074639460898FEF7A1F8064600
:103230000EB9022413E03146089801F075F80446EF
:10324000089800F1580554B968782E2807D1294606
:103250000B9A089801F0C8FA01200899C87044B97F
:1032600015A8FEF739FD04461CB9089801F0F0FADC
:103270000446204623B0F0BD33B58DB00D46002284
:1032800001A90DA800F040FB04468CB901A80D99D6
:1032900000F0EAFC04465CB99DF82F0000F08000C5
:1032A00008B1062404E01DB1294601A800F041FE42
:1032B00020460FB030BD0000F8B5044669462046F0
:1032C00001F059FB0646002E42D1207C00F0400060
:1032D00000283DD0207C00F0800070B1E2690099A8
:1032E0004878012304F12801FEF70CFE08B1012003
:1032F000F8BD207C00F07F002074164F216A0098F2
:1033000001F012F806461EBB656AE87A40F020001C
:10331000E8722946A268206801F066FA05F11C00EF
:10332000E16801F073FA394605F1160001F06EFA12
:10333000002105F1120001F075FA01200099C87012
:10334000009801F085FA0646207C00F0BF0020744A
:103350003046CDE70000214C31B59AB0002502225D
:1033600001A91AA800F0D0FA0446002C46D1019811
:103370000E900EA81A9900F077FC044600BF002CAE
:103380003CD19DF8630000F0800008B1062405E000
:103390009DF83E0000F0010000B10724E4B9159942
:1033A000019800F0A8FE05469DF83E0000F01000D0
:1033B00090B1019802900495002102A8FEF7BCFC90
:1033C00004464CB9002102A8FEF77CFB044604B970
:1033D0000724042C00D1002484B90EA8FEF77CFC3D
:1033E000044634B92DB1002229460EA801F065F932
:1033F00004461CB9019801F02BFA044620461BB084
:1034000030BD2DE9FF4F85B0044615469B46069812
:1034100002900020CBF8000003A9204601F0ABFA8F
:103420000490049810B9607C049018B1049809B015
:10343000BDE8F08F207C00F0020008B90720F6E715
:1034400000BF606928446169884202D26069C0F1A6
:10345000FF35D6E0606903998989B0FBF1F201FB81
:10346000120000287DD1606903998989B0FBF1F0D1
:1034700003994989491E00EA010ABAF1000F1ED1D9
:10348000606938B9A76857B900212046FDF7CAFF1F
:10349000074604E02046A169FDF7C4FF074607B9C7
:1034A000B2E0012F02D102206074C0E7781C10B98D
:1034B00001206074BBE7A761A06800B9A760207C09
:1034C00000F0800078B1E26903994878012304F1A3
:1034D0002801FEF717FD10B101206074A7E7207CDA
:1034E00000F07F002074A1690398FDF741FF0646B4
:1034F00016B9022060749AE7564403988089B5FB98
:10350000F0F9B9F1000F31D00AEB090003994989AC
:10351000884203D903984089A0EB0A0903994878A7
:103520004B4632460299FEF7EDFC10B10120607463
:103530007DE7E069801B484511D2E069831B039851
:10354000B0F80CC0029803FB0C010398828904F1C7
:10355000280000F0D3FE207C00F07F002074039848
:1035600000E017E0808900FB09F835E0E069B0422F
:103570000FD0E168606988420BD203994878012333
:10358000324604F12801FEF773FC10B1012060748B
:103590004DE7E661606903998989B0FBF1F201FBAF
:1035A000120003998989A1EB0008A84500D9A84613
:1035B000606903998989B0FBF1F201FB120104F102
:1035C0002800084442460190029900F097FE207CB2
:1035D00040F08000207400BFA5EB0805DBF8000078
:1035E0004044CBF800000298404402906069404497
:1035F0006061E1686069884201D9606900E0E06863
:10360000E060002D7FF426AF00BF207C40F040003A
:10361000207400200BE70000F0B502460E460020A3
:103620000021802A01DA104627E0B6F56A7F24D10E
:10363000124B45F220570025102414E0A7EB050C8F
:1036400005EB5C014FEA410C33F81CC0944500D1F6
:103650000BE04FEA410C33F81CC0944501DA0D46EB
:1036600000E00F46641E002CE8D100BF2CB14FF0E3
:10367000010C0CEB410C33F81C00F0BD6A9E0108F4
:103680002DE9F04102460F4600200021802A01D298
:1036900090B22BE0B2F5803F28D2B7F56A7F25D1F2
:1036A00095B2134B45F2205C0026102414E0ACEBDD
:1036B000060806EB58014FEA410833F81880A84580
:1036C00000D10BE04FEA410833F81880A84501DA31
:1036D0000E4600E08C46641E002CE8D100BF2CB1E1
:1036E0004FF0010808EB410833F81800BDE8F081FD
:1036F000E649000870B5B0F5803F4DD281B2B1F512
:10370000805F01DA254E00E0254E324600BF32F8D8
:10371000023B0BB1994200DA3CE032F8024B251231
:10372000E4B21E198E4230DD092D2CD2DFE805F0FF
:1037300005090F13171B1F232700CE1A32F8161086
:1037400021E0CE1A06F001068E1BB1B21BE0A1F1FA
:103750001006B1B217E0A1F12006B1B213E0A1F159
:103760003006B1B20FE0A1F11A06B1B20BE001F1DF
:103770000806B1B207E0A1F15006B1B203E0A1F52D
:10378000E356B1B200BF00BF04E0002DBFD102EB91
:103790004402BCE700BF084670BD0000EEF202081C
:1037A000E0F402087CB505460C4621462846FFF7A2
:1037B00063FD2F4908700846007810B104284CD1E9
:1037C00047E029462BA0FDF7B1FB2EA02168FDF7AD
:1037D000ADFBE088C0F34510E188C912CDE90010C7
:1037E000207900F01F03A088C0F3431240F2BC769A
:1037F00006EB602127A0FDF799FB207A00F020005E
:1038000008B1412000E02D20217A01F0040109B126
:10381000532100E02D21CDE90010207A00F00200B4
:1038200008B1482000E02D200346207A00F0010076
:1038300008B1522000E02D200246207A00F010004E
:1038400008B1442000E02D2001461CA0FDF76EFBCE
:1038500009E021A0FDF76AFB05E00548017823A0F7
:10386000FDF764FB00BF00BF014800787CBD00008D
:10387000140000200A3E257320535441543A200A74
:10388000000000000A3E53697A653A20256C750AEB
:10389000000000000A3E54696D657374616D703AF2
:1038A0002025752F253032752F253032752C202597
:1038B0003032753A253032750A0000000A3E4174F4
:1038C00074726962757465733A2025632563256394
:1038D000256325630A0000000A3E4954204953200D
:1038E0004E4F542045584953542E0A000A3E414E2B
:1038F000204552524F52204F43434F555245442E7C
:1039000020282564290A00002DE9F74F8AB00021FC
:103910000B9801600A9800F0C7FB089008980028EF
:1039200003DA0B200DB0BDE8F08FC949089851F8B3
:1039300020400CB90C20F5E70B9804600C9800F0BF
:10394000FE000C90207878B16078FEF7B9FA8146D5
:1039500009F0010040B90C9820B109F0040008B149
:103960000A20DFE70020DDE7002020700898607063
:103970006078FEF734FA814609F0010008B10320AF
:10398000D0E70C9820B109F0040008B10A20C9E77B
:10399000607804F10C020221FEF741FA08B101201F
:1039A000C0E7A089B0F5805F07DCA089B0F5007F93
:1039B00003DBA089411E084008B10120B2E70027BF
:1039C00039462046FDF78CFC0546022D01D02EDA43
:1039D0002DE0002614E04FF4DF7000EB061104F137
:1039E0003800084409900998007920B109980830F6
:1039F00000F094FB00E0002002A941F82600761CAC
:103A0000042EE8D3002606B1761E00BF02A850F8A7
:103A1000267027B139462046FDF762FC00E00320FE
:103A20000546022D03DB701C06460428EED3042D48
:103A300001D1012076E7022D01DB0D2072E704F1B0
:103A4000430000F077FBA189884201D00D2069E78F
:103A500004F14E0000F06EFB8046B8F1000F04D177
:103A600004F15C0000F05AFB8046C4F82080482036
:103A7000005DA070A078012804D0A078022801D0B1
:103A80000D204FE7A07808FB00F84520005D60811D
:103A9000608918B16089411E084008B10D2041E7D6
:103AA00004F1490000F046FB2081A089C11700EB1A
:103AB000D1614911228992FBF1F301FB132109B174
:103AC0000D202FE704F14B0000F034FB8346BBF1DF
:103AD000000F04D104F1580000F020FB834604F1EC
:103AE000460000F027FB0190019808B90D2019E766
:103AF000A089C11700EBD1614911228992FBF1F233
:103B0000019941441144079107998B4501D20D2039
:103B100008E70798ABEB00006189B0FBF1FABAF156
:103B2000000F01D10D20FDE600254A48824500D84E
:103B300003254FF6F570824500D8022540F6F57052
:103B4000824500D801250DB90D20EBE60AF10200EF
:103B5000E061676201983844A062079838442063A6
:103B6000032D13D104F1620000F0E4FA08B10D2036
:103B7000D8E6208908B10D20D4E604F1640000F0F5
:103B8000CDFAE062E0698000069014E0208908B96F
:103B90000D20C7E6A06A4044E062022D02D1E06930
:103BA000400007E0207F00F00100E16901EB4101E6
:103BB00000EB51000690A089401E06990844A18997
:103BC000B0FBF1F0216A884201D90D20AAE64FF03E
:103BD000FF30A061606180202071032D2CD104F1A1
:103BE000680000F0A7FA012826D1791C204600F0D1
:103BF0009BFB08BB0020207104F2362000F09AFAEB
:103C00004AF65521884217D104F1380000F086FAAF
:103C10001149884210D104F5077000F07FFA0F496E
:103C2000884209D104F5087000F078FAA06104F523
:103C3000097000F073FA6061257009480088401C23
:103C400080B207490880E08006482061002069E6CC
:103C5000B8420020F5FFFF0F52526141727241617C
:103C600020000020C84200202DE9F34104462768C7
:103C700002E00198401C0190019800782F28F8D0AC
:103C8000019800785C28F4D00020A06001980078AA
:103C9000202808D280212B20015500212046FEF744
:103CA0004BF8054631E000BF01A92046FDF74AFC6C
:103CB000054605B128E02046FDF71BFE05462B20F2
:103CC000065D3DB1042D04D100BF06F0040000B92B
:103CD000052519E006F0040000B115E0A07900F018
:103CE000100008B905250FE0B9892069B0FBF1F291
:103CF00001FB120107F1380001EB0008414638468C
:103D000000F0F9F9A060CFE700BF2846BDE8FC81CC
:103D100070B504460D46E1B20548FDF701F900BF54
:103D200080210348FDF782F80028F9D0204670BDB5
:103D3000003801402DE9FF4F83B0804691461E4672
:103D40000B224046049900F0D9FA052E18D93746BF
:103D500011E039F802BB00250BE0584667F35F001D
:103D600007464FEA6B0B07F4803008B12348474001
:103D70006D1C102DF1D3B9F800000028E9D13E46A2
:103D8000072500BF06F00F0000F1300ABAF1390F25
:103D900003DD0AF1070000F0FF0A28466D1E01A9A5
:103DA00001F800A03609002EECD17E2048550024F1
:103DB0000AE018F80400FDF7EFFC20B1681EA042ED
:103DC00000D107E0641C641CAC4203D218F8040064
:103DD0002028EED100BF00BF082D04D228466D1C5C
:103DE00001A9085C00E020202146641C08F80100BD
:103DF000082CF1D307B0BDE8F08F000021100100BE
:103E00002DE9F05F81460D46D9F80040022D02D31E
:103E1000E069A84202D84FF0010887E04FF0FF3870
:103E20002078012804D002283AD003287AD156E01D
:103E30002E4606EB5606A089B6FBF0F0A16A00EB11
:103E4000010A5146204600F06FFA00B16DE030469D
:103E5000761CA189B0FBF1F201FB120104F13800DC
:103E6000475CA089B6FBF0F0A16A00EB010A51465D
:103E7000204600F059FA00B157E0A089B6FBF0F1F6
:103E800000FB116104F13800405C47EA002705F0AF
:103E9000010008B1380901E0C7F30B00804644E097
:103EA000B4F80CA00AEBDA704010B5FBF0F0A16A90
:103EB00000EB010B5946204600F036FA00B134E021
:103EC0006800A189B0FBF1F201FB120104F1380096
:103ED00001EB000A504600F02DF9804625E0B4F8C9
:103EE0000CA04FEAEA700AEB90708010B5FBF0F07E
:103EF000A16A00EB010B5946204600F015FA00B10B
:103F000013E0A800A189B0FBF1F201FB120104F15A
:103F1000380001EB000A504600F000F920F070482C
:103F200003E0FFE74FF0010800BF00BF4046BDE8D7
:103F3000F09F2DE9F04707460C46D7F800A0002077
:103F4000A075B86908B9BDE8F087F86A401CA8B345
:103F50000025A946A84622E0404608F10108DAF803
:103F6000102032F81060B9F1000F07D1B6F5584FA4
:103F700004DBB6F5604F01DAB14610E0C5F1FF028F
:103F800004F11603591946EA094000F033FB0646CE
:103F90000EB9002509E035444FF0000900BFDAF8FA
:103FA000100030F818000028D6D100BFB9F1000F7A
:103FB00000D00025002104F11600415500200546DF
:103FC00080461BE0404608F10108FA69165C202E85
:103FD00000D113E0052E00D1E526B8F1090F07D175
:103FE0000C2D05D22E2228466D1C04F109010A541D
:103FF00028466D1C04F109010E5400BFB8F10B0FE7
:10400000E0D3002104F109004155A07DA8BB35B9DA
:104010003F2228466D1C04F116010A5424E00020BA
:10402000054680461AE004F1090010F80860412EA8
:104030000EDB5A2E0CDCF869007BB8F1090F01D3B6
:10404000102100E00821084010B106F1200086B2DE
:1040500004F11600465508F101086D1C04F1090031
:1040600010F808000028DED1002104F116004155A7
:10407000F869007B08B900206072F869C07A207284
:10408000F96901F11C0000F049F82060F96901F1BB
:10409000160000F04FF8E080F96901F1180000F017
:1040A00049F8A08000BF4EE770B504464FF0FF30DE
:1040B00026683146324601B970BD00BF12F8013B97
:1040C000202B01D33A2BF9D13A2B11D104250E78AC
:1040D000302E08DB0E78392E05DC8E1C964202D17C
:1040E0000E78A6F13005042D01DA28462260E3E7B8
:1040F000002000BFE0E770B505460C4604F11A0049
:1041000000F018F806462878032805D104F11400B9
:1041100000F010F846EA0046304670BD0146C87807
:104120008A7842EA00204A7842EA00200A7842EA85
:1041300000207047014648780A7842EA002070471C
:1041400008B5FCF74DFA012220213948FCF72EFA78
:10415000012211463648FCF729FA00220221344890
:10416000FCF724FAFCF722FE3248FCF7DFFE324867
:10417000FCF7DCFE3148FCF7D9FE3148FCF7D6FEEF
:104180002E48FCF7D3FE2F48FCF7D0FE2948FCF759
:10419000CDFE01222CA12D48FEF744FC2C490870CD
:1041A000084600780D2826D12AA0FCF7BFFE4FF460
:1041B0008050344B00220121009023A0FEF7C4F868
:1041C000234908700846007888B92FA0FCF7AEFE96
:1041D00000221DA11046FEF725FC1D490870012292
:1041E00019A11A48FEF71EFC194908700DE02AA013
:1041F000FCF79CFE09E01648007818B12AA0FCF7ED
:1042000095FE02E02CA0FCF791FEFBF7E9FF1049B8
:10421000087000220CA11046FEF704FC0C4908703F
:104220000846007810B928A0FCF780FE00BFFEE722
:10423000000C0140FCF7020818F7020880F602089B
:1042400064F70208B0F70208333A00002810002093
:10425000140000200A3E464C4153485F4E4F5F46D3
:10426000494C4553595354454D20535441525420C1
:10427000544F204D4B46530A3E574149542E2E2E43
:104280000A000000280000200A3E4D4B4653204FF4
:104290005645520A000000000A3E4D4B4653204648
:1042A00041494C0A000000000A3E4D4F554E542033
:1042B0004641494C0A0000000A3E4D4F554E5420DD
:1042C0004F5645520A0000000A3E54455354204FB1
:1042D0005645520A00000000F0B503461D460C4644
:1042E000002000BF15F8017B14F801CBA7EB0C00F0
:1042F000561E321E01D00028F4D0F0BD30B5034662
:104300000C463AB100BF14F8015B03F8015B551E7F
:104310002A1EF8D130BD10B5034600BF03F8011BBB
:10432000541E221EFAD110BD70B504460D4600265B
:10433000606BA84210D0204600F0D2FA06465EB963
:10434000607801232A4604F13801FDF791FD10B190
:104350004FF0FF3501266563304670BD2DE9F0470B
:1043600080460C4604F11A00FFF7E4FE10B100206D
:10437000BDE8F087207820F04000401E00EB80016F
:1043800001EBC0054FF00109002619E01449895DD1
:104390000819FFF7CFFE0746B9F1000F09D0FF2D2E
:1043A00001D30020E4E7B94628466D1C28F81070B8
:1043B00005E04FF6FF70874201D00020D8E7761C59
:1043C0000D2EE3D3207800F0400030B1FF2D01D353
:1043D0000020CDE7002028F815000120C8E70000E4
:1043E000B24900082DE9F05F04460D4616464FF02D
:1043F0000209022D72D3E069A8426FD92078012802
:1044000004D0022857D0032811D179E02F4607EBBA
:104410005707A089B7FBF0F0A16A00EB010A5146EB
:104420002046FFF781FF8146B9F1000F00D09DE0E3
:1044300038467F1CA189B0FBF1F201FB120104F1A7
:10444000380001EB000805F0010028B1F1B298F83E
:10445000000061F31F1000E0304688F800000120E2
:10446000E070A089B7FBF0F0A16A00EB010A5146A9
:104470002046FFF759FF8146B9F1000F00D075E0E3
:10448000A089B7FBF0F100FB117104F1380001EBDA
:10449000000805F0010010B1C6F3071006E098F817
:1044A000000000F0F000C6F30321084388F8000084
:1044B0000120E0705AE0B4F80CA00AEBDA7040106A
:1044C000B5FBF0F0A16A00EB010B59462046FFF75F
:1044D0002BFF8146B9F1000F01D047E047E06800AB
:1044E000A189B0FBF1F201FB120104F1380001EBEC
:1044F000000AB1B2504600F095F90120E07035E0B5
:10450000B4F80CA04FEAEA700AEB90708010B5FB8B
:10451000F0F0A16A00EB010B59462046FFF704FFBB
:104520008146B9F1000F00D020E0A800A189B0FBBE
:10453000F1F201FB120104F1380001EB000A5046D0
:10454000FFF7ECFD66F31B000646A800A189B0FB4F
:10455000F1F201FB120104F1380001EB000A3146CF
:10456000504600F053F90120E07000BF00BF4846FC
:10457000BDE8F09F2DE9F04707460C4615469846E2
:1045800084F80D800F20E07200202073002104F1D8
:104590001A0000F047F9681E00EB800101EBC0092A
:1045A00000200646824600BF4FF6FF70864204D0C8
:1045B000484609F1010937F810600D4911F80A1051
:1045C0000819314600F02EF90EB94FF6FF760AF1C0
:1045D000010082460D28E7D34FF6FF70864202D0D5
:1045E00037F8190008B945F040052570BDE8F08797
:1045F000B24900082DE9F04107460C4616464FF433
:104600006A713846FFF73CF80546FF2D0BDD022E98
:1046100002D20020BDE8F081281204F8010B04F852
:10462000015B0220F6E705B10EB90020F2E704F8BD
:10463000015B0120EEE7F8B504460E4600BF656851
:10464000002D00DAF8BDA76828466D1C04F10C01A6
:104650000E543C2D0CDB6B462A462068FEF7D1FE3B
:104660000098A84201D1002001E04FF0FF3005463C
:104670006560781CA06000BFE4E738B50446606858
:1046800000280DDB6B4604F10C01D4E90002FEF7B3
:10469000B8FE28B960680099884201D1A06838BD89
:1046A0004FF0FF30FBE770B504460D464C22002169
:1046B0002046FFF730FE256070BD2DE9F0478146AA
:1046C0000E4617464FF00008D9F80040022E02D3DC
:1046D000E069B04202D80220BDE8F08767B100BFB0
:1046E0004FF0FF3239462046FFF77CFE8046B8F196
:1046F000000F01D04046EFE700BF31464846FFF7C4
:104700007FFB054605B922E0012D01D10220E3E738
:10471000681C08B90120DFE7002231462046FFF778
:1047200061FE8046B8F1000F01D04046D4E7D4E9DD
:104730000610801E814206D2A069401CA06120792B
:1047400040F0010020712E46E069B042D5D800BF8C
:104750000020C1E7F0B58DB00446214601A8FEF760
:1047600085FA0546002D34D100BF1B4901A8FEF78C
:10477000CFFC054615B91848807D00B925E01648DC
:10478000407A10B11448093001E01348163007464A
:104790001148007A00F0100088B12046FBF7E6FCD3
:1047A0000646A0193A460DA1FCF7D0FB2046FFF7BC
:1047B000D1FF054605B108E00020A055D5E73A46EF
:1047C000214607A0FCF7B2FBCFE700BF01A8FDF729
:1047D000D5FB28460DB0F0BDA04100202F25730069
:1047E00025732F25730A000070B506460C46154642
:1047F000A9B204F11A0000F015F83078032804D1AA
:10480000290C04F1140000F00DF870BD00F8011B34
:10481000090A00F8011B090A00F8011B090A00F83F
:10482000011B704700F8011B091200F8011B7047BB
:1048300030B5014600200B2200BF431003EBC0142B
:1048400011F8015B6319D8B2531E1A1EF5D130BDA1
:1048500070B50446204600F043F80546002D38D1D7
:10486000207803282ED1207901282BD1A28900217C
:1048700004F13800FFF74FFD4AF6552104F23620C7
:10488000FFF7D0FF144904F13800FFF7BFFF1349C9
:1048900004F50770FFF7BAFF04F50870A169FFF788
:1048A000B5FF04F509706169FFF7B0FF606A401C4D
:1048B00060636078012304F13801626BFDF722FB2D
:1048C00000202071607800221146FDF7A8FA00B19F
:1048D0000125284670BD000052526141727241614B
:1048E00070B504460025E078E8B16078012304F152
:1048F0003801626BFDF706FBA0B90020E070A16AE9
:10490000606B401A216A88420DD2A07802280AD131
:10491000236A616BCA186078012304F13801FDF73E
:10492000F1FA00E00125284670BD2DE9F041064668
:10493000356815F8014B2046FCF72EFF60B115F8DD
:10494000017B3846FCF742FF18B94FF0FF30BDE855
:10495000F08107EB042084B24CB14FF46A71204619
:10496000FEF75AFE044614B94FF0FF30EFE7A046B9
:1049700035604046EBE770B504460D4609268CB11C
:10498000206878B12068007860B1A0882168C98863
:10499000884207D121684878FDF792FA00F00100BB
:1049A00000B900260EB9206800E0002028603046DB
:1049B00070BD01030507090E10121416181C1E8184
:1049C000FE0000407E80FE00000001000400100098
:1049D0004000000100020000010002000400080085
:1049E000100020000000A400E8A1A700ECA1A8008E
:1049F000A7A1B000E3A1B100C0A1B700A4A1D70056
:104A0000C1A1E000A4A8E100A2A8E800A8A8E900CC
:104A1000A6A8EA00BAA8EC00ACA8ED00AAA8F2008B
:104A2000B0A8F300AEA8F700C2A1F900B4A8FA003C
:104A3000B2A8FC00B9A80101A1A81301A5A81B01F7
:104A4000A7A82B01A9A84401BDA84801BEA84D01F3
:104A5000ADA86B01B1A8CE01A3A8D001ABA8D2012B
:104A6000AFA8D401B3A8D601B5A8D801B6A8DA0179
:104A7000B7A8DC01B8A85102BBA86102C0A8C70250
:104A8000A6A1C902A5A1CA0240A8CB0241A8D90289
:104A900042A89103A1A69203A2A69303A3A69403FE
:104AA000A4A69503A5A69603A6A69703A7A6980372
:104AB000A8A69903A9A69A03AAA69B03ABA69C0342
:104AC000ACA69D03ADA69E03AEA69F03AFA6A00312
:104AD000B0A6A103B1A6A303B2A6A403B3A6A503DF
:104AE000B4A6A603B5A6A703B6A6A803B7A6A903AE
:104AF000B8A6B103C1A6B203C2A6B303C3A6B4034A
:104B0000C4A6B503C5A6B603C6A6B703C7A6B80311
:104B1000C8A6B903C9A6BA03CAA6BB03CBA6BC03E1
:104B2000CCA6BD03CDA6BE03CEA6BF03CFA6C003B1
:104B3000D0A6C103D1A6C303D2A6C403D3A6C5037E
:104B4000D4A6C603D5A6C703D6A6C803D7A6C9034D
:104B5000D8A60104A7A71004A1A71104A2A71204B4
:104B6000A3A71304A4A71404A5A71504A6A71604B5
:104B7000A8A71704A9A71804AAA71904ABA71A0481
:104B8000ACA71B04ADA71C04AEA71D04AFA71E0451
:104B9000B0A71F04B1A72004B2A72104B3A7220421
:104BA000B4A72304B5A72404B6A72504B7A72604F1
:104BB000B8A72704B9A72804BAA72904BBA72A04C1
:104BC000BCA72B04BDA72C04BEA72D04BFA72E0491
:104BD000C0A72F04C1A73004D1A73104D2A7320443
:104BE000D3A73304D4A73404D5A73504D6A73604F5
:104BF000D8A73704D9A73804DAA73904DBA73A04C1
:104C0000DCA73B04DDA73C04DEA73D04DFA73E0490
:104C1000E0A73F04E1A74004E2A74104E3A7420460
:104C2000E4A74304E5A74404E6A74504E7A7460430
:104C3000E8A74704E9A74804EAA74904EBA74A0400
:104C4000ECA74B04EDA74C04EEA74D04EFA74E04D0
:104C5000F0A74F04F1A75104D7A710205CA9132097
:104C600043A81420AAA1152044A81620ACA11820FE
:104C7000AEA11920AFA11C20B0A11D20B1A12520FB
:104C800045A82620ADA13020EBA13220E4A133209D
:104C9000E5A1352046A83B20F9A1AC2080000321E6
:104CA000E6A1052147A8092148A81621EDA1212147
:104CB00059A96021F1A26121F2A26221F3A263212C
:104CC000F4A26421F5A26521F6A26621F7A267216C
:104CD000F8A26821F9A26921FAA26A21FBA26B213C
:104CE000FCA27021A1A27121A2A27221A3A2732110
:104CF000A4A27421A5A27521A6A27621A7A277213C
:104D0000A8A27821A9A27921AAA29021FBA1912190
:104D1000FCA19221FAA19321FDA1962149A89721F6
:104D20004AA898214BA899214CA80822CAA10F2271
:104D3000C7A11122C6A115224DA81A22CCA11D225D
:104D4000D8A11E22DEA11F224EA82022CFA12322FD
:104D50004FA82522CEA12722C4A12822C5A12922FD
:104D6000C9A12A22C8A12B22D2A12E22D3A134224A
:104D7000E0A13522DFA13622C3A13722CBA13D22FB
:104D8000D7A14822D6A14C22D5A1522250A86022F8
:104D9000D9A16122D4A16422DCA16522DDA1662211
:104DA00051A8672252A86E22DAA16F22DBA19522B8
:104DB00092A89922D1A1A522CDA1BF2253A8122346
:104DC000D0A16024D9A26124DAA26224DBA26324E8
:104DD000DCA26424DDA26524DEA26624DFA26724AF
:104DE000E0A26824E1A26924E2A27424C5A2752489
:104DF000C6A27624C7A27724C8A27824C9A279249F
:104E0000CAA27A24CBA27B24CCA27C24CDA27D246E
:104E1000CEA27E24CFA27F24D0A28024D1A281243E
:104E2000D2A28224D3A28324D4A28424D5A285240E
:104E3000D6A28624D7A28724D8A28824B1A2892406
:104E4000B2A28A24B3A28B24B4A28C24B5A28D244E
:104E5000B6A28E24B7A28F24B8A29024B9A291241E
:104E6000BAA29224BBA29324BCA29424BDA29524EE
:104E7000BEA29624BFA29724C0A29824C1A29924BE
:104E8000C2A29A24C3A29B24C4A20025A4A90125DE
:104E9000A5A90225A6A90325A7A90425A8A9052532
:104EA000A9A90625AAA90725ABA90825ACA9092502
:104EB000ADA90A25AEA90B25AFA90C25B0A90D25D2
:104EC000B1A90E25B2A90F25B3A91025B4A91125A2
:104ED000B5A91225B6A91325B7A91425B8A9152572
:104EE000B9A91625BAA91725BBA91825BCA9192542
:104EF000BDA91A25BEA91B25BFA91C25C0A91D2512
:104F0000C1A91E25C2A91F25C3A92025C4A92125E1
:104F1000C5A92225C6A92325C7A92425C8A92525B1
:104F2000C9A92625CAA92725CBA92825CCA9292581
:104F3000CDA92A25CEA92B25CFA92C25D0A92D2551
:104F4000D1A92E25D2A92F25D3A93025D4A9312521
:104F5000D5A93225D6A93325D7A93425D8A93525F1
:104F6000D9A93625DAA93725DBA93825DCA93925C1
:104F7000DDA93A25DEA93B25DFA93C25E0A93D2591
:104F8000E1A93E25E2A93F25E3A94025E4A9412561
:104F9000E5A94225E6A94325E7A94425E8A9452531
:104FA000E9A94625EAA94725EBA94825ECA9492501
:104FB000EDA94A25EEA94B25EFA9502554A8512566
:104FC00055A8522556A8532557A8542558A8552505
:104FD00059A856255AA857255BA858255CA85925D5
:104FE0005DA85A255EA85B255FA85C2560A85D25A5
:104FF00061A85E2562A85F2563A8602564A8612575
:1050000065A8622566A8632567A8642568A8652544
:1050100069A866256AA867256BA868256CA8692514
:105020006DA86A256EA86B256FA86C2570A86D25E4
:1050300071A86E2572A86F2573A8702574A87125B4
:1050400075A8722576A8732577A8812578A882256A
:1050500079A883257AA884257BA885257CA8862520
:105060007DA887257EA8882580A8892581A88A25EE
:1050700082A88B2583A88C2584A88D2585A88E25BC
:1050800086A88F2587A8932588A8942589A8952583
:105090008AA8A025F6A1A125F5A1B225F8A1B325DE
:1050A000F7A1BC258BA8BD258CA8C625F4A1C725D2
:1050B000F3A1CB25F0A1CE25F2A1CF25F1A1E225C8
:1050C0008DA8E3258EA8E4258FA8E52590A80526C0
:1050D000EFA10626EEA1092691A84026E2A14226CC
:1050E000E1A10030A1A10130A2A10230A3A10330AF
:1050F000A8A10530A9A1063065A9073096A90830F6
:10510000B4A10930B5A10A30B6A10B30B7A10C305B
:10511000B8A10D30B9A10E30BAA10F30BBA110302B
:10512000BEA11130BFA1123093A81330FEA11430DC
:10513000B2A11530B3A11630BCA11730BDA11D30EE
:1051400094A81E3095A8213040A9223041A92330CF
:1051500042A9243043A9253044A9263045A9273047
:1051600046A9283047A9293048A94130A1A4423096
:10517000A2A44330A3A44430A4A44530A5A446303F
:10518000A6A44730A7A44830A8A44930A9A44A300F
:10519000AAA44B30ABA44C30ACA44D30ADA44E30DF
:1051A000AEA44F30AFA45030B0A45130B1A45230AF
:1051B000B2A45330B3A45430B4A45530B5A456307F
:1051C000B6A45730B7A45830B8A45930B9A45A304F
:1051D000BAA45B30BBA45C30BCA45D30BDA45E301F
:1051E000BEA45F30BFA46030C0A46130C1A46230EF
:1051F000C2A46330C3A46430C4A46530C5A46630BF
:10520000C6A46730C7A46830C8A46930C9A46A308E
:10521000CAA46B30CBA46C30CCA46D30CDA46E305E
:10522000CEA46F30CFA47030D0A47130D1A472302E
:10523000D2A47330D3A47430D4A47530D5A47630FE
:10524000D6A47730D7A47830D8A47930D9A47A30CE
:10525000DAA47B30DBA47C30DCA47D30DDA47E309E
:10526000DEA47F30DFA48030E0A48130E1A482306E
:10527000E2A48330E3A48430E4A48530E5A486303E
:10528000E6A48730E7A48830E8A48930E9A48A300E
:10529000EAA48B30EBA48C30ECA48D30EDA48E30DE
:1052A000EEA48F30EFA49030F0A49130F1A49230AE
:1052B000F2A49330F3A49B3061A99C3062A99D3085
:1052C00066A99E3067A9A130A1A5A230A2A5A330EE
:1052D000A3A5A430A4A5A530A5A5A630A6A5A73052
:1052E000A7A5A830A8A5A930A9A5AA30AAA5AB3022
:1052F000ABA5AC30ACA5AD30ADA5AE30AEA5AF30F2
:10530000AFA5B030B0A5B130B1A5B230B2A5B330C1
:10531000B3A5B430B4A5B530B5A5B630B6A5B73091
:10532000B7A5B830B8A5B930B9A5BA30BAA5BB3061
:10533000BBA5BC30BCA5BD30BDA5BE30BEA5BF3031
:10534000BFA5C030C0A5C130C1A5C230C2A5C33001
:10535000C3A5C430C4A5C530C5A5C630C6A5C730D1
:10536000C7A5C830C8A5C930C9A5CA30CAA5CB30A1
:10537000CBA5CC30CCA5CD30CDA5CE30CEA5CF3071
:10538000CFA5D030D0A5D130D1A5D230D2A5D33041
:10539000D3A5D430D4A5D530D5A5D630D6A5D73011
:1053A000D7A5D830D8A5D930D9A5DA30DAA5DB30E1
:1053B000DBA5DC30DCA5DD30DDA5DE30DEA5DF30B1
:1053C000DFA5E030E0A5E130E1A5E230E2A5E33081
:1053D000E3A5E430E4A5E530E5A5E630E6A5E73051
:1053E000E7A5E830E8A5E930E9A5EA30EAA5EB3021
:1053F000EBA5EC30ECA5ED30EDA5EE30EEA5EF30F1
:10540000EFA5F030F0A5F130F1A5F230F2A5F330C0
:10541000F3A5F430F4A5F530F5A5F630F6A5FC308B
:1054200060A9FD3063A9FE3064A90531C5A8063125
:10543000C6A80731C7A80831C8A80931C9A80A31C8
:10544000CAA80B31CBA80C31CCA80D31CDA80E3198
:10545000CEA80F31CFA81031D0A81131D1A8123168
:10546000D2A81331D3A81431D4A81531D5A8163138
:10547000D6A81731D7A81831D8A81931D9A81A3108
:10548000DAA81B31DBA81C31DCA81D31DDA81E31D8
:10549000DEA81F31DFA82031E0A82131E1A82231A8
:1054A000E2A82331E3A82431E4A82531E5A8263178
:1054B000E6A82731E7A82831E8A82931E9A8203251
:1054C000E5A22132E6A22232E7A22332E8A2243268
:1054D000E9A22532EAA22632EBA22732ECA2283238
:1054E000EDA22932EEA231325AA9A33249A98E3354
:1054F0004AA98F334BA99C334CA99D334DA99E33A8
:105500004EA9A1334FA9C43350A9CE3351A9D133E9
:1055100052A9D23353A9D53354A9004EBBD2014E60
:10552000A1B6024E4081034EDFC6044E4181054EB6
:105530004281064E4381074EF2CD084EC9D5094E31
:10554000FDC80A4ECFC90B4EC2CF0C4EA2D80D4E8D
:10555000BBB20E4EEBD30F4E4481104EA4D8114E69
:10556000F3B3124E4581134EA8D7144ED2C7154E31
:10557000A7D8164EC0CA174E4681184EF0C7194E0E
:10558000FBB11A4EB5D21B4ED4B41C4EABB61D4E59
:10559000BFCB1E4EA9D81F4E4781204E4881214EB9
:1055A0004981224EAAB6234E4A81244EBDC1254EC2
:1055B000CFD1264E4B81274EA5C9284EADD8294EB6
:1055C0004C812A4EF6B82B4EBED12C4EDCE32D4E2C
:1055D000D0D62E4E4D812F4E4E81304EE1B7314EFA
:1055E0004F81324EAEB4334E5081344ED9C1354E18
:1055F0005181364EBCD8374E5281384EE8CD394EA7
:10560000A4B53A4EAACE3B4EF7D63C4E53813D4E02
:10561000F6C03E4ED9BE3F4EAFD8404E5481414EAB
:105620005581424E5681434ECBC4444E5781454E20
:10563000C3BE464E5881474EB1D8484EB4C3494EBA
:10564000E5D24A4E59814B4EAED64C4EDACE4D4E37
:10565000A7D54E4EF5BA4F4EA6B7504ED6C0514EB6
:105660005A81524EB9C6534ED2C5544EC7C7554E35
:105670005B81564ED4B9574E5C81584ECBB3594ED0
:10568000D2D25A4E5D815B4E5E815C4EBFD85D4E7C
:10569000C5BE5E4EF2C65F4EB2D2604EB0CF614E16
:1056A000E7CF624E5F81634E6081644E6181654EDB
:1056B0006281664EE9CA674E6381684E6481694EB5
:1056C000C0D86A4E65816B4E66816C4E67816D4EA7
:1056D00068816E4E69816F4E6A81704EF2C2714E62
:1056E000D2C2724E6B81734EE9C8744E6C81754E96
:1056F0006D81764E6E81774E6F81784E7081794ED6
:1057000071817A4E72817B4E73817C4E74817D4EA5
:1057100075817E4EACC77F4E7681804E7781814EFB
:105720007881824E7981834E7A81844E7B81854E49
:105730007C81864ECBC1874E7D81884EE8D3894ED1
:10574000F9D58A4E7E818B4EC2CA8C4EFEB68D4EE6
:10575000A1D88E4EDAD38F4EF7BF904E8081914EF6
:10576000C6D4924EA5BB934EC1D8944EE5CE954E6D
:10577000AEBE964E8181974E8281984EA8D8994EA2
:1057800083819A4EC7D19B4EA9D09C4E84819D4E59
:1057900085819E4E86819F4EBDD8A04EEFD9A14EE9
:1057A000F6CDA24EBABFA34E8781A44EBBBDA54E77
:1057B000A5BAA64EE0D2A74EFAB2A84EE0BAA94EBC
:1057C000B6C4AA4E8881AB4EEDCFAC4EA9BEAD4E4D
:1057D000A4CDAE4EC1C1AF4E8981B04E8A81B14ECB
:1057E0008B81B24ED7C7B34EF1D9B44E8C81B54E32
:1057F000F4D9B64E8D81B74E8E81B84E8F81B94E99
:105800009081BA4ECBC8BB4EE9D8BC4E9181BD4EFB
:105810009281BE4E9381BF4EDAD2C04EB2CAC14E03
:10582000CAC8C24EECD8C34EEAD8C44EC6D8C54E7C
:10583000F6BDC64ECDC6C74EF0B3C84E9481C94E14
:10584000EBD8CA4EF1BDCB4EE9BDCC4E9581CD4EC5
:10585000D4C8CE4ED3B4CF4E9681D04E9781D14E80
:10586000D8C2D24E9881D34ED6B2D44ED0D7D54ED0
:10587000CBCAD64EFBCBD74ECCD5D84EB6B8D94E28
:10588000C9CFDA4E9981DB4E9A81DC4E9B81DD4E89
:10589000DAD9DE4EF0D8DF4EAAC7E04E9C81E14E49
:1058A000EED8E24E9D81E34EFAB4E44EEEC1E54EF1
:1058B000D4D2E64E9E81E74E9F81E84EEDD8E94E68
:1058C000A081EA4EC7D2EB4EEFD8EC4EC7C3ED4EE7
:1058D000A181EE4EA281EF4EA381F04EF6D1F14EA2
:1058E000A481F24ED9D6F34EF2D8F44EA581F54EEE
:1058F000F5D8F64EFEBCF74EDBBCF84EA681F94E4D
:10590000A781FA4EA881FB4ECEC8FC4EA981FD4E60
:10591000DDB7FE4EAA81FF4EC2B7004FAB81014FEB
:10592000F3C6024FAC81034FAD81044FAE81054FEA
:10593000AF81064FB081074FB181084FB281094F47
:10594000F8D80A4FC1D20B4FB3810C4FB4810D4F21
:10595000E9CE0E4FBFBC0F4FFCB7104FA5B7114F8C
:10596000DDD0124FB581134FB681144FB781154F5B
:10597000B881164FB981174FDAD6184FC5D3194FD2
:10598000EFBB1A4FE1BB1B4FF1D81C4FBA811D4F23
:10599000BB811E4FA1C91F4FB0CE204FABB4214FCA
:1059A000BC81224FF3D8234FBD81244FCBC9254F53
:1059B000F6D8264FD7C2274FF7D8284FBE81294F98
:1059C000BF812A4FB1CE2B4FF9D82C4FC0812D4F1C
:1059D000C1812E4FC2812F4FAEB2304FC0B9314F6F
:1059E000C381324FA3D9334FC481344FE9B0354F0F
:1059F000C581364FE6C1374FC681384FECC9394FA4
:105A0000C7813A4FC5CB3B4FC8813C4FC6CB3D4FBA
:105A1000A4D93E4FC9813F4FCA81404FCB81414FEE
:105A2000CC81424FCD81434FE8B5444FCE81454FA5
:105A3000CF81464FABB5474FD081484FD181494FB9
:105A4000D2814A4FD3814B4FD4814C4FD5814D4F9A
:105A5000BBCE4E4FCDB54F4FA1D7504FF4D7514F7E
:105A6000D3D3524FD681534FE5CC544FD781554FA6
:105A7000CEBA564FD881574FA2D9584FDCD9594F7B
:105A8000E0D35A4FFDD85B4FF0B75C4FF7D75D4F6F
:105A9000FED85E4FFAD85F4FA1D9604FE3C4614F83
:105AA000D981624FDA81634FB6D3644FF4D8654F22
:105AB000DDD9664FDB81674FFBD8684FDC81694FCA
:105AC000E5C56A4FDD816B4FDE816C4FD0C06D4FF5
:105AD000DF816E4FE0816F4FF0D1704FDBB0714FBF
