:020000040800F2
:10000000200400204901000851030008E302000811
:100010004D030008BD0100088B0800080000000027
:10002000000000000000000000000000490400087B
:10003000C101000800000000530300088906000801
:100040006301000863010008630100086301000800
:1000500063010008630100086301000863010008F0
:1000600063010008630100086301000863010008E0
:1000700063010008630100086301000863010008D0
:1000800063010008630100086301000863010008C0
:1000900063010008630100086301000863010008B0
:1000A00063010008630100086301000863010008A0
:1000B0006301000863010008630100086301000890
:1000C0006301000863010008630100086301000880
:1000D0006301000863010008630100086301000870
:1000E0006301000863010008630100086301000860
:1000F0006301000863010008630100086301000850
:10010000630100086301000863010008630100083F
:10011000630100086301000863010008630100082F
:10012000630100086301000863010008630100081F
:10013000DFF810D000F030F800480047190B000835
:10014000AFF300802004002006488047064800479F
:10015000FEE7FEE7FEE7FEE7FEE7FEE7FEE7FEE777
:10016000FEE7FEE78D0600083101000830B50B46BA
:10017000014600202022012409E021FA02F59D42D7
:1001800005D303FA02F5491B04FA02F52844151EAB
:10019000A2F10102F1DC30BD064C074D06E0E0683B
:1001A00040F0010394E8070098471034AC42F6D3BE
:1001B000FFF7C2FF9C0C0008BC0C000800BFFEE764
:1001C00070472DE9F041024600250026002000235B
:1001D0000024002791F803C00CF00F0591F803C02C
:1001E0000CF0100CBCF1000F03D091F802C04CEAE7
:1001F000050591F800C0BCF1000F31D01468002053
:100200002BE04FF0010C0CFA00F3B1F800C00CEA3F
:1002100003069E4220D183004FF00F0C0CFA03F727
:10022000BC4305FA03FC4CEA040491F803C0BCF19A
:10023000280F06D14FF0010C0CFA00FCC2F814C0D4
:100240000AE091F803C0BCF1480F05D14FF0010C52
:100250000CFA00FCC2F810C0401C0828D1D314606E
:10026000B1F800C0BCF1FF0F34DD546800202EE06F
:1002700000F1080C4FF0010808FA0CF3B1F800C0C7
:100280000CEA03069E4221D183004FF00F0C0CFABA
:1002900003F7BC4305FA03FC4CEA040491F803C0DD
:1002A000BCF1280F05D100F1080C08FA0CF8C2F8CF
:1002B000148091F803C0BCF1480F07D100F1080C7D
:1002C0004FF0010808FA0CF8C2F81080401C08280A
:1002D000CED35460BDE8F0810AB1016100E0416114
:1002E000704700BFFEE7000008B50121082000F0BC
:1002F00031F801208DF8020010208DF80300202035
:10030000ADF8000069461048FFF75BFF0120ADF82B
:10031000000069460C48FFF754FF0220ADF80000CA
:1003200069460948FFF74DFF012220210648FFF7E3
:10033000D3FF012211460448FFF7CEFF012202211C
:100340000148FFF7C9FF08BD000C014000BFFEE7F0
:100350007047704729B1064A92690243044B9A617B
:1003600004E0034A92698243014B9A61704700009E
:100370000010024030B500210022002400232D4D42
:100380006D6805F00C0121B1042905D0082923D19D
:1003900005E0294D056022E0274D05601FE0254D51
:1003A0006D6805F47012234D6D6805F480340225E4
:1003B00005EB92421CB9214D554305600BE01D4DE4
:1003C0006D6805F400351DB11C4D5543056002E014
:1003D000194D5543056002E0174D056000BF00BF91
:1003E000144D6D6805F0F0010909154D6B5C056849
:1003F000DD4045600F4D6D6805F4E061090A104D60
:100400006B5C4568DD4085600A4D6D6805F46051A0
:10041000C90A0B4D6B5C4568DD40C560054D6D68D4
:1004200005F44041890B074D6B5CC568B5FBF3F5DE
:10043000056130BD0010024000127A0000093D0045
:100440000000002010000020704710B500F002F8F6
:1004500010BD00000CB500200190009033480068EA
:1004600040F480303149086000BF3048006800F433
:10047000003000900198401C0190009818B9019834
:10048000B0F5A06FF1D12948006800F4003010B138
:100490000120009001E0002000900098012843D145
:1004A0002348006840F010002149086008460068B1
:1004B00020F0030008600846006840F00200086071
:1004C0001A4840681949486008464068486008462C
:1004D000406840F4806048600846406820F47C1022
:1004E00048600846406840F4E810486008460068E4
:1004F00040F08070086000BF0C48006800F0007099
:100500000028F9D00948406820F0030007494860F6
:100510000846406840F00200486000BF0348406859
:1005200000F00C000828F9D10CBD000000100240BA
:100530000020024010B54FF4E1310FA000F0CCF9DB
:1005400012A000F0C9F918A000F0C6F91DA000F033
:10055000C3F923A000F0C0F928A000F0BDF92EA037
:1005600000F0BAF933A000F0B7F939A000F0B4F9FF
:100570003EA000F0B1F910BD20205553415254A3C4
:10058000BA256420382D4E2D31200A00202020432A
:100590004D442020202D2D2D2D2D2D20202020528A
:1005A00047422020200A0000202020203120202047
:1005B000202D2D2D2D2D2D20202020524544202072
:1005C000200A00002020202032202020202D2D2D48
:1005D0002D2D2D202020475245454E20200A000079
:1005E0002020202033202020202D2D2D2D2D2D20AA
:1005F000202020424C554520200A000020202020A9
:1006000034202020202D2D2D2D2D2D20202059452A
:100610004C4C4F57200A000020202020352020205D
:10062000202D2D2D2D2D2D202020505552504C4564
:10063000200A00002020202036202020202D2D2DD3
:100640002D2D2D202020204359414E20200A00002E
:100650002020202037202020202D2D2D2D2D2D2035
:100660002020574849544520200A000020202020FF
:1006700038202020202D2D2D2D2D2D2020205247BB
:10068000424F4646200A00007047000010B513484C
:10069000006840F0010011490860084640681049B0
:1006A00008400E494860084600680E4908400B495A
:1006B00008600846006820F480200860084640680A
:1006C00020F4FE0048604FF41F008860FFF7BDFE75
:1006D0004FF000600449086010BD000000100240A7
:1006E0000000FFF8FFFFF6FE08ED00E021B182896F
:1006F00042F40052828104E082894DF6FF731A4071
:100700008281704700B585B001210420FFF722FEE9
:1007100001218803FFF71EFE4FF40070ADF81000B2
:1007200018208DF8130003208DF8120004A9134837
:10073000FFF747FD4FF48060ADF8100004208DF8FE
:10074000130004A90D48FFF73CFD4FF4E130009081
:100750000020ADF80400ADF80600ADF80800ADF8D3
:100760000C000C20ADF80A006946054800F018F8A6
:1007700001210348FFF7BAFF05B000BD00080140A2
:100780000038014002460020B1F5007F00D100BFD3
:1007900013880B400BB1012000E0002070470000DF
:1007A0002DE9F04786B005460E460024A24600BF5C
:1007B000A1460027B08900B100BF2F462C8A4CF615
:1007C000FF700440F08804432C82AC894EF6F3108D
:1007D0000440B08831890843718908430443AC81DF
:1007E000AC8A4FF6FF400440B0890443AC8201A8B4
:1007F000FFF7C0FD1F48874202D1DDF810A001E0DD
:10080000DDF80CA0A88900F4004040B10AEBCA0052
:1008100000EB0A1031684900B0FBF1F807E00AEB81
:10082000CA0000EB0A1031688900B0FBF1F86420BF
:10083000B8FBF0F004012009642101FB1089A889AC
:1008400000F4004040B1322000EBC900B0FBF1F0F1
:1008500000F00700044308E0322000EB0910642197
:10086000B0FBF1F000F00F0004432C8106B0BDE8AE
:10087000F08700000038014001468888C0F3080076
:100880007047C1F308028280704700BFFEE770B571
:1008900004460D4629462046FFF7F3FF00BF80219E
:1008A0002046FFF76FFF0028F9D070BD70B50646EF
:1008B0000C46002500BF615D3046FFF7E8FF6D1C68
:1008C000605D0028F7D100BF80213046FFF75AFF56
:1008D0000028F9D070BD00000FB4054B10B503A976
:1008E000044A029800F018F810BC5DF814FB0000F0
:1008F000F10A00081800002002E008C8121F08C111
:10090000002AFAD170477047002001E001C1121F90
:10091000002AFBD1704700002DE9FF4F8BB09A46AB
:100920000F460546002606E025280BD052460D99B5
:1009300090476D1C761C28780028F5D10FB0304602
:10094000BDE8F08F0024A0460122604900E0044386
:1009500015F8013F203B02FA03F00842F7D128784E
:100960002E2817D115F8010F44F004042A280ED0C0
:100970006FF02F022878A0F1300109290AD808EB7E
:10098000880102EB410100EB01086D1CF2E757F80A
:10099000048B6D1C287869283ED006DC0028CDD059
:1009A00063280BD0642804D136E0732810D0752852
:1009B0004BD052460D999047761C85E017F8040BF2
:1009C0008DF8000000208DF80100E946012003E0C9
:1009D00057F8049B4FF0FF3061074FF0000401D43B
:1009E0000AE0641C44450DDA8442FADB19F804106D
:1009F0000029F6D106E0641C8442FCDB19F80410DF
:100A00000029F8D1264404E019F8010B52460D994B
:100A10009047641EF8D257E001CF4FF00A0B002830
:100A200002DA40422D2102E0210504D52B218DF868
:100A30002410012103E0E10705D02021F7E70DF1A3
:100A4000200908910CE00021F9E701CF4FF00A0BD3
:100A5000F9E75946FFF78AFB01F1300209F8012D49
:100A60000028F6D1ADEB090000F1200B600701D49E
:100A70004FF00108D84502DDA8EB0B0000E0002094
:100A80008046002406E009A85246005D0D99904773
:100A9000641C761C08988442F5DB04E03020524642
:100AA0000D999047761CB8F10001A8F10108F5DC1A
:100AB00005E019F8010B52460D999047761CBBF1E1
:100AC0000001ABF1010BF4DC6D1C34E709280100D7
:100AD00010B5044600BF20210448FFF753FE00284C
:100AE000F9D00248FFF7C8FE10BD000000380140F1
:100AF00070B504460D46E1B20548FFF7C2FE00BFDF
:100B000080210348FFF73EFE0028F9D0204670BD43
:100B100000380140FFF7DCBFFFF7E6FBFFF7F2FD0F
:100B20004FA15348FFF7C2FE52A0FFF7D5FE96E053
:100B30005448FFF7EFFFC4B2214653A0FFF7CCFEA5
:100B4000A4F13100082875D2DFE800F00414243441
:100B500044546475002220214F48FFF7BDFB012259
:100B600011464D48FFF7B8FB012202214A48FFF722
:100B7000B3FB73E0012220214748FFF7ADFB0022C1
:100B800001214548FFF7A8FB012202214248FFF757
:100B9000A3FB63E0012220213F48FFF79DFB0122D8
:100BA00011463D48FFF798FB002202213A48FFF723
:100BB00093FB53E0002220213748FFF78DFB0022F2
:100BC00001213548FFF788FB012202213248FFF757
:100BD00083FB43E0002220212F48FFF77DFB012209
:100BE00011462D48FFF778FB002202212A48FFF723
:100BF00073FB33E0012220212748FFF76DFB002221
:100C000001212548FFF768FB002202212248FFF757
:100C100063FB23E0002220211F48FFF75DFB002239
:100C200001211D48FFF758FB002202211A48FFF757
:100C300053FB13E00FE0012220211748FFF74CFB84
:100C4000012211461448FFF747FB012202211248F6
:100C5000FFF742FB02E0FFF76DFC00BF00BF67E754
:100C60000A48656C6C6F2053544D3332210A0000E2
:100C7000003801400A73746D3332B8F8D2AFC5C082
:100C80000A0000001400002052656365697665A3C0
:100C9000BA25630A00000000000C0140BC0C0008EB
:100CA000000000201C000000F8080008D80C000814
:100CB0001C000020040400000809000800000000D7
:100CC00001020304010203040607080902040608DE
:080CD00000000000000000001C
:0400000508000131BD
:00000001FF
