:020000040800F2
:10000000E0460020490100087D030008ED020008D9
:1000100079030008BD0100085D0C00080000000025
:100020000000000000000000000000007909000846
:10003000C1010008000000007F030008650A0008F5
:100040006301000863010008630100086301000800
:1000500063010008630100086301000863010008F0
:1000600063010008630100086301000863010008E0
:1000700063010008630100086301000863010008D0
:1000800063010008630100086301000863010008C0
:1000900063010008630100086301000863010008B0
:1000A00063010008630100086301000863010008A0
:1000B0006301000863010008630100086301000890
:1000C0006301000863010008630100086301000880
:1000D0006301000863010008630100086301000870
:1000E0006301000863010008630100086301000860
:1000F0006301000863010008630100086301000850
:10010000630100086301000863010008630100083F
:10011000630100086301000863010008630100082F
:10012000630100086301000863010008630100081F
:10013000DFF810D000F030F80048004759310008CF
:10014000AFF30080E046002006488047064800479D
:10015000FEE7FEE7FEE7FEE7FEE7FEE7FEE7FEE777
:10016000FEE7FEE7690A00083101000830B50B46DA
:10017000014600202022012409E021FA02F59D42D7
:1001800005D303FA02F5491B04FA02F52844151EAB
:10019000A2F10102F1DC30BD064C074D06E0E0683B
:1001A00040F0010394E8070098471034AC42F6D3BE
:1001B000FFF7C2FF04E8020824E8020800BFFEE7D8
:1001C00070472DE9F041024600250026002000235B
:1001D0000024002791F803C00CF00F0591F803C02C
:1001E0000CF0100CBCF1000F03D091F802C04CEAE7
:1001F000050591F800C0BCF1000F31D01468002053
:100200002BE04FF0010C0CFA00F3B1F800C00CEA3F
:1002100003069E4220D183004FF00F0C0CFA03F727
:10022000BC4305FA03FC4CEA040491F803C0BCF19A
:10023000280F06D14FF0010C0CFA00FCC2F814C0D4
:100240000AE091F803C0BCF1480F05D14FF0010C52
:100250000CFA00FCC2F810C0401C0828D1D314606E
:10026000B1F800C0BCF1FF0F34DD546800202EE06F
:1002700000F1080C4FF0010808FA0CF3B1F800C0C7
:100280000CEA03069E4221D183004FF00F0C0CFABA
:1002900003F7BC4305FA03FC4CEA040491F803C0DD
:1002A000BCF1280F05D100F1080C08FA0CF8C2F8CF
:1002B000148091F803C0BCF1480F07D100F1080C7D
:1002C0004FF0010808FA0CF8C2F81080401C08280A
:1002D000CED35460BDE8F081416170470161704741
:1002E0000AB1016100E04161704700000022202155
:1002F0000748FFF7F5FF012211460548FFF7F0FF19
:10030000012202210248FFF7EBFF00BFFEE70000D9
:10031000000C014008B50121082000F031F801204F
:100320008DF8020010208DF803002020ADF80000A9
:1003300069461048FFF745FF0120ADF80000694607
:100340000C48FFF73EFF0220ADF80000694609485F
:10035000FFF737FF012220210648FFF7C1FF0122E6
:1003600011460448FFF7BCFF012202210148FFF7B4
:10037000B7FF08BD000C014000BFFEE770477047A3
:1003800029B1064A92690243044B9A6104E0034A88
:1003900092698243014B9A6170470000001002404D
:1003A00030B500210022002400232D4D6D6805F09A
:1003B0000C0121B1042905D0082923D105E0294DDC
:1003C000056022E0274D05601FE0254D6D6805F4AE
:1003D0007012234D6D6805F48034022505EB9242BE
:1003E0001CB9214D554305600BE01D4D6D6805F4AA
:1003F00000351DB11C4D5543056002E0194D5543B4
:10040000056002E0174D056000BF00BF144D6D6828
:1004100005F0F0010909154D6B5C0568DD4045608C
:100420000F4D6D6805F4E061090A104D6B5C45687D
:10043000DD4085600A4D6D6805F46051C90A0B4DB9
:100440006B5C4568DD40C560054D6D6805F4404155
:10045000890B074D6B5CC568B5FBF3F5056130BDD5
:100460000010024000127A0000093D000000002048
:100470001000002021B1028842F04002028004E016
:1004800002884FF6BF731A400280704770B5054668
:100490000C46164601211048FFF71EFF032000F00E
:1004A000A9F9C4F3074000F0A5F9C4F3072000F050
:1004B000A1F9E0B200F09EF904E0FF2000F09AF903
:1004C00028706D1C301EA6F101018EB2F5D10121FC
:1004D0000148FFF703FF70BD001001402DE9F05FF8
:1004E00007460E4614464FF00008C146C246002596
:1004F000AB4606F0FF0ACAF10000C5B22046E1177C
:1005000004EB1161C1F30728E11704EB1161091233
:10051000A4EB012101F0FF09BAF1000F20D1B8F1DD
:10052000000F05D122463146384600F0CBF864E092
:1005300009E04FF480723146384600F0C3F806F502
:10054000807607F58077B8F10000A8F1010101F08D
:10055000FF08EED14A463146384600F0B3F84CE089
:10056000B8F1000F18D1A94510DDA9EB050000F086
:10057000FF0B2A463146384600F0A4F82E442F449B
:100580005A463146384600F09DF836E0224631465C
:10059000384600F097F830E0601B84B22046E1173F
:1005A00004EB1161C1F30728E11704EB1161091293
:1005B000A4EB012101F0FF092A463146384600F03C
:1005C00081F82E442F4409E04FF4807231463846BA
:1005D00000F078F806F5807607F58077B8F100002E
:1005E000A8F1010101F0FF08EED1B9F1000F04D02C
:1005F0004A463146384600F065F8BDE8F09F0000F5
:1006000000B587B001210803FFF7BAFE01211420CD
:10061000FFF7B6FE0120ADF8040003208DF80600B8
:1006200010208DF8070001A92348FFF7CAFD2020FC
:10063000ADF8040018208DF8070001A91F48FFF746
:10064000C0FD8020ADF8040001A91C48FFF7B9FDEA
:100650004020ADF8040004208DF8070001A91748D8
:10066000FFF7AFFD01211448FFF738FE0020ADF879
:1006700008004FF48270ADF80A000020ADF80C00BD
:100680000220ADF80E000120ADF810004002ADF8D8
:1006900012000820ADF814000020ADF81600072065
:1006A000ADF8180002A9064800F028F90121044815
:1006B000FFF7E0FE07B000BD001001400008014058
:1006C0000030014070B505460C46164600F0E8F8CB
:1006D00001211548FFF700FE022000F08BF8C4F35B
:1006E000074000F087F8C4F3072000F083F8E0B279
:1006F00000F080F8B6F5807F04DD4FF480760BA023
:1007000000F0AEFA03E0287800F074F86D1C301E9B
:10071000A6F101018EB2F6D101210348FFF7DEFDFB
:1007200000F0A4F870BD0000001001403C3C2D46D4
:100730004C4153482D4552524F522D3E3E2053506E
:10074000495F464C4153485F506167655772697411
:100750006520746F6F206C61726765210A0000006C
:100760002DE9F041002400250026002701210F4833
:10077000FFF7B2FD9F2000F03DF8FF2000F03AF8AF
:100780000546FF2000F036F80646FF2000F032F85C
:10079000074601210548FFF7A1FD280440EA06208D
:1007A00040EA07042046BDE8F08100000010014047
:1007B00070B505460C4600F073F800F057F80121BB
:1007C0000B48FFF789FD284600F014F8C4F30740F2
:1007D00000F010F8C4F3072000F00CF8E0B200F0CD
:1007E00009F801210248FFF779FD00F03FF870BDDC
:1007F0000010014010B504464FF4803019490860DC
:100800000AE018490868411E164A116020B9002004
:1008100000F092F8C0B210BD0221134800F060F859
:100820000028EED02146104800F066F84FF48030E2
:100830000C4908600AE00B490868411E094A11602A
:1008400020B9012000F078F8C0B2E4E701210648A1
:1008500000F046F80028EED0034800F04AF8C0B295
:10086000D9E70000600000200030014010B50024EE
:1008700001210A48FFF730FD0520FFF7BBFF00BF4D
:10088000FF20FFF7B7FF044604F001000028F7D16E
:1008900001210248FFF722FD10BD000000100140B9
:1008A00010B501210548FFF717FD0620FFF7A2FF4D
:1008B00001210248FFF712FD10BD000000100140A9
:1008C00010B501210548FFF707FDAB20FFF792FFA8
:1008D00001210248FFF702FD10BD00000010014099
:1008E0000246002013890B400BB1012000E00020DC
:1008F00070470146888970478181704710B5002292
:10090000028802F441520B884C8823438C8823438D
:10091000CC8823430C8923434C8923438C8923436C
:10092000CC8923431A430280838B4FF2FF74234008
:1009300083830B8A038210BD10B50446214602A0B2
:1009400000F08EF9002010BD3C3C2D464C41534830
:100950002D4552524F522D3E3E2053504920B5C88E
:10096000B4FDB3ACCAB1216572726F72436F646536
:10097000203D2025640A0000704710B500F002F801
:1009800010BD00000CB500200190009033480068B5
:1009900040F480303149086000BF3048006800F4FE
:1009A000003000900198401C0190009818B90198FF
:1009B000B0F5A06FF1D12948006800F4003010B103
:1009C0000120009001E0002000900098012843D110
:1009D0002348006840F0100021490860084600687C
:1009E00020F0030008600846006840F0020008603C
:1009F0001A484068194948600846406848600846F7
:100A0000406840F4806048600846406820F47C10EC
:100A100048600846406840F4E810486008460068AE
:100A200040F08070086000BF0C48006800F0007063
:100A30000028F9D00948406820F0030007494860C1
:100A40000846406840F00200486000BF0348406824
:100A500000F00C000828F9D10CBD00000010024085
:100A6000002002407047000010B51348006840F0B5
:100A700001001149086008464068104908400E49C5
:100A80004860084600680E4908400B49086008465F
:100A9000006820F4802008600846406820F4FE00CA
:100AA00048604FF41F008860FFF767FF4FF0006059
:100AB0000449086010BD0000001002400000FFF86B
:100AC000FFFFF6FE08ED00E021B1828942F40052FA
:100AD000828104E082894DF6FF731A40828170475B
:100AE00000B585B001210420FFF74AFC01218803ED
:100AF000FFF746FC4FF40070ADF8100018208DF899
:100B0000130003208DF8120004A91348FFF759FBC6
:100B10004FF48060ADF8100004208DF8130004A994
:100B20000D48FFF74EFB4FF4E13000900020ADF888
:100B30000400ADF80600ADF80800ADF80C000C207C
:100B4000ADF80A006946054800F018F8012103488D
:100B5000FFF7BAFF05B000BD0008014000380140B2
:100B600002460020B1F5007F00D100BF13880B4082
:100B70000BB1012000E00020704700002DE9F04794
:100B800086B005460E460024A24600BFA1460027B7
:100B9000B08900B100BF2F462C8A4CF6FF7004408C
:100BA000F08804432C82AC894EF6F3100440B088E0
:100BB00031890843718908430443AC81AC8A4FF6FC
:100BC000FF400440B0890443AC8201A8FFF7E8FB72
:100BD0001F48874202D1DDF810A001E0DDF80CA02B
:100BE000A88900F4004040B10AEBCA0000EB0A10EB
:100BF00031684900B0FBF1F807E00AEBCA0000EBEE
:100C00000A1031688900B0FBF1F86420B8FBF0F0FD
:100C100004012009642101FB1089A88900F4004027
:100C200040B1322000EBC900B0FBF1F000F007004A
:100C3000044308E0322000EB09106421B0FBF1F01E
:100C400000F00F0004432C8106B0BDE8F0870000DF
:100C500000380140C1F308028280704700BFFEE700
:100C60000FB4054B10B503A9044A029800F018F818
:100C700010BC5DF814FB00009D2E000868000020E9
:100C800002E008C8121F08C1002AFAD17047704755
:100C9000002001E001C1121F002AFBD170470000B3
:100CA0002DE9FF4F8BB09A460F460546002606E019
:100CB00025280BD052460D9990476D1C761C28783C
:100CC0000028F5D10FB03046BDE8F08F0024A046D3
:100CD0000122604900E0044315F8013F203B02FA7D
:100CE00003F00842F7D128782E2817D115F8010F04
:100CF00044F004042A280ED06FF02F022878A0F1C7
:100D0000300109290AD808EB880102EB410100EB08
:100D100001086D1CF2E757F8048B6D1C28786928D0
:100D20003ED006DC0028CDD063280BD0642804D147
:100D300036E0732810D075284BD052460D99904755
:100D4000761C85E017F8040B8DF8000000208DF864
:100D50000100E946012003E057F8049B4FF0FF3003
:100D600061074FF0000401D40AE0641C44450DDA29
:100D70008442FADB19F804100029F6D106E0641C5D
:100D80008442FCDB19F804100029F8D1264404E061
:100D900019F8010B52460D999047641EF8D257E09E
:100DA00001CF4FF00A0B002802DA40422D2102E069
:100DB000210504D52B218DF82410012103E0E10742
:100DC00005D02021F7E70DF1200908910CE0002162
:100DD000F9E701CF4FF00A0BF9E75946FFF7C6F9DB
:100DE00001F1300209F8012D0028F6D1ADEB090020
:100DF00000F1200B600701D44FF00108D84502DD57
:100E0000A8EB0B0000E000208046002406E009A8C3
:100E10005246005D0D999047641C761C08988442E8
:100E2000F5DB04E0302052460D999047761CB8F16E
:100E30000001A8F10108F5DC05E019F8010B5246A4
:100E40000D999047761CBBF10001ABF1010BF4DC6E
:100E50006D1C34E70928010070B504460D460020DA
:100E6000E070401E60632946204602F077FB08B11F
:100E7000042070BD04F2362002F067F94AF65521CD
:100E8000884201D00320F4E794F83800E92807D01D
:100E900094F83800EB2803D094F83800E82811D1F2
:100EA000032209A104F16E0002F030FB08B9002012
:100EB000DFE7052205A104F18A0002F027FB08B94B
:100EC0000020D6E70220D4E746415400464154337F
:100ED00032000000024600E0521C107810B1107879
:100EE0008842F9D1107870470246891ED069801E69
:100EF000884201D8002070475389106B03FB010022
:100F0000F9E700002DE9F04780460C4604F11A008D
:100F100002F01BF910B10020BDE8F087207800F046
:100F20003F00401E00EB800101EBC0054FF00109BE
:100F3000002621E01849895D081902F006F90746E4
:100F4000B9F1000F11D0FF2D0BD2384601F04AFD48
:100F5000824629466D1C38F8110001F043FD824598
:100F600001D00020D8E7B94605E04FF6FF70874270
:100F700001D00020D0E7761C0D2EDBD3207800F0C6
:100F8000400038B1B9F1000F04D038F8150008B1AD
:100F90000020C1E70120BFE7063A00082DE9F0472D
:100FA00082468846DAF80040B8F1000F06D167693A
:100FB00017B1E069B84215D8012713E04146504601
:100FC00001F0E4FF0546022D02D20120BDE8F087C2
:100FD000681C08B92846F9E7E069A84201D9284603
:100FE000F4E74746A06908B90020EFE70026474527
:100FF00018D17E1CE069B04200D802263146504626
:1010000001F0C4FF0546012D01D0681C08B928462F
:10101000DCE73DB16569022D03D3E069A84200D940
:101020002F460026E6B93E4600BF761CE069B04276
:1010300004D80226BE4201D90020C7E731465046F7
:1010400001F0A4FF054605B909E0012D01D0681C97
:1010500008B92846BAE7BE42E7D10020B6E700BF8C
:101060004FF0FF323146204602F092FA8146B9F144
:10107000000F08D1B8F1000F05D032464146204696
:1010800002F086FA8146B9F1000F0DD16661D4E90C
:101090000610801E814202D8A069401EA0612079FE
:1010A00040F00100207107E0B9F1010F02D14FF0CB
:1010B000FF3000E001200646304687E72DE9F34F78
:1010C00085B08146069800680290D9F80000D0F8F3
:1010D00010A0002500BF02A802F051FC83460BF1CE
:1010E000010018B9062007B0BDE8F08FBBF5803FBE
:1010F00005D34FEA1B4228466D1C2AF810201FFA20
:101100008BF4202C03DB2F2C01D05C2C00D111E0C0
:10111000802C06DA214679A0FFF7DCFE08B1062014
:10112000E1E7FF2D01D30620DDE728466D1C2AF8F4
:101130001040D0E700BF02E00298401C02900298E5
:1011400000782F28F8D0029800785C28F4D0029913
:1011500006980160202C01DA042000E000200646F9
:1011600008E0681E3AF81040202C02D02E2C00D047
:1011700002E06D1E002DF4D100BF00202AF81500FA
:101180000DB90620AFE7002700E07F1C3AF81700F2
:101190002028FAD01FB93AF817002E2801D146F0BE
:1011A000030600E06D1E25B1681E3AF810002E28D7
:1011B000F8D10B22202109F1200002F0C6F94FF0EE
:1011C0000008CDF810800820039000BF38467F1C2F
:1011D0003AF8104004B966E0202C03D02E2C04D13C
:1011E000AF4202D046F00306F0E7DDE90310884283
:1011F00001D2AF4216D103980B2802D146F0030664
:1012000051E0AF4201D046F00306AF4200D94AE0B8
:101210002F46082004900B2003904FEA88604FEA85
:101220001068D3E7802C0ADB46F00206204601F066
:10123000D9FB4FF46A71019001F09AFB0446FF2C30
:1012400011DD0398401E0499884204D846F0030635
:1012500003980490BAE722120498411C049109F102
:1012600020010A5418E024B1214627A0FFF732FEDE
:1012700018B15F2446F003060EE0412C03DB5A2C24
:1012800001DC48F00208612C06DB7A2C04DC48F013
:101290000108A4F1200084B20498411C049109F1D2
:1012A00020010C5492E700BF99F82000E52802D1F4
:1012B000052089F820000398082803D14FEA8860A8
:1012C0004FEA106808F00C000C2803D008F0030067
:1012D000032801D146F0020606F0020048B908F0E2
:1012E000010008B146F0100608F0040008B146F00D
:1012F00008062B2000F809600020F4E6222A3A3C78
:101300003E3F7C7F000000002B2C3B3D5B5D0000DE
:1013100001460B48007888420FDC09484078884233
:1013200001DB0120704706488078884205DC0448CC
:10133000C078884201DB0120F4E70020F2E70000DA
:10134000133A0008014610480079884219DC0E481B
:101350004079884201DB012070470B488079884240
:1013600005DC0948C079884201DB0120F4E7064822
:10137000007A884205DC0448407A884201DB01207B
:10138000EAE70020E8E70000133A0008002107E040
:1013900042F6E06100BF0A1EA1F1010399B2FAD141
:1013A000021EA0F1010398B2F2D170472DE9F0417D
:1013B00004460E46D4F800800021204600F0DFF9F4
:1013C0000546EDB9002700BF4046A16902F0C6F806
:1013D000054605B113E0E0690078E52802D0E06930
:1013E000007820B9781C0746B04201D107E00027F9
:1013F0000121204600F0B7F80546002DE4D000BFDB
:10140000042D00D107252846BDE8F0812DE9F047DD
:1014100004468946204602F08DFA10B10120BDE84D
:10142000F08749462046FFF75FFD06466663A289BE
:10143000002104F1380002F088F804F1380801278F
:10144000002500E03D446089A84207D97219607800
:101450003B46414600F078FA0028F3D06089A84264
:1014600001D00120DBE70020D9E72DE9F047044651
:10147000D4F800A00021204600F081F9064616B1FC
:101480003046BDE8F0874FF0FF08C1464FF0FF300F
:10149000E06200BF5046A16902F060F8064606B15E
:1014A0005EE0E06905780DB9042659E0E069C07A8C
:1014B00000F03F07A771E52D04D007F0080038B110
:1014C0000F2F05D04FF0FF084FF0FF30E06240E0F3
:1014D0000F2F22D12B20005D00F0400098BB05F0BB
:1014E000400038B1E06990F80D9005F0BF05A846BE
:1014F0002069E06245450CD1E069407B484508D150
:10150000E169DAF81000FFF7FDFC10B1A8F1010065
:1015100000E0FF2000F0FF081BE0B8F1000F05D14C
:10152000E06902F0AEF9484500D119E02B20005DDA
:1015300000F0010040B90B2204F12001E06901F044
:10154000E5FF08B90CE004E04FF0FF084FF0FF3072
:10155000E0620021204600F006F80646002E99D0F1
:1015600000BF30468DE72DE9F041044688462668E5
:10157000206900F12007A06910B1B7F5001F02D360
:101580000420BDE8F081B089B7FBF0F100FB1170D9
:10159000002847D1A069401CA061606938B9308932
:1015A000B0EB571F3ED80020A0610420E9E7B089C6
:1015B000B7FBF0F07189491E084098BB204661696D
:1015C00001F0E4FC0546012D01D80220D9E7681C92
:1015D00008B90120D5E7F069A8421DD8B8F1000F7D
:1015E00003D10020A0610420CBE720466169FFF70A
:1015F000D5FC05460DB90720C3E7012D01D1022016
:10160000BFE7681C08B90120BBE729463046FFF751
:10161000FDFE08B10120B4E7656129463046FFF7B9
:1016200063FCA0612761B089B7FBF0F100FB117189
:1016300006F138000844E0610020A2E72DE9FE4FE2
:10164000044626682B20005D00F0A00010B10620A3
:10165000BDE8FE8F4FF0000901E009F10109306992
:1016600030F819000028F8D10C2204F12001684656
:1016700001F05EFF9DF80B0000F0010028B340214F
:101680002B2001554FF001080EE04346694604F156
:101690002000326901F014FC2046FFF7E6FE054603
:1016A00005B104E008F10108B8F1640FEDD300BF03
:1016B000B8F1640F01D10720CAE7042D01D02846F4
:1016C000C6E79DF80B102B2001559DF80B0000F08C
:1016D000020030B109F10C000D21B0FBF1F0401C0B
:1016E00000E00120074639462046FFF75FFE054629
:1016F0004DBB781E071E26D02069A0EB471120465F
:1017000000F03DF80546F5B904F1200002F0B9F803
:10171000824600BF3046A16901F020FF054605B1B1
:1017200010E0FAB2E1695346306901F0F9FF012097
:10173000F07000212046FFF716FF054615B9781E08
:10174000071EE7D100BFC5B93046A16901F006FF09
:10175000054695B920220021E06901F0F6FE0B2232
:1017600004F12001E06901F0E3FE2B20005D00F0B0
:101770001800E16908730120F070284668E72DE938
:10178000F04104460E462568B6F5001F02D206F069
:101790001F0010B10220BDE8F0812661A7681FB9C3
:1017A0002878032800DBEF6A47B92889B0EB561F79
:1017B00001D80220EFE7E86AA0611DE06889A989E5
:1017C00000FB01F811E03946204601F0DFFB074637
:1017D000781C08B90120DEE7022F02D3E869B8427D
:1017E00001D80220D7E7A6EB08064645EBD23946DA
:1017F0002846FFF779FBA0616761A06908B902205C
:10180000C9E7A889B6FBF0F0A1690844A061A889DE
:10181000B6FBF0F100FB116105F138000844E0610E
:101820000020B8E770B50446012534B1012C06D07C
:10183000022C06D0032C13D105E0284670BD2846A3
:10184000FCE72846FAE7FEF7DBFE0A20FFF79EFDDD
:10185000FFF736F8032000F055F805462846EDE777
:101860000120EBE710B50346002433B1012B06D06D
:10187000022B06D0032B1CD105E0204610BD2046CC
:10188000FCE72046FAE7012904D0022906D0032903
:101890000BD107E04FF4C060106006E04FF48050B9
:1018A000108002E00120106000BF00BF002420462D
:1018B000E4E70420E2E72DE9F04105460E46144630
:1018C0001F464FF0000835B1012D07D0022D07D07B
:1018D000032D15D106E04046BDE8F0814046FBE708
:1018E0004046F9E704F500744FF6FF7000EA07324E
:1018F00021033046FEF7CAFD4FF000084046EBE7F3
:101900000420E9E770B50546012435B1012D06D064
:10191000022D06D0032D12D105E0204670BD2046D1
:10192000FCE72046FAE7FEF71BFF0649884202D192
:1019300024F0010401E044F001042046EEE7012018
:10194000ECE700001740EF002DE9F04105460E4698
:1019500014461F464FF0000835B1012D07D0022D67
:1019600007D0032D19D106E04046BDE8F08140467E
:10197000FBE74046F9E704F5007421032020FEF759
:1019800017FF4FF6FF7000EA073221033046FEF7DB
:10199000A5FD4FF000084046E7E70420E5E738B52D
:1019A0000546284600F056FE04463CB969462846DE
:1019B00002F00BF804460CB900202860204638BD20
:1019C0002DE9F84F04460E466946204601F0FDFF1A
:1019D0008246BAF1000F01D194F811A0BAF1000FBC
:1019E00002D05046BDE8F88FE068B04204D2207CB7
:1019F00000F0020000B9E668D4F814904FF0000837
:101A0000C4F81480002E72D000984089009989890A
:101A100000FB01F7B9F1000F11D0701EB0FBF7F118
:101A2000A9F10100B0FBF7F0814208D3A9F1010050
:101A3000791E884360616069361AA56912E0A5685D
:101A40007DB900212046FFF7A9FA0546012D02D1F4
:101A500002206074C6E7681C10B901206074C1E7F9
:101A6000A560A561002D42D024E0F61B60693844D2
:101A70006061207C00F0020040B100BF2946204692
:101A8000FFF78CFA054635B9002615E029462046B1
:101A900001F07CFA0546681C10B901206074A1E7CA
:101AA000012D03D90098C069A84202D802206074B1
:101AB00098E7A561BE42D8D800BF60693044606134
:101AC00000988089B6FBF0F100FB116078B12946DF
:101AD0000098FFF709FA8046B8F1000F02D1022002
:101AE00060747FE700988089B6FBF0F08044E1687D
:101AF0006069884205D96069E060207C40F0400060
:101B00002074606900998989B0FBF1F201FB120031
:101B100020B3E069404521D0207C00F0800078B1FE
:101B2000E26900994878012304F12801FFF70CFFCE
:101B300010B10120607455E7207C00F07F00207414
:101B4000009948780123424604F12801FFF7B3FECB
:101B500010B10120607445E7C4F81C80504641E78D
:101B60002DE9FF4F95B017460120149040021390C5
:101B700015A801F0A4FA02900298002803DA0B20BD
:101B800019B0BDE8F08FFA49029851F8200028B149
:101B90000021F74A029852F8200001700298C0B262
:101BA0001190002010901198FFF73CFE01900198D1
:101BB00000F0010008B10320E2E7019800F0040002
:101BC00008B10A20DCE70CAA03211198FFF74AFEAE
:101BD00050B90C9840B10C98B0F5004F04D80C984F
:101BE000401E0C99084008B101200C900FAA022158
:101BF0001198FFF737FE08B10120C1E7BDF83C009E
:101C0000B0F5805F0BDCBDF83C00B0F5007F06DB73
:101C1000BDF83C00401EBDF83C10084008B1012052
:101C2000AEE71FB1BDF83C00874205D3B7F1807F16
:101C300002D8781E384008B11320A1E7BDF83C0057
:101C4000B7FBF0F7189CBDF83C102298B0FBF1F000
:101C50000D90BDF83C100D9848430E900CB10D98B6
:101C600008B911208CE700BF07AA01211198FFF7DE
:101C7000F9FD08B1012083E7169800F0080008B1CB
:101C8000002000E03F2083460798584501D20E20EF
:101C900076E70798A0EB0B0007900798802801D201
:101CA0000E206DE700BF00BF802F01D9132067E72A
:101CB000169800F0020050B1169800F007000228B4
:101CC00003D0169800F0010008B9032607E0169823
:101CD00000F0010008B9132052E7022600BF00BF40
:101CE00000BF3D46032E2FD1A5B907984FEA5049B2
:101CF00000200390012503E00398401C03906D0031
:101D00009C49039831F8100020B1039831F8100075
:101D10004845F1D90798B0FBF5F8082000EB88009A
:101D2000BDF83C100844401EB0FBF1F005902020A7
:101D30000690002004904FF6F570804502D98E4839
:101D400080453BD90E201BE7A5B907984FEA10390B
:101D500000200390012503E00398401C03906D00D0
:101D60008649039831F8100020B1039831F810002B
:101D70004845F1D90798B0FBF5F840F6F570804575
:101D800003D9042000EB480906E0012608EB4800CF
:101D9000401C032101EB5009BDF83C004844401EA3
:101DA000BDF83C10B0FBF1F0059001200690BDF8A5
:101DB0003C004FF48041B1FBF0F004900698584489
:101DC00009900999059801440498084408900C99D1
:101DD00008980844401E491E20EA01010898A1EB1A
:101DE0000009032E06D106984844069009984844F5
:101DF000099002E0059848440590089800EB05100A
:101E0000A0EB0B000799884201D90E20B8E6DDE966
:101E10000601091A0598091A0498081AB0FBF5F882
:101E2000032E0AD14FF6F570804506D81FB9680811
:101E3000071E00D031E00E20A2E6022E24D14FF67C
:101E4000F570804514D92FB94020B0EB450F01D370
:101E50006F0022E0169800F0020008B103261CE093
:101E600027B968000746802800D816E00E2087E6CC
:101E700040F6F570804507D827B9680007468028E6
:101E800000D80AE00E207BE6012E05D140F6F57061
:101E9000804501D90E2073E600E022E700BFBDF8BF
:101EA0003C200021204601F050FB0B2234A12046AB
:101EB00001F03EFBBDF83C1004F10B0001F0DBFC2F
:101EC0006573069881B204F10E0001F0D4FC012084
:101ED0002074032E01D1002001E04FF40070014670
:101EE00004F1110001F0C7FC0798B0F5803F06D25D
:101EF000079881B204F1130001F0BDFC04E004F185
:101F00002000079901F0ABFCF82060753F2104F137
:101F1000180001F0B0FCFF2104F11A0001F0ABFC45
:101F2000594604F11C0001F09AFC032E36D11749E2
:101F300004F1430001F093FC04F12400059901F041
:101F40008EFC022104F12C0001F089FC012104F136
:101F5000300001F090FC062104F1320001F08BFC0E
:101F6000802084F84000292084F8420013220FE0EA
:101F7000CC4000202C3A0008F5FFFF0F1E3A000865
:101F8000EBFE904D53444F53352E30000000214C52
:101F90009CA104F1470001F0CBFA16E09E4904F140
:101FA000270001F05CFC059881B204F1160001F0F5
:101FB00062FC802084F82400292084F82600132263
:101FC00096A104F12B0001F0B3FA4AF6552104F56D
:101FD000FF7001F050FC01235A4621461198FFF78B
:101FE000B3FC08B10120CBE5032E34D101230BF162
:101FF000060221461198FFF7A7FCBDF83C200021FE
:10200000204601F0A2FA8A49204601F028FC8949BD
:1020100004F5F27001F023FCA8F1010104F5F4705D
:1020200001F01DFC022104F5F67001F018FC4AF6DF
:10203000552104F5FF7001F01EFC01230BF107028E
:1020400021461198FFF780FC01230BF10102214684
:102050001198FFF779FC002120460E9A01F075FADD
:1020600009980B900020039042E0032E0FD16FF0EF
:102070000701204601F0F3FB311F201D01F0EFFBAB
:102080006FF0704104F1080001F0E9FB09E0012E56
:1020900001D1694801E06FF007000146204601F0D8
:1020A000DEFB05980A9000BF0D990A98884201D975
:1020B0000D9800E00A9881464B4621460B9A1198EC
:1020C000FFF742FC08B101205AE5BDF83C20002191
:1020D000204601F03AFA0B9848440B900A98A0EB7E
:1020E00009000A900A980028DED10398401C03904A
:1020F00003980028B9D0032E01D1284600E00498A7
:102100000A9000BF0D990A98884201D90D9800E005
:102110000A9881464B4621460B9A1198FFF714FC0A
:1021200008B101202CE50B9848440B900A98A0EBCD
:1021300009000A900A980028E4D100BF032E02D1BA
:102140000C2012900CE00798B0F5803F02D30620D7
:10215000129005E0022E01D1042000E0012012902F
:1021600000BF169800F00800F0BBBDF83C2000212D
:10217000204601F0EAF94AF6552104F5FF7001F016
:102180007AFB04F5DF7A00208AF8000001208AF843
:1021900001008AF8020000208AF8030012988AF8E9
:1021A00004000798584443F6C161B0FBF1F9FE20E2
:1021B0008AF80500C02000EA990040F03F008AF844
:1021C00006008AF8079059460AF1080001F047FB1B
:1021D0000AF10C00079901F042FB0123002221467D
:1021E0001198FFF7B1FB00E002E008B10120C7E45D
:1021F000002211461198FFF735FB08B10120BFE41A
:102200000020BDE44E4F204E414D45202020204669
:1022100041543332202020000000214C4E4F204EEC
:10222000414D4520202020464154202020202000E0
:102230005252614172724161F8FFFF00F7B582B0FE
:1022400016460398019001A800F039FF0546002DBD
:1022500002DA0B2005B0F0BD0C4850F825400CB157
:1022600000202070029810B10020029908700749E0
:10227000029841F825000EB90020EBE7002202A9E0
:1022800003A800F007FC07463846E3E7CC400020EF
:102290002DE9F74F8EB0044616461CB9092011B03F
:1022A000BDE8F08F06F03F06324601A90FA800F006
:1022B000F1FB0546002D7DD10198029002A80F99EF
:1022C00000F098FD05462DB99DF8330000F0800020
:1022D00000B1062506F01C0000284DD045B1042DA4
:1022E00003D102A8FFF7AAF9054646F008060AE05E
:1022F0009DF80E0000F0110008B1072503E006F07C
:10230000040000B10825002D47D106F00800002880
:1023100043D00999019800F0F9FE8146099901F12D
:102320000E00574901F09BFA20200999C87200223B
:102330000999019801F081FA099901F11C00002125
:1023400001F08DFA01200199C870B9F1000F24D075
:102350000198406B00900022494602A801F020FA43
:102360000546D5B9DDE9001001F0F8F80546A9F1F8
:1023700001000199486110E07DB99DF80E0000F060
:10238000100008B1042508E006F0020028B19DF80D
:102390000E0000F0010000B107254DB906F008005D
:1023A00008B146F040060198406B206209986062CF
:1023B000002D00E04EE05ED10999019800F0A6FEE4
:1023C000A060099901F11C0000F0B3FEE0600198E3
:1023D00020600198C088A080267400206074E061AD
:1023E00060614FF48052002104F1280001F0ADF843
:1023F00006F0200070B3E06860B3E06860610198A7
:1024000040890199898900FB01FAA768D4F80C80FA
:102410000CE03946204600F0B9FD0746012F00D8F0
:102420000225781C00B90125A8EB0A080DB9D04592
:10243000EFD8A76175B901988089B8FBF0F100FB6E
:10244000118038B139460198FEF74EFDB0F1000B0E
:1024500001D102250FE001988089B8FBF0F05844C3
:10246000E061E26901994878012304F12801FFF74E
:1024700022FA00B101250DB10020206028460EE7A8
:102480000000214C2DE9FF4F85B0044615469A46C1
:10249000DDF818B00020CAF8000003A9204601F0BA
:1024A00094FA0490049810B9607C049018B10498D0
:1024B00009B0BDE8F08F207C00F0010008B90720CA
:1024C000F6E76169E068401A01900198854200D9F9
:1024D000019DB9E0606903998989B0FBF1F201FBC4
:1024E0001200002876D1606903998989B0FBF1F068
:1024F00003994989491E00EA0109B9F1000F17D172
:10250000606910B9A068029004E02046A16900F05B
:102510003DFD02900298022802D202206074C7E7B3
:102520000298401C10B901206074C1E70298A061B4
:10253000A1690398FEF7D8FC064616B9022060741C
:10254000B6E74E4403988089B5FBF0F8B8F1000F68
:102550002DD009EB080003994989884203D90398D3
:102560004089A0EB0908039948784346324659460A
:10257000FFF7A1F910B10120607499E7207C00F009
:10258000800078B1E069801B40450BD2E169891B6E
:10259000039B9B8901FB03B003998A8904F12801FD
:1025A00000F0C6FF0398808900FB08F742E0E0696D
:1025B000B04220D0207C00F0800080B1E269039915
:1025C0004878012304F12801FFF7BEF918B1012072
:1025D00060746DE710E0207C00F07F0020740399A8
:1025E00048780123324604F12801FFF764F910B15D
:1025F000012060745CE7E661606903998989B0FB3A
:10260000F1F201FB1200039989890F1AAF4200D938
:102610002F46606903998989B0FBF1F201FB120131
:1026200004F1280008443A4601460090584600F05C
:102630007FFF00BFED1BDAF800003844CAF8000045
:10264000BB44606938446061002D7FF443AF0020D3
:102650002EE70000F8B504466946204601F0B5F9BA
:102660000646002E42D1207C00F0400000283DD0DC
:10267000207C00F0800070B1E26900994878012365
:1026800004F12801FFF760F908B10120F8BD207CB2
:1026900000F07F002074164F216A009800F05EFF62
:1026A00006461EBB656AE87A40F02000E8722946BB
:1026B000A268206801F0C1F805F11C00E16801F092
:1026C000CEF8394605F1160001F0C9F8002105F1F0
:1026D000120001F0D0F801200099C870009801F0B4
:1026E000E1F80646207C00F0BF0020743046CDE7BC
:1026F0000000214C2DE9FF4F85B0044615469B464E
:10270000069802900020CBF8000003A9204601F0B3
:102710005CF90490049810B9607C049018B1049896
:1027200009B0BDE8F08F207C00F0020008B9072056
:10273000F6E700BF606928446169884202D2606997
:10274000C0F1FF35D6E0606903998989B0FBF1F2E9
:1027500001FB120000287DD1606903998989B0FBD3
:10276000F1F003994989491E00EA010ABAF1000F04
:102770001ED1606938B9A76857B900212046FEF715
:102780000DFC074604E02046A169FEF707FC07465A
:1027900007B9B2E0012F02D102206074C0E7781CB3
:1027A00010B901206074BBE7A761A06800B9A760F9
:1027B000207C00F0800078B1E26903994878012319
:1027C00004F12801FFF7C0F810B101206074A7E7F9
:1027D000207C00F07F002074A1690398FEF784FB41
:1027E000064616B9022060749AE756440398808919
:1027F000B5FBF0F9B9F1000F31D00AEB09000399EC
:102800004989884203D903984089A0EB0A090399B2
:1028100048784B4632460299FFF796F810B10120EE
:1028200060747DE7E069801B484511D2E069831B35
:102830000398B0F80CC0029803FB0C01039882893E
:1028400004F1280000F074FE207C00F07F0020746A
:10285000039800E017E0808900FB09F835E0E069A3
:10286000B0420FD0E168606988420BD20399487882
:102870000123324604F12801FFF71DF810B10120B1
:1028800060744DE7E661606903998989B0FBF1F2F4
:1028900001FB120003998989A1EB0008A84500D922
:1028A000A846606903998989B0FBF1F201FB120126
:1028B00004F12800084442460190029900F038FED5
:1028C000207C40F08000207400BFA5EB0805DBF8F9
:1028D00000004044CBF80000029840440290606938
:1028E00040446061E1686069884201D9606900E044
:1028F000E068E060002D7FF426AF00BF207C40F050
:102900004000207400200BE7F0B502460E46002080
:102910000021802A01DA104627E0B6F56A7F24D12B
:10292000124B45F220570025102414E0A7EB050CAC
:1029300005EB5C014FEA410C33F81CC0944500D113
:102940000BE04FEA410C33F81CC0944501DA0D4608
:1029500000E00F46641E002CE8D100BF2CB14FF000
:10296000010C0CEB410C33F81C00F0BDBE8E0108CD
:102970002DE9F04102460F4600200021802A01D2B5
:1029800090B22BE0B2F5803F28D2B7F56A7F25D10F
:1029900095B2134B45F2205C0026102414E0ACEBFA
:1029A000060806EB58014FEA410833F81880A8459D
:1029B00000D10BE04FEA410833F81880A84501DA4E
:1029C0000E4600E08C46641E002CE8D100BF2CB1FE
:1029D0004FF0010808EB410833F81800BDE8F0811A
:1029E0003A3A000870B5B0F5803F4DD281B2B1F5EA
:1029F000805F01DA254E00E0254E324600BF32F8F6
:102A0000023B0BB1994200DA3CE032F8024B25124E
:102A1000E4B21E198E4230DD092D2CD2DFE805F01C
:102A200005090F13171B1F232700CE1A32F81610A3
:102A300021E0CE1A06F001068E1BB1B21BE0A1F117
:102A40001006B1B217E0A1F12006B1B213E0A1F176
:102A50003006B1B20FE0A1F11A06B1B20BE001F1FC
:102A60000806B1B207E0A1F15006B1B203E0A1F54A
:102A7000E356B1B200BF00BF04E0002DBFD102EBAE
:102A80004402BCE700BF084670BD000042E30208F4
:102A900034E502082DE9F74F8AB000210B98016058
:102AA0000A9800F00CFB08900898002803DA0B2025
:102AB0000DB0BDE8F08FC949089851F820400CB915
:102AC0000C20F5E70B9804600C9800F0FE000C90C9
:102AD000207878B16078FEF715FF814609F0010093
:102AE00040B90C9820B109F0040008B10A20DFE7D2
:102AF0000020DDE700202070089860706078FEF705
:102B000091FE814609F0010008B10320D0E70C983E
:102B100020B109F0040008B10A20C9E7607804F187
:102B20000C020221FEF79EFE08B10120C0E7A08939
:102B3000B0F5805F07DCA089B0F5007F03DBA089DA
:102B4000411E084008B10120B2E70027394620465F
:102B5000FEF782F90546022D01D02EDA2DE000267F
:102B600014E04FF4DF7000EB061104F13800084464
:102B700009900998007920B10998083000F0D9FA35
:102B800000E0002002A941F82600761C042EE8D3BC
:102B9000002606B1761E00BF02A850F8267027B1A5
:102BA00039462046FEF758F900E003200546022D7D
:102BB00003DB701C06460428EED3042D01D101204E
:102BC00076E7022D01DB0D2072E704F1430000F0EF
:102BD000BCFAA189884201D00D2069E704F14E00BA
:102BE00000F0B3FA8046B8F1000F04D104F15C00A4
:102BF00000F09FFA8046C4F820804820005DA07055
:102C0000A078012804D0A078022801D00D204FE739
:102C1000A07808FB00F84520005D6081608918B14C
:102C20006089411E084008B10D2041E704F14900C8
:102C300000F08BFA2081A089C11700EBD161491106
:102C4000228992FBF1F301FB132109B10D202FE73B
:102C500004F14B0000F079FA8346BBF1000F04D178
:102C600004F1580000F065FA834604F1460000F0D4
:102C70006CFA0190019808B90D2019E7A089C117D5
:102C800000EBD1614911228992FBF1F20199414493
:102C90001144079107998B4501D20D2008E7079849
:102CA000ABEB00006189B0FBF1FABAF1000F01D182
:102CB0000D20FDE600254A48824500D803254FF641
:102CC000F570824500D8022540F6F570824500D89F
:102CD00001250DB90D20EBE60AF10200E061676203
:102CE00001983844A062079838442063032D13D11B
:102CF00004F1620000F029FA08B10D20D8E620891D
:102D000008B10D20D4E604F1640000F012FAE0628C
:102D1000E0698000069014E0208908B90D20C7E61C
:102D2000A06A4044E062022D02D1E069400007E061
:102D3000207F00F00100E16901EB410100EB51004F
:102D40000690A089401E06990844A189B0FBF1F0C5
:102D5000216A884201D90D20AAE64FF0FF30A06118
:102D6000606180202071032D2CD104F1680000F0F7
:102D7000ECF9012826D1791C204600F0EFFB08BBB6
:102D80000020207104F2362000F0DFF94AF65521C8
:102D9000884217D104F1380000F0CBF9114988427C
:102DA00010D104F5077000F0C4F90F49884209D129
:102DB00004F5087000F0BDF9A06104F5097000F099
:102DC000B8F96061257009480088401C80B2074945
:102DD0000880E08006482061002069E6CC400020A1
:102DE000F5FFFF0F52526141727241616400002091
:102DF000DC4000202DE9F3410446276802E00198F9
:102E0000401C0190019800782F28F8D00198007894
:102E10005C28F4D00020A06001980078202808D217
:102E200080212B20015500212046FEF7A8FC0546F5
:102E300031E000BF01A92046FEF740F9054605B183
:102E400028E02046FEF711FB05462B20065D3DB12C
:102E5000042D04D100BF06F0040000B9052519E0D7
:102E600006F0040000B115E0A07900F0100008B9E8
:102E700005250FE0B9892069B0FBF1F201FB1201D1
:102E800007F1380001EB00084146384600F03EF9F2
:102E9000A060CFE700BF2846BDE8FC8170B50446BE
:102EA0000D46E1B20548FDF7D5FE00BF802103487D
:102EB000FDF756FE0028F9D0204670BD00380140CD
:102EC0002DE9FF4F83B0804691461E460B224046B7
:102ED000049900F02DFB052E18D9374611E039F87A
:102EE00002BB00250BE0584667F35F0007464FEA38
:102EF0006B0B07F4803008B1234847406D1C102D40
:102F0000F1D3B9F800000028E9D13E46072500BFFB
:102F100006F00F0000F1300ABAF1390F03DD0AF1B3
:102F2000070000F0FF0A28466D1E01A901F800A065
:102F30003609002EECD17E20485500240AE018F80E
:102F40000400FEF7E5F920B1681EA04200D107E0B9
:102F5000641C641CAC4203D218F804002028EED193
:102F600000BF00BF082D04D228466D1C01A9085CD3
:102F700000E020202146641C08F80100082CF1D351
:102F800007B0BDE8F08F0000211001002DE9F05FCF
:102F900081460D46D9F80040022D02D3E069A842CF
:102FA00002D84FF0010887E04FF0FF382078012861
:102FB00004D002283AD003287AD156E02E4606EBF8
:102FC0005606A089B6FBF0F0A16A00EB010A514653
:102FD000204600F0C3FA00B16DE03046761CA189AE
:102FE000B0FBF1F201FB120104F13800475CA0894B
:102FF000B6FBF0F0A16A00EB010A5146204600F052
:10300000ADFA00B157E0A089B6FBF0F100FB116109
:1030100004F13800405C47EA002705F0010008B1E0
:10302000380901E0C7F30B00804644E0B4F80CA077
:103030000AEBDA704010B5FBF0F0A16A00EB010B6F
:103040005946204600F08AFA00B134E06800A189B0
:10305000B0FBF1F201FB120104F1380001EB000AB0
:10306000504600F072F8804625E0B4F80CA04FEA14
:10307000EA700AEB90708010B5FBF0F0A16A00EBEB
:10308000010B5946204600F069FA00B113E0A80090
:10309000A189B0FBF1F201FB120104F1380001EB50
:1030A000000A504600F045F820F0704803E0FFE7C2
:1030B0004FF0010800BF00BF4046BDE8F09F70B56B
:1030C00004464FF0FF3026683146324601B970BDE4
:1030D00000BF12F8013B202B01D33A2BF9D13A2B38
:1030E00011D104250E78302E08DB0E78392E05DC40
:1030F0008E1C964202D10E78A6F13005042D01DA1D
:1031000028462260E3E7002000BFE0E770B50546EF
:103110000C4604F11A0000F018F806462878032837
:1031200005D104F1140000F010F846EA00463046DC
:1031300070BD0146C8788A7842EA00204A7842EA9F
:1031400000200A7842EA00207047014648780A7851
:1031500042EA00207047000008B5FDF7DBF80122C5
:1031600020217548FDF7BCF8012211467248FDF791
:10317000B7F8002202217048FDF7B2F8FDF7B0FC65
:103180006E48FDF76DFD6E48FDF76AFD6D48FDF771
:1031900067FD6D48FDF764FD6A48FDF761FD6B480A
:1031A000FDF75EFD6548FDF75BFD012268A16948FA
:1031B000FFF744F868490870084600780D2826D1C2
:1031C00066A0FDF74DFD4FF48050704B00220121A9
:1031D00000905FA0FEF7C4FC5F49087008460078C5
:1031E00088B96BA0FDF73CFD002259A11046FFF7FE
:1031F00025F859490870012255A15648FFF71EF8D5
:10320000554908700DE066A0FDF72AFD09E0524817
:10321000007818B166A0FDF723FD02E068A0FDF775
:103220001FFD4648FDF71CFD6948FDF719FD4348A1
:10323000FDF716FD0A2267A16948FFF729F84649FC
:10324000087008460078002818D1412165A0FDF7D4
:1032500007FD744B412274496148FFF74BFA3E4920
:1032600008700846007828B96E4801686FA0FDF71D
:10327000F7FC06E078A0FDF7F3FC02E07AA0FDF78A
:10328000EFFC5748FEF78BFB33490870084600787F
:1032900018B979A0FDF7E4FC02E07BA0FDF7E0FCA3
:1032A0002648FDF7DDFC7C48FDF7DAFC2348FDF7F6
:1032B000D7FC012247A14A48FEF7EAFF26490870D9
:1032C00008460078002822D174A0FDF7C9FC05212A
:1032D0004348FEF775FB20490870524B4FF480526B
:1032E00075493F48FFF7CEF81B490870084600783B
:1032F00048B94C48016871A0FDF7B2FC6E4979A04D
:10330000FDF7AEFC06E07DA0FDF7AAFC02E056A0AA
:10331000FDF7A6FC3248FEF742FB0F49087008464D
:10332000007818B954A0FDF79BFC02E056A0FDF709
:1033300097FC00BFFEE70000000C0140B8E7020860
:10334000D4E60208F0E5020820E702086CE702086C
:10335000333A00006C100020140000200A3E464C56
:103360004153485F4E4F5F46494C4553595354456E
:103370004D20535441525420544F204D4B46530A34
:103380003E574149542E2E2E0A0000006C000020AA
:103390000A3E4D4B4653204F5645520A000000004E
:1033A0000A3E4D4B4653204641494C0A000000005E
:1033B0000A3E4D4F554E54204641494C0A000000EC
:1033C0000A3E4D4F554E54204F5645520A000000BC
:1033D00088E60208333A696E666F2E7478740000CE
:1033E000A42000200A3E4F50454E204F5645522003
:1033F000535441525420544F2057524954450A3E89
:1034000046494C45204E554D424552204F4620429C
:103410005954455320544F20575249544520256450
:103420000A000000180000201C0000200A3E57522D
:10343000495445204F5645520A3E4E554D4245523D
:10344000204F462042595445532057524954544521
:103450004E3A2025640A00000A3E5752495445203E
:103460004641494C0A0000000A3E464F50454E2056
:103470004641494C0A0000000A3E46434C4F534522
:10348000204F5645520A00000A3E46434C4F5345D2
:10349000204641494C0A00003CE602080A3E4F50D3
:1034A000454E204F56455220535441525420544FBC
:1034B00020524541440A0000CC3000200A3E5245CB
:1034C0004144204F5645520A3E4E554D42455220EA
:1034D0004F4620425954455320524541443A2025F5
:1034E000640A00000A3E5448452044415441205299
:1034F0004541443A2025730A000000000A3E524527
:103500004144204641494C0A00000000F0B5034602
:103510001D460C46002000BF15F8017B14F801CBB6
:10352000A7EB0C00561E321E01D00028F4D0F0BDCF
:1035300030B503460C463AB100BF14F8015B03F8FE
:10354000015B551E2A1EF8D130BD10B5034600BFE1
:1035500003F8011B541E221EFAD110BD70B504469B
:103560000D460026606BA84210D0204600F0E2F91C
:1035700006465EB9607801232A4604F13801FEF759
:103580009AF910B14FF0FF3501266563304670BDE2
:103590002DE9F05F04460D4616464FF00209022D54
:1035A00072D3E069A8426FD92078012804D002289C
:1035B00057D0032811D179E02F4607EB5707A08990
:1035C000B7FBF0F0A16A00EB010A51462046FFF775
:1035D000C5FF8146B9F1000F00D09DE038467F1C41
:1035E000A189B0FBF1F201FB120104F1380001EBFB
:1035F000000805F0010028B1F1B298F8000061F36D
:103600001F1000E0304688F800000120E070A0891B
:10361000B7FBF0F0A16A00EB010A51462046FFF724
:103620009DFF8146B9F1000F00D075E0A089B7FB7E
:10363000F0F100FB117104F1380001EB000805F016
:10364000010010B1C6F3071006E098F8000000F082
:10365000F000C6F30321084388F800000120E07061
:103660005AE0B4F80CA00AEBDA704010B5FBF0F0A9
:10367000A16A00EB010B59462046FFF76FFF814618
:10368000B9F1000F01D047E047E06800A189B0FB25
:10369000F1F201FB120104F1380001EB000AB1B2B2
:1036A000504600F0E8F80120E07035E0B4F80CA0D6
:1036B0004FEAEA700AEB90708010B5FBF0F0A16A57
:1036C00000EB010B59462046FFF748FF8146B9F150
:1036D000000F00D020E0A800A189B0FBF1F201FBAF
:1036E000120104F1380001EB000A5046FFF721FDFA
:1036F00066F31B000646A800A189B0FBF1F201FBAE
:10370000120104F1380001EB000A3146504600F086
:10371000A6F80120E07000BF00BF4846BDE8F09F5A
:103720002DE9F04707460C461546984684F80D806B
:103730000F20E07200202073002104F11A0000F035
:103740009AF8681E00EB800101EBC00900200646D4
:10375000824600BF4FF6FF70864204D0484609F10A
:10376000010937F810600D4911F80A10081931469F
:1037700000F081F80EB94FF6FF760AF1010082469B
:103780000D28E7D34FF6FF70864202D037F81900B4
:1037900008B945F040052570BDE8F087063A0008F5
:1037A0002DE9F04781460E4617464FF00008D9F83C
:1037B0000040022E02D3E069B04202D80220BDE8E8
:1037C000F08767B100BF4FF0FF3239462046FFF760
:1037D000DFFE8046B8F1000F01D04046EFE700BFA2
:1037E00031464846FFF7D2FB054605B922E0012DD8
:1037F00001D10220E3E7681C08B90120DFE70022BD
:1038000031462046FFF7C4FE8046B8F1000F01D0D4
:103810004046D4E7D4E90610801E814206D2A06952
:10382000401CA061207940F0010020712E46E06923
:10383000B042D5D800BF0020C1E770B506460C469F
:103840001546A9B204F11A0000F015F830780328E3
:1038500004D1290C04F1140000F00DF870BD00F83B
:10386000011B090A00F8011B090A00F8011B090ADB
:1038700000F8011B704700F8011B091200F8011B3A
:10388000704730B5014600200B2200BF431003EB08
:10389000C01411F8015B6319D8B2531E1A1EF5D17A
:1038A00030BD000070B50446204600F043F80546E0
:1038B000002D38D1207803282ED1207901282BD152
:1038C000A289002104F13800FFF73FFE4AF6552196
:1038D00004F23620FFF7CFFF144904F13800FFF758
:1038E000BEFF134904F50770FFF7B9FF04F5087030
:1038F000A169FFF7B4FF04F509706169FFF7AFFF35
:10390000606A401C60636078012304F13801626BD7
:10391000FEF71AF800202071607800221146FDF7AA
:10392000A1FF00B10125284670BD0000525261413F
:103930007272416170B504460025E078E8B16078A4
:10394000012304F13801626BFDF7FEFFA0B90020EE
:10395000E070A16A606B401A216A88420DD2A0789B
:1039600002280AD1236A616BCA186078012304F126
:103970003801FDF7E9FF00E00125284670BD2DE97B
:10398000F0410646356815F8014B2046FDF7C0FCAE
:1039900060B115F8017B3846FDF7D4FC18B94FF03B
:1039A000FF30BDE8F08107EB042084B24CB14FF446
:1039B0006A712046FEF7A8FF044614B94FF0FF30A5
:1039C000EFE7A04635604046EBE770B504460D468C
:1039D00009268CB1206878B12068007860B1A08891
:1039E0002168C988884207D121684878FDF78AFF95
:1039F00000F0010000B900260EB9206800E00020A8
:103A00002860304670BD01030507090E1012141618
:103A1000181C1E81FE0000407E80FE000000010098
:103A2000040010004000000100020000010002003C
:103A300004000800100020000000A400E8A1A70076
:103A4000ECA1A800A7A1B000E3A1B100C0A1B700FC
:103A5000A4A1D700C1A1E000A4A8E100A2A8E800A9
:103A6000A8A8E900A6A8EA00BAA8EC00ACA8ED0056
:103A7000AAA8F200B0A8F300AEA8F700C2A1F9000E
:103A8000B4A8FA00B2A8FC00B9A80101A1A81301CA
:103A9000A5A81B01A7A82B01A9A84401BDA84801FE
:103AA000BEA84D01ADA86B01B1A8CE01A3A8D0015D
:103AB000ABA8D201AFA8D401B3A8D601B5A8D8014C
:103AC000B6A8DA01B7A8DC01B8A85102BBA8610208
:103AD000C0A8C702A6A1C902A5A1CA0240A8CB02DC
:103AE00041A8D90242A89103A1A69203A2A69303DA
:103AF000A3A69403A4A69503A5A69603A6A697033A
:103B0000A7A69803A8A69903A9A69A03AAA69B0309
:103B1000ABA69C03ACA69D03ADA69E03AEA69F03D9
:103B2000AFA6A003B0A6A103B1A6A303B2A6A403A7
:103B3000B3A6A503B4A6A603B5A6A703B6A6A80375
:103B4000B7A6A903B8A6B103C1A6B203C2A6B30320
:103B5000C3A6B403C4A6B503C5A6B603C6A6B703D9
:103B6000C7A6B803C8A6B903C9A6BA03CAA6BB03A9
:103B7000CBA6BC03CCA6BD03CDA6BE03CEA6BF0379
:103B8000CFA6C003D0A6C103D1A6C303D2A6C40347
:103B9000D3A6C503D4A6C603D5A6C703D6A6C80315
:103BA000D7A6C903D8A60104A7A71004A1A711048A
:103BB000A2A71204A3A71304A4A71404A5A715047D
:103BC000A6A71604A8A71704A9A71804AAA719044A
:103BD000ABA71A04ACA71B04ADA71C04AEA71D0419
:103BE000AFA71E04B0A71F04B1A72004B2A72104E9
:103BF000B3A72204B4A72304B5A72404B6A72504B9
:103C0000B7A72604B8A72704B9A72804BAA7290488
:103C1000BBA72A04BCA72B04BDA72C04BEA72D0458
:103C2000BFA72E04C0A72F04C1A73004D1A7310419
:103C3000D2A73204D3A73304D4A73404D5A73504BC
:103C4000D6A73604D8A73704D9A73804DAA7390489
:103C5000DBA73A04DCA73B04DDA73C04DEA73D0458
:103C6000DFA73E04E0A73F04E1A74004E2A7410428
:103C7000E3A74204E4A74304E5A74404E6A74504F8
:103C8000E7A74604E8A74704E9A74804EAA74904C8
:103C9000EBA74A04ECA74B04EDA74C04EEA74D0498
:103CA000EFA74E04F0A74F04F1A75104D7A71020A7
:103CB0005CA9132043A81420AAA1152044A816200B
:103CC000ACA11820AEA11920AFA11C20B0A11D20CD
:103CD000B1A1252045A82620ADA13020EBA132209E
:103CE000E4A13320E5A1352046A83B20F9A1AC2072
:103CF00080000321E6A1052147A8092148A8162133
:103D0000EDA1212159A96021F1A26121F2A2622134
:103D1000F3A26321F4A26421F5A26521F6A2662133
:103D2000F7A26721F8A26821F9A26921FAA26A2103
:103D3000FBA26B21FCA27021A1A27121A2A272217F
:103D4000A3A27321A4A27421A5A27521A6A2762103
:103D5000A7A27721A8A27821A9A27921AAA29021BD
:103D6000FBA19121FCA19221FAA19321FDA1962111
:103D700049A897214AA898214BA899214CA8082224
:103D8000CAA10F22C7A11122C6A115224DA81A222D
:103D9000CCA11D22D8A11E22DEA11F224EA82022C6
:103DA000CFA123224FA82522CEA12722C4A12822B9
:103DB000C5A12922C9A12A22C8A12B22D2A12E2223
:103DC000D3A13422E0A13522DFA13622C3A13722BC
:103DD000CBA13D22D7A14822D6A14C22D5A1522267
:103DE00050A86022D9A16122D4A16422DCA165225D
:103DF000DDA1662251A8672252A86E22DAA16F22A5
:103E0000DBA1952292A89922D1A1A522CDA1BF2202
:103E100053A81223D0A16024D9A26124DAA262247B
:103E2000DBA26324DCA26424DDA26524DEA2662476
:103E3000DFA26724E0A26824E1A26924E2A274243C
:103E4000C5A27524C6A27624C7A27724C8A2782466
:103E5000C9A27924CAA27A24CBA27B24CCA27C2436
:103E6000CDA27D24CEA27E24CFA27F24D0A2802406
:103E7000D1A28124D2A28224D3A28324D4A28424D6
:103E8000D5A28524D6A28624D7A28724D8A28824A6
:103E9000B1A28924B2A28A24B3A28B24B4A28C2416
:103EA000B5A28D24B6A28E24B7A28F24B8A29024E6
:103EB000B9A29124BAA29224BBA29324BCA29424B6
:103EC000BDA29524BEA29624BFA29724C0A2982486
:103ED000C1A29924C2A29A24C3A29B24C4A20025F1
:103EE000A4A90125A5A90225A6A90325A7A90425FA
:103EF000A8A90525A9A90625AAA90725ABA90825CA
:103F0000ACA90925ADA90A25AEA90B25AFA90C2599
:103F1000B0A90D25B1A90E25B2A90F25B3A9102569
:103F2000B4A91125B5A91225B6A91325B7A9142539
:103F3000B8A91525B9A91625BAA91725BBA9182509
:103F4000BCA91925BDA91A25BEA91B25BFA91C25D9
:103F5000C0A91D25C1A91E25C2A91F25C3A92025A9
:103F6000C4A92125C5A92225C6A92325C7A9242579
:103F7000C8A92525C9A92625CAA92725CBA9282549
:103F8000CCA92925CDA92A25CEA92B25CFA92C2519
:103F9000D0A92D25D1A92E25D2A92F25D3A93025E9
:103FA000D4A93125D5A93225D6A93325D7A93425B9
:103FB000D8A93525D9A93625DAA93725DBA9382589
:103FC000DCA93925DDA93A25DEA93B25DFA93C2559
:103FD000E0A93D25E1A93E25E2A93F25E3A9402529
:103FE000E4A94125E5A94225E6A94325E7A94425F9
:103FF000E8A94525E9A94625EAA94725EBA94825C9
:10400000ECA94925EDA94A25EEA94B25EFA9502594
:1040100054A8512555A8522556A8532557A85425CC
:1040200058A8552559A856255AA857255BA858259C
:104030005CA859255DA85A255EA85B255FA85C256C
:1040400060A85D2561A85E2562A85F2563A860253C
:1040500064A8612565A8622566A8632567A864250C
:1040600068A8652569A866256AA867256BA86825DC
:104070006CA869256DA86A256EA86B256FA86C25AC
:1040800070A86D2571A86E2572A86F2573A870257C
:1040900074A8712575A8722576A8732577A881253F
:1040A00078A8822579A883257AA884257BA88525E8
:1040B0007CA886257DA887257EA8882580A88925B7
:1040C00081A88A2582A88B2583A88C2584A88D2584
:1040D00085A88E2586A88F2587A8932588A894254E
:1040E00089A895258AA8A025F6A1A125F5A1B22524
:1040F000F8A1B325F7A1BC258BA8BD258CA8C625A2
:10410000F4A1C725F3A1CB25F0A1CE25F2A1CF259F
:10411000F1A1E2258DA8E3258EA8E4258FA8E52549
:1041200090A80526EFA10626EEA1092691A8402613
:10413000E2A14226E1A10030A1A10130A2A10230FA
:10414000A3A10330A8A10530A9A1063065A90730B5
:1041500096A90830B4A10930B5A10A30B6A10B3038
:10416000B7A10C30B8A10D30B9A10E30BAA10F30F3
:10417000BBA11030BEA11130BFA1123093A81330E3
:10418000FEA11430B2A11530B3A11630BCA1173076
:10419000BDA11D3094A81E3095A8213040A9223021
:1041A00041A9233042A9243043A9253044A926300F
:1041B00045A9273046A9283047A9293048A94130C8
:1041C000A1A44230A2A44330A3A44430A4A4453007
:1041D000A5A44630A6A44730A7A44830A8A44930D7
:1041E000A9A44A30AAA44B30ABA44C30ACA44D30A7
:1041F000ADA44E30AEA44F30AFA45030B0A4513077
:10420000B1A45230B2A45330B3A45430B4A4553046
:10421000B5A45630B6A45730B7A45830B8A4593016
:10422000B9A45A30BAA45B30BBA45C30BCA45D30E6
:10423000BDA45E30BEA45F30BFA46030C0A46130B6
:10424000C1A46230C2A46330C3A46430C4A4653086
:10425000C5A46630C6A46730C7A46830C8A4693056
:10426000C9A46A30CAA46B30CBA46C30CCA46D3026
:10427000CDA46E30CEA46F30CFA47030D0A47130F6
:10428000D1A47230D2A47330D3A47430D4A47530C6
:10429000D5A47630D6A47730D7A47830D8A4793096
:1042A000D9A47A30DAA47B30DBA47C30DCA47D3066
:1042B000DDA47E30DEA47F30DFA48030E0A4813036
:1042C000E1A48230E2A48330E3A48430E4A4853006
:1042D000E5A48630E6A48730E7A48830E8A48930D6
:1042E000E9A48A30EAA48B30EBA48C30ECA48D30A6
:1042F000EDA48E30EEA48F30EFA49030F0A4913076
:10430000F1A49230F2A49330F3A49B3061A99C30C5
:1043100062A99D3066A99E3067A9A130A1A5A230EF
:10432000A2A5A330A3A5A430A4A5A530A5A5A63019
:10433000A6A5A730A7A5A830A8A5A930A9A5AA30E9
:10434000AAA5AB30ABA5AC30ACA5AD30ADA5AE30B9
:10435000AEA5AF30AFA5B030B0A5B130B1A5B23089
:10436000B2A5B330B3A5B430B4A5B530B5A5B63059
:10437000B6A5B730B7A5B830B8A5B930B9A5BA3029
:10438000BAA5BB30BBA5BC30BCA5BD30BDA5BE30F9
:10439000BEA5BF30BFA5C030C0A5C130C1A5C230C9
:1043A000C2A5C330C3A5C430C4A5C530C5A5C63099
:1043B000C6A5C730C7A5C830C8A5C930C9A5CA3069
:1043C000CAA5CB30CBA5CC30CCA5CD30CDA5CE3039
:1043D000CEA5CF30CFA5D030D0A5D130D1A5D23009
:1043E000D2A5D330D3A5D430D4A5D530D5A5D630D9
:1043F000D6A5D730D7A5D830D8A5D930D9A5DA30A9
:10440000DAA5DB30DBA5DC30DCA5DD30DDA5DE3078
:10441000DEA5DF30DFA5E030E0A5E130E1A5E23048
:10442000E2A5E330E3A5E430E4A5E530E5A5E63018
:10443000E6A5E730E7A5E830E8A5E930E9A5EA30E8
:10444000EAA5EB30EBA5EC30ECA5ED30EDA5EE30B8
:10445000EEA5EF30EFA5F030F0A5F130F1A5F23088
:10446000F2A5F330F3A5F430F4A5F530F5A5F63058
:10447000F6A5FC3060A9FD3063A9FE3064A90531C2
:10448000C5A80631C6A80731C7A80831C8A8093190
:10449000C9A80A31CAA80B31CBA80C31CCA80D3160
:1044A000CDA80E31CEA80F31CFA81031D0A8113130
:1044B000D1A81231D2A81331D3A81431D4A8153100
:1044C000D5A81631D6A81731D7A81831D8A81931D0
:1044D000D9A81A31DAA81B31DBA81C31DCA81D31A0
:1044E000DDA81E31DEA81F31DFA82031E0A8213170
:1044F000E1A82231E2A82331E3A82431E4A8253140
:10450000E5A82631E6A82731E7A82831E8A829310F
:10451000E9A82032E5A22132E6A22232E7A2233224
:10452000E8A22432E9A22532EAA22632EBA22732FF
:10453000ECA22832EDA22932EEA231325AA9A332DE
:1045400049A98E334AA98F334BA99C334CA99D337B
:104550004DA99E334EA9A1334FA9C43350A9CE33E0
:1045600051A9D13352A9D23353A9D53354A9004EFE
:10457000BBD2014EA1B6024E4081034EDFC6044EAF
:104580004181054E4281064E4381074EF2CD084ED1
:10459000C9D5094EFDC80A4ECFC90B4EC2CF0C4E2D
:1045A000A2D80D4EBBB20E4EEBD30F4E4481104E2F
:1045B000A4D8114EF3B3124E4581134EA8D7144E12
:1045C000D2C7154EA7D8164EC0CA174E4681184EF0
:1045D000F0C7194EFBB11A4EB5D21B4ED4B41C4EC7
:1045E000ABB61D4EBFCB1E4EA9D81F4E4781204EE5
:1045F0004881214E4981224EAAB6234E4A81244E3B
:10460000BDC1254ECFD1264E4B81274EA5C9284E80
:10461000ADD8294E4C812A4EF6B82B4EBED12C4E29
:10462000DCE32D4ED0D62E4E4D812F4E4E81304E96
:10463000E1B7314E4F81324EAEB4334E5081344EDD
:10464000D9C1354E5181364EBCD8374E5281384E85
:10465000E8CD394EA4B53A4EAACE3B4EF7D63C4EE5
:1046600053813D4EF6C03E4ED9BE3F4EAFD8404E70
:104670005481414E5581424E5681434ECBC4444EE7
:104680005781454EC3BE464E5881474EB1D8484E1D
:10469000B4C3494EE5D24A4E59814B4EAED64C4E2C
:1046A000DACE4D4EA7D54E4EF5BA4F4EA6B7504E68
:1046B000D6C0514E5A81524EB9C6534ED2C5544EF1
:1046C000C7C7554E5B81564ED4B9574E5C81584E84
:1046D000CBB3594ED2D25A4E5D815B4E5E815C4E59
:1046E000BFD85D4EC5BE5E4EF2C65F4EB2D2604EC2
:1046F000B0CF614EE7CF624E5F81634E6081644E02
:104700006181654E6281664EE9CA674E6381684E7B
:104710006481694EC0D86A4E65816B4E66816C4E6D
:1047200067816D4E68816E4E69816F4E6A81704EF1
:10473000F2C2714ED2C2724E6B81734EE9C8744E92
:104740006C81754E6D81764E6E81774E6F81784E9D
:104750007081794E71817A4E72817B4E73817C4E6D
:1047600074817D4E75817E4EACC77F4E7681804EC2
:104770007781814E7881824E7981834E7A81844E11
:104780007B81854E7C81864ECBC1874E7D81884E54
:10479000E8D3894EF9D58A4E7E818B4EC2CA8C4EA3
:1047A000FEB68D4EA1D88E4EDAD38F4EF7BF904E07
:1047B0008081914EC6D4924EA5BB934EC1D8944EE3
:1047C000E5CE954EAEBE964E8181974E8281984E33
:1047D000A8D8994E83819A4EC7D19B4EA9D09C4EA2
:1047E00084819D4E85819E4E86819F4EBDD8A04E70
:1047F000EFD9A14EF6CDA24EBABFA34E8781A44EEB
:10480000BBBDA54EA5BAA64EE0D2A74EFAB2A84EA1
:10481000E0BAA94EB6C4AA4E8881AB4EEDCFAC4EDD
:10482000A9BEAD4EA4CDAE4EC1C1AF4E8981B04E32
:104830008A81B14E8B81B24ED7C7B34EF1D9B44EF7
:104840008C81B54EF4D9B64E8D81B74E8E81B84E5F
:104850008F81B94E9081BA4ECBC8BB4EE9D8BC4EC1
:104860009181BD4E9281BE4E9381BF4EDAD2C04E31
:10487000B2CAC14ECAC8C24EECD8C34EEAD8C44E62
:10488000C6D8C54EF6BDC64ECDC6C74EF0B3C84E4F
:104890009481C94EEBD8CA4EF1BDCB4EE9BDCC4E8A
:1048A0009581CD4ED4C8CE4ED3B4CF4E9681D04E46
:1048B0009781D14ED8C2D24E9881D34ED6B2D44E23
:1048C000D0D7D54ECBCAD64EFBCBD74ECCD5D84EB3
:1048D000B6B8D94EC9CFDA4E9981DB4E9A81DC4EFB
:1048E0009B81DD4EDAD9DE4EF0D8DF4EAAC7E04E0E
:1048F0009C81E14EEED8E24E9D81E34EFAB4E44E47
:10490000EEC1E54ED4D2E64E9E81E74E9F81E84E41
:10491000EDD8E94EA081EA4EC7D2EB4EEFD8EC4E6F
:10492000C7C3ED4EA181EE4EA281EF4EA381F04EA2
:10493000F6D1F14EA481F24ED9D6F34EF2D8F44E10
:10494000A581F54EF5D8F64EFEBCF74EDBBCF84E11
:10495000A681F94EA781FA4EA881FB4ECEC8FC4E27
:10496000A981FD4EDDB7FE4EAA81FF4EC2B7004FB2
:10497000AB81014FF3C6024FAC81034FAD81044FB1
:10498000AE81054FAF81064FB081074FB181084F0F
:10499000B281094FF8D80A4FC1D20B4FB3810C4FE7
:1049A000B4810D4FE9CE0E4FBFBC0F4FFCB7104F77
:1049B000A5B7114FDDD0124FB581134FB681144FFB
:1049C000B781154FB881164FB981174FDAD6184FF6
:1049D000C5D3194FEFBB1A4FE1BB1B4FF1D81C4F8A
:1049E000BA811D4FBB811E4FA1C91F4FB0CE204FB2
:1049F000ABB4214FBC81224FF3D8234FBD81244F4C
:104A0000CBC9254FF6D8264FD7C2274FF7D8284F06
:104A1000BE81294FBF812A4FB1CE2B4FF9D82C4FE1
:104A2000C0812D4FC1812E4FC2812F4FAEB2304F6A
:104A3000C0B9314FC381324FA3D9334FC481344FF2
:104A4000E9B0354FC581364FE6C1374FC681384F83
:104A5000ECC9394FC7813A4FC5CB3B4FC8813C4F5A
:104A6000C6CB3D4FA4D93E4FC9813F4FCA81404F6D
:104A7000CB81414FCC81424FCD81434FE8B5444F6C
:104A8000CE81454FCF81464FABB5474FD081484F80
:104A9000D181494FD2814A4FD3814B4FD4814C4F62
:104AA000D5814D4FBBCE4E4FCDB54F4FA1D7504FB7
:104AB000F4D7514FD3D3524FD681534FE5CC544FF7
:104AC000D781554FCEBA564FD881574FA2D9584F9C
:104AD000DCD9594FE0D35A4FFDD85B4FF0B75C4F4C
:104AE000F7D75D4FFED85E4FFAD85F4FA1D9604F20
:104AF000E3C4614FD981624FDA81634FB6D3644F0B
:104B0000F4D8654FDDD9664FDB81674FFBD8684F1E
:104B1000DC81694FE5C56A4FDD816B4FDE816C4FEB
:104B2000D0C06D4FDF816E4FE0816F4FF0D1704F7D
:104B3000DBB0714FE181724FE281734FD1BC744F92
:104B4000A6D9754FE381764FA5D9774FE481784F89
:104B5000E581794FE6817A4FE7817B4FACD97C4F75
:104B6000AED97D4FE8817E4FABD97F4FB9CA804F18
:104B7000E981814FEA81824FEB81834FA9D9844F2C
:104B8000B6D6854FEC81864FED81874FEE81884FF9
:104B9000DEB3894FA8D98A4FEF818B4FFDC08C4F70
:104BA000F0818D4FCCCA8E4FF1818F4FAAD9904F93
:104BB000F281914FA7D9924FF381934FF481944F93
:104BC000B0D9954FF581964FF681974FB1B6984F72
:104BD000F781994FF8819A4FF9819B4FA9B99C4F62
:104BE000FA819D4FC0D29E4FFB819F4FFC81A04F09
:104BF000C0CFA14FFD81A24FFE81A34FC2C2A44FDF
:104C00004082A54FC4BDA64FECD5A74FE0B2A84F38
:104C1000C8C7A94FEBBFAA4FADD9AB4F4182AC4F2C
:104C2000AFD9AD4F4282AE4FEACEAF4FEEBAB04FE2
:104C30004382B14F4482B24F4582B34F4682B44F54
:104C40004782B54FD6C7B64F4882B74F4982B84F53
:104C50004A82B94F4B82BA4F4C82BB4F4D82BC4FF8
:104C60004E82BD4F4F82BE4F5082BF4FE3B1C04F07
:104C70005182C14F5282C24F5382C34FD9B4C44FE5
:104C8000EDB6C54FB4D9C64F5482C74F5582C84FF1
:104C90005682C94F5782CA4FA1BFCB4F5882CC4FC3
:104CA0005982CD4F5A82CE4FDED9CF4FCEC7D04F8B
:104CB000FEC0D14FB8D9D24F5B82D34F5C82D44F64
:104CC0005D82D54F5E82D64F5F82D74FD7CBD84F0C
:104CD000FDB7D94F6082DA4FB5D9DB4F6182DC4F27
:104CE000B7D9DD4FA3B1DE4FE1D3DF4FB9D9E04FE4
:104CF0006282E14FC5D0E24F6382E34FB6D9E44F01
:104D00006482E54F6582E64FB1D9E74F6682E84F8E
:104D1000B2D9E94FA9C1EA4FB3D9EB4F6782EC4F43
:104D20006882ED4FF3BCEE4FDED0EF4FA9B8F04FE5
:104D30006982F14FE3BEF24F6A82F34FBDD9F44F5F
:104D40006B82F54F6C82F64F6D82F74F6E82F84F93
:104D5000BAD9F94F6F82FA4FB3B0FB4F7082FC4F54
:104D60007182FD4F7282FE4FC2D9FF4F7382005095
:104D7000748201507582025076820350778204500B
:104D800078820550798206507A8207507B820850DB
:104D90007C8209507D820A507E820B5080820C50AA
:104DA000C4D90D50B6B10E5081820F50BFD91050EA
:104DB0008282115083821250B9B5135084821450EC
:104DC000F3BE155085821650868217508782185080
:104DD000C8CC1950F2BA1A50D0D21B5088821C503D
:104DE000C3D91D5089821E508A821F50E8BD2050B1
:104DF0008B822150ABB322508C8223508D82245061
:104E00008E822550C5D92650EBBE27508F82285060
:104E1000C6D92950BBD92A50DFC42B5090822C50C0
:104E2000BED92D50C1D92E50C0D92F5091823050AB
:104E30009282315093823250948233509582345012
:104E400096823550978236509882375099823850E2
:104E50009A8239509B823A50AED53B509C823C504E
:104E6000B5D63D509D823E50E3C73F509E82405094
:104E70009F824150A0824250A1824350C8D94450E1
:104E8000A2824550A3824650A4824750D9BC4850C4
:104E9000CAD94950A5824A50A6824B50A7824C508D
:104EA000BCD94D50A8824E50CBD94F50ABC65050B4
:104EB000A9825150AA825250AB825350AC825450B6
:104EC000AD825550C9D95650AE825750AF82585016
:104ED000B0825950B1825A50F6D75B50B2825C50C2
:104EE000A3CD5D50B3825E50B4825F50B5826050F6
:104EF000B6826150B7826250B8826350B982645002
:104F0000BA826550A1BD6650BB826750BC826850B2
:104F1000BD826950BE826A50BF826B50C0826C50A5
:104F2000CCD96D50C1826E50C2826F50C382705016
:104F3000C4827150C5827250C6827350C782745049
:104F4000C8827550C9827650BCC57750B5CD7850AF
:104F5000CA827950CB827A50CC827B50CDD97C509A
:104F6000CD827D50CE827E50C7D97F50A5B3805070
:104F7000FEBF8150CF828250D0828350D182845034
:104F8000D2828550B5B88650D3828750D48288505B
:104F9000FCC08950D5828A50D6828B50D7828C50E3
:104FA000D8828D50F8B08E50D9828F50DA829050CE
:104FB000DB829150DC829250DD829350DE829450ED
:104FC000DF829550E0829650E1829750E2829850BD
:104FD000E3829950E4829A50E5829B50E6829C508D
:104FE000E7829D50E8829E50E9829F50EA82A0505D
:104FF000EB82A150EC82A250ED82A350F6B4A450F3
:10500000EE82A550CED9A650EF82A750CFD9A85096
:10501000A2B4A950D0D9AA50F082AB50F182AC50C2
:10502000DFB4AD50F282AE50F382AF50F482B05094
:10503000F582B150F682B250C1B0B350F782B4508D
:10504000F882B550F982B650FA82B750FB82B85058
:10505000FC82B950FD82BA50D1D9BB50B5C9BC5001
:10506000FE82BD504083BE504183BF504283C0503A
:105070004383C1504483C2504583C3504683C450C8
:105080004783C5504883C6504983C7504A83C85098
:105090004B83C9504C83CA504D83CB504E83CC5068
:1050A0004F83CD505083CE505183CF50F1CFD0504D
:1050B0005283D1505383D2505483D3505583D4500C
:1050C0005683D5505783D650D2D9D7505883D8500D
:1050D0005983D9505A83DA50C5C1DB505B83DC5009
:1050E0005C83DD505D83DE505E83DF505F83E05084
:1050F0006083E1506183E2506283E3506383E45054
:105100006483E5506583E650D6D9E750AEC9E850D0
:105110006683E9506783EA506883EB506983EC50FB
:10512000D5D9ED50D4D9EE50D7D9EF506A83F0508D
:105130006B83F1506C83F2506D83F350DBCBF450F2
:105140006E83F550A9BDF6506F83F7507083F85009
:105150007183F9507283FA507383FB50A7C6FC50D9
:105160007483FD507583FE507683FF507783005122
:1051700078830151798302517A8303517B830451EF
:105180007C8305517D830651D3D90751D8D9085165
:105190007E83095180830A5181830B51D9D90C51E7
:1051A00082830D5183830E5184830F518583105167
:1051B0008683115187831251E5C813518883145196
:1051C000898315518A8316518B8317518C8318510B
:1051D0008D8319518E831A518F831B5190831C51DB
:1051E00091831D5192831E5193831F5194832051AB
:1051F00095832151DCC022519683235197832451FA
:1052000098832551998326519A8327519B8328514E
:105210009C8329519D832A519E832B519F832C511E
:10522000A0832D51A1832E51A2832F51A3833051EE
:10523000A4833151A5833251A6833351A7833451BE
:10524000A8833551A9833651AA833751AB8338518E
:10525000AC833951AD833A51AE833B51AF833C515E
:10526000B0833D51B1833E51B2833F51F9B64051B5
:10527000A3D84151CAD44251B3834351AAD4445113
:10528000D6D04551E4B34651D7D54751B4834851A0
:10529000C8CF4951E2B94A51B5834B51CBBF4C51AC
:1052A000B6834D51E2C34E51B7834F51B88350512D
:1052B000B9835151D2B65251BA835351BB83545121
:1052C000C3CD5551EED95651F0D95751BC835851E1
:1052D000BD835951BE835A51B3B55B51BF835C51F5
:1052E000B5B65D51C0835E51C1835F51C2836051C9
:1052F000C3836151C4836251A4BE6351C5836451A9
:10530000C6836551EBC86651C7836751C88368512E
:10531000ABC86951C9836A51CA836B51CBB06C5118
:10532000ABB96D51F9C16E51E2D96F51CB83705158
:10533000BCC07151B2B97251CC837351D8B9745198
:10534000CBD07551F8B17651E4C67751DFBE7851B4
:10535000E4B57951C8D77A51CD837B51F8D17C51CE
:10536000E6BC7D51DECA7E51CE837F51CF83805112
:10537000BDBC8151E6D98251E7D88351D083845195
:10538000D1838551DAC48651D2838751D383885122
:10539000D4B88951BDC88A51D4838B51D5838C51DF
:1053A000E1B28D51D9D48E51D6838F51D78390518C
:1053B000D8839151D9839251B0C39351DA839451D8
:1053C000DB839551E1C39651A2DA9751DFC898511A
:1053D000DC839951B4D09A51DD839B51FCBE9C5122
:1053E000A9C59D51DE839E51DF839F51E083A0516B
:1053F000DAB9A151E183A251A3DAA351E283A45106
:10540000A9D4A551A4DAA651E383A751E483A851F6
:10541000E583A951E683AA51E783AB51FBD9AC518F
:10542000ACB6AD51E883AE51E983AF51EBB7B051A3
:10543000F9B1B151FCD9B251E5B3B351F6BEB45193
:10544000EA83B551F6BFB651B1D2B751E4C0B851F5
:10545000EB83B951EC83BA51ED83BB51B3B6BC5168
:10546000FED9BD51FDD9BE51EE83BF51EF83C0516E
:10547000BBBEC151F083C251F183C351F283C45109
:10548000E0C6C551F383C651BCD7C751A1DAC85194
:10549000F483C951B9C1CA51F583CB51F2B5CC518E
:1054A000E8C1CD51F683CE51F783CF51F5BCD05131
:1054B000F883D151D5B4D251F983D351FA83D45161
:1054C000FB83D551FC83D651FD83D751FE83D85140
:1054D0004084D9514184DA514284DB51DDC1DC5131
:1054E0004384DD51FDC4DE514484DF514584E051E5
:1054F000B8BCE151B2B7E2514684E3514784E4516C
:10550000EFB7E5514884E6514984E7514A84E851B0
:105510004B84E9514C84EA514D84EB51ECD9EC5168
:105520004E84ED51BEC6EE514F84EF51ADBFF051E8
:10553000CBBBF1515084F2515184F351CAB5F451AF
:105540005284F551C9DBF651D7D0F7515384F85145
:10555000B9CDF951BCB0FA51F6B3FB51F7BBFC51D0
:10556000CADBFD51AFBAFE515484FF51E4D400525E
:10557000B6B50152F3B50252D6D80352D0C8045280
:105580005584055256840652D6B70752D0C70852E2
:10559000D7D8095257840A52AFBF0B5258840C52C5
:1055A00059840D52BBDB0E52D8D80F525A84105278
:1055B0005B841152CCD01252AEBB13525C84145295
:1055C0005D8415525E841652BEEB1752D0C118523C
:1055D000F5C11952F2D41A52D5B81B52B4B41C52A8
:1055E0005F841D52F5B31E5260841F5261842052A5
:1055F000BEC921526284225263842352648424529D
:10560000D0C5255265842652668427526784285265
:10561000D9C52952FBC02A5268842B52F0B12C52B2
:1056200069842D52D9D82E52CEB92F526A84305265
:10563000BDB531526B8432526C843352DAD8345255
:105640006D8435526E843652C6D63752A2CB38524C
:10565000AFC83952B2C93A52CCB43B52CCBF3C521B
:105660006F843D52F4B93E5270843F52DBD84052B1
:10567000DCD84152E7B64252C1BC4352EACC445254
:1056800071844552728446527384475274844852DE
:105690007584495276844A52F7CF4B5277844C52E4
:1056A000DDD84D52B0C74E5278844F527984505253
:1056B000D0B95152A3BD52527A8453527B84545272
:1056C000DECC55527C845652CAC657527D845852FD
:1056D0007E84595280845A5281845B5282845C5207
:1056E000E0D85D5283845E52DED85F52848460527B
:1056F00085846152DFD86252868463528784645203
:1057000088846552FEB0665289846752E7BE68524B
:105710008A846952A3CA6A52F4BC6B528B846C525D
:105720008C846D528D846E528E846F52B1B87052DB
:105730008F84715290847252EEB873529184745275
:1057400092847552938476529484775295847852D9
:105750009684795297847A5298847B5299847C52A9
:105760009A847D52E2D87E529B847F52CBBD805278
:105770009C848152E4D88252E3D883529D8484521F
:105780009E8485529F848652A0848752A184885229
:10579000FCC58952A2848A52A3848B52A4848C5261
:1057A000A5848D52A6848E52A7848F52A8849052CD
:1057B000E5D89152A9849252AA849352E6D8945281
:1057C000AB849552AC849652AD849752AE84985275
:1057D000AF849952B0849A52B1849B52A6C19C5214
:1057E000B2849D52B0C89E52ECB09F52A6B9A0524E
:1057F000D3BCA152F1CEA252BDDBA352D3C1A4525D
:10580000B384A552B484A652B584A752B684A852D4
:10581000AFB6A952FAD6AA52ACC5AB52D9BDAC525A
:10582000BEDBAD52BFDBAE52B784AF52B884B052CC
:10583000B984B152F8C0B252A2BEB352CDC0B45274
:10584000BA84B552BB84B652BC84B752BD84B85238
:10585000BE84B952BF84BA52C084BB52C184BC5208
:10586000C284BD52C384BE52C0DBBF52C6CAC0523E
:10587000C484C152C584C252C684C352AAB2C4529F
:10588000C784C552C884C652C984C752C2D3C8523D
:10589000CA84C952E3C3CA52CB84CB52ABD1CC52D7
:1058A000CC84CD52CD84CE52CE84CF52CF84D05230
:1058B000C2DBD152D084D252D5C0D352D184D4527B
:1058C000D284D552D384D652C3DBD752D484D85293
:1058D000B1BFD952D584DA52D684DB52D784DC5298
:1058E000D884DD52D984DE52DA84DF52BCC4E0525F
:1058F000DB84E152DC84E252DD84E352DE84E45254
:10590000DAC7E552DF84E652E084E752E184E852E8
:10591000E284E952E384EA52E484EB52E584EC52F7
:10592000E684ED52E784EE52E884EF52E984F052C7
:10593000C4DBF152EA84F252EB84F352EC84F45269
:10594000ED84F552EE84F652EF84F752F084F8526B
:10595000F184F952E8D9FA52D7C9FB52F284FC52C9
:10596000F384FD52F484FE52B4B9FF52F0CE0053DA
:10597000C8D40153F5840253F6840353F7840453C7
:10598000F8840553FCB00653D2B40753F984085386
:10599000D9D00953FA840A53FB840B53FC840C536B
:1059A000FD840D53E9D90E53FE840F53CBDE105303
:1059B000EBD911534085125341851353428514533B
:1059C00043851553B0D81653AFBB1753B1B1185315
:1059D00044851953D7B31A53CED81B5345851C534E
:1059E00046851D53D1D41E5347851F5348852053E8
:1059F000B3BD2153EFBF225349852353BBCF24535B
:105A00004A8525534B852653D0D827534C85285398
:105A10004D8529534E852A53CBB72B534F852C5395
:105A200050852D5351852E53D1D82F535285305345
:105A300053853153548532535585335356853453EA
:105A40005785355358853653598537535A853853BA
:105A50005B853953A5C63A53F8C73B53BDD23C5377
:105A60005C853D535D853E53D2D83F53E4C44053DB
:105A70005E854153AECA42535F854353A7C7445323
:105A800060854553A6D8465361854753FDC94853A1
:105A9000E7CE4953DCBB4A53EBB04B5362854C53C2
:105AA00063854D5364854E53AABB4F53ADD05053BD
:105AB00065855153B0B15253E4D75353BFD75453B4
:105AC00066855553A5B55653F4C25753CFC45853A2
:105AD0006785595368855A53A9B25B5369855C53EE
