:020000040800F2
:100000000004002049010008E10300086303000820
:10001000DD0300089101000805070008000000004A
:10002000000000000000000000000000B50500080E
:100030009501000800000000E3030008A106000885
:100040006301000863010008630100086301000800
:1000500063010008630100086301000863010008F0
:1000600063010008630100086301000863010008E0
:1000700063010008630100086301000863010008D0
:1000800063010008630100086301000863010008C0
:1000900063010008630100086301000863010008B0
:1000A00063010008630100086301000863010008A0
:1000B0006301000863010008630100086301000890
:1000C0006301000863010008630100086301000880
:1000D0006301000863010008630100086301000870
:1000E0006301000863010008630100086301000860
:1000F0006301000863010008630100086301000850
:10010000630100086301000863010008630100083F
:10011000630100086301000863010008630100082F
:10012000630100086301000863010008630100081F
:10013000DFF810D000F01AF800480047490700081F
:10014000AFF30080000400200648804706480047BF
:10015000FEE7FEE7FEE7FEE7FEE7FEE7FEE7FEE777
:10016000FEE7FEE7A506000831010008064C074D32
:1001700006E0E06840F0010394E807009847103477
:10018000AC42F6D3FFF7D8FF6808000878080008EB
:1001900000BFFEE7704700000549096821F0100123
:1001A000034A11601146096801431160704700005D
:1001B0000020024001460020034A106800F0380089
:1001C0000843106070470000002002402DE9F04114
:1001D000024600250026002000230024002791F875
:1001E00003C00CF00F0591F803C00CF0100CBCF12B
:1001F000000F03D091F802C04CEA050591F800C049
:10020000BCF1000F31D0146800202BE04FF0010C3E
:100210000CFA00F3B1F800C00CEA03069E4220D1AC
:1002200083004FF00F0C0CFA03F7BC4305FA03FCF4
:100230004CEA040491F803C0BCF1280F06D14FF03A
:10024000010C0CFA00FCC2F814C00AE091F803C0DB
:10025000BCF1480F05D14FF0010C0CFA00FCC2F8BC
:1002600010C0401C0828D1D31460B1F800C0BCF104
:10027000FF0F34DD546800202EE000F1080C4FF031
:10028000010808FA0CF3B1F800C00CEA03069E421C
:1002900021D183004FF00F0C0CFA03F7BC4305FA91
:1002A00003FC4CEA040491F803C0BCF1280F05D10B
:1002B00000F1080C08FA0CF8C2F8148091F803C099
:1002C000BCF1480F07D100F1080C4FF0010808FA03
:1002D0000CF8C2F81080401C0828CED35460BDE84A
:1002E000F0810AB1016100E0416170471CB504462C
:1002F00000200190009000F085F84FF4803000F06D
:10030000D9F800F03BF900900098012826D1102080
:10031000FFF742FF0220FFF74DFF002000F0BEF87C
:10032000002000F0FFF84FF4806000F0EFF8214665
:100330004FF4803000F008F9012000F0FFF800BF12
:10034000392000F085F80028FAD0022000F00AF9E0
:1003500000BF00F09BF80828FBD101E000BFFEE7DA
:100360001CBD00BFFEE7000008B50121082000F019
:1003700039F801208DF8020010208DF803002020AC
:10038000ADF8000069460948FFF720FF0120ADF8ED
:10039000000069460548FFF719FF0220ADF800008C
:1003A00069460248FFF712FF08BD0000000C01403B
:1003B00008B50121042000F015F803208DF8020093
:1003C00018208DF803004FF48070ADF800006946E6
:1003D0000148FFF7FBFE08BD0008014000BFFEE733
:1003E0007047704729B1064A92690243044B9A61EB
:1003F00004E0034A92698243014B9A61704700000E
:10040000001002400F48006840F001000D490860EC
:10041000084640680C4908400A4948600846006898
:100420000A490840074908600846006820F480200F
:1004300008600846406820F4FE0048604FF41F0042
:1004400088607047001002400000FFF8FFFFF6FED2
:1004500010B501460022002300204A11012A02D1D2
:10046000094C236806E0022A02D1074C236A01E006
:10047000054C636A01F01F02012494401C400CB13A
:10048000012000E0002010BD00100240024840683A
:1004900000F00C00704700000010024001460020F0
:1004A000034A506820F0F000084350607047000095
:1004B000001002401149096821F480310F4A11608F
:1004C0001146096821F480211160B0F5803F03D006
:1004D000B0F5802F0ED106E00849096841F480315B
:1004E000064A116007E00549096841F4A021034A62
:1004F000116000E000BF00BF704700000010024024
:100500000149C871704700000010024001460020F8
:10051000034A506820F4E0600843506070470000D0
:100520000010024001460020034A506820F4605049
:1005300040EAC1005060704700100240014908665F
:10054000704700000000424202460020044B5868F9
:1005500020F47C1042EA01031843014B58607047B5
:100560000010024001460020034A506820F00300BA
:1005700008435060704700000010024038B500206A
:1005800000900024002500BF3120FFF761FF0546E1
:100590000098401C00900098B0F5A06F01D0002D8D
:1005A000F2D03120FFF754FF08B1012400E000240D
:1005B000204638BD704710B500F002F810BD0000AD
:1005C0000CB50020019000903348006840F4803062
:1005D0003149086000BF3048006800F400300090E6
:1005E0000198401C0190009818B90198B0F5A06FCF
:1005F000F1D12948006800F4003010B101200090CA
:1006000001E0002000900098012843D123480068B1
:1006100040F01000214908600846006820F00300FF
:1006200008600846006840F0020008601A48406808
:10063000194948600846406848600846406840F4E8
:10064000806048600846406820F47C104860084696
:10065000406840F4E81048600846006840F0807048
:10066000086000BF0C48006800F000700028F9D056
:100670000948406820F00300074948600846406880
:1006800040F00200486000BF0348406800F00C00E2
:100690000828F9D10CBD00000010024000200240E3
:1006A0007047000010B51348006840F00100114980
:1006B000086008464068104908400E4948600846EE
:1006C00000680E4908400B4908600846006820F49D
:1006D000802008600846406820F4FE0048604FF41F
:1006E0001F008860FFF767FF4FF000600449086053
:1006F00010BD0000001002400000FFF8FFFFF6FEF2
:1007000008ED00E000BFFEE702E008C8121F08C1C4
:10071000002AFAD170477047002001E001C1121F82
:10072000002AFBD17047002107E042F6E06100BFDC
:100730000A1EA1F1010399B2FAD1021EA0F1010330
:1007400098B2F2D1704700004FF4E010FFF7CEFDF1
:10075000FFF72EFE0420FFF7D3FEFFF705FE012270
:1007600020214048FFF7BDFD012211463D48FFF71B
:10077000B8FD012202213B48FFF7B3FD71E00022E2
:1007800020213848FFF7ADFD012211463548FFF71B
:10079000A8FD012202213348FFF7A3FD4FF4FA70B0
:1007A000FFF7C1FF002220212E48FFF79AFD00220B
:1007B00001212C48FFF795FD012202212948FFF76E
:1007C00090FD4FF4FA70FFF7AEFF0122202125487B
:1007D000FFF787FD012211462248FFF782FD002224
:1007E00002212048FFF77DFD4FF4FA70FFF79BFFD1
:1007F000012220211B48FFF774FD00220121194826
:10080000FFF76FFD012202211648FFF76AFD4FF442
:10081000FA70FFF788FF012220211248FFF761FDDF
:10082000002201210F48FFF75CFD002202210D4844
:10083000FFF757FD4FF4FA70FFF775FF00222021F4
:100840000848FFF74EFD012211460648FFF749FD13
:10085000002202210348FFF744FD4FF4FA70FFF72E
:1008600062FF8CE7000C01407808000800000020BF
:08087000000400001807000855
:0400000508000131BD
:00000001FF
