:020000040800F2
:10000000180400204901000809030008B70200088D
:1000100005030008910100085905000800000000D0
:100020000000000000000000000000002D03000898
:1000300095010008000000000B030008B50400084B
:100040006301000863010008630100086301000800
:1000500063010008630100086301000863010008F0
:1000600063010008630100086301000863010008E0
:1000700063010008630100086301000863010008D0
:1000800063010008630100086301000863010008C0
:1000900063010008630100086301000863010008B0
:1000A00063010008630100086301000863010008A0
:1000B0006301000863010008630100086301000890
:1000C0006301000863010008630100086301000880
:1000D0006301000863010008630100086301000870
:1000E0006301000863010008630100086301000860
:1000F0006301000863010008630100086301000850
:10010000630100086301000863010008630100083F
:10011000630100086301000863010008630100082F
:10012000630100086301000863010008630100081F
:10013000DFF810D000F01AF8004800477D050008ED
:10014000AFF30080180400200648804706480047A7
:10015000FEE7FEE7FEE7FEE7FEE7FEE7FEE7FEE777
:10016000FEE7FEE7E104000831010008064C074DF8
:1001700006E0E06840F0010394E807009847103477
:10018000AC42F6D3FFF7D8FF90060008B00600088F
:1001900000BFFEE770472DE9F0410246002500262A
:1001A000002000230024002791F803C00CF00F0565
:1001B00091F803C00CF0100CBCF1000F03D091F8C3
:1001C00002C04CEA050591F800C0BCF1000F31D027
:1001D000146800202BE04FF0010C0CFA00F3B1F88A
:1001E00000C00CEA03069E4220D183004FF00F0CA2
:1001F0000CFA03F7BC4305FA03FC4CEA040491F83B
:1002000003C0BCF1280F06D14FF0010C0CFA00FC22
:10021000C2F814C00AE091F803C0BCF1480F05D140
:100220004FF0010C0CFA00FCC2F810C0401C08286A
:10023000D1D31460B1F800C0BCF1FF0F34DD5468B5
:1002400000202EE000F1080C4FF0010808FA0CF332
:10025000B1F800C00CEA03069E4221D183004FF0A2
:100260000F0C0CFA03F7BC4305FA03FC4CEA040438
:1002700091F803C0BCF1280F05D100F1080C08FA71
:100280000CF8C2F8148091F803C0BCF1480F07D1F4
:1002900000F1080C4FF0010808FA0CF8C2F81080C1
:1002A000401C0828CED35460BDE8F0810AB101613A
:1002B00000E04161704700BFFEE7000008B5012182
:1002C000082000F023F801208DF8020010208DF89E
:1002D00003002020ADF8000069460948FFF75BFFE6
:1002E0000120ADF8000069460548FFF754FF0220E1
:1002F000ADF8000069460248FFF74DFF08BD000059
:10030000000C014000BFFEE77047704729B1064A64
:1003100092690243044B9A6104E0034A9269824362
:10032000014B9A617047000000100240704710B501
:1003300000F002F810BD00000CB500200190009004
:100340003348006840F480303149086000BF3048CD
:10035000006800F4003000900198401C0190009863
:1003600018B90198B0F5A06FF1D12948006800F4E0
:10037000003010B10120009001E0002000900098B2
:10038000012843D12348006840F01000214908604B
:100390000846006820F0030008600846006840F046
:1003A000020008601A4840681949486008464068D9
:1003B00048600846406840F48060486008464068ED
:1003C00020F47C1048600846406840F4E81048601B
:1003D0000846006840F08070086000BF0C48006864
:1003E00000F000700028F9D00948406820F00300B0
:1003F000074948600846406840F00200486000BF76
:100400000348406800F00C000828F9D10CBD00003A
:10041000001002400020024030B50146B1F1807F5B
:1004200001D3012030BD21F07F40401E4FF0E0227B
:10043000506150170F22002807DA13071D0E094BD1
:1004400000F00F04241F1D5503E013071C0E064B7C
:100450001C5400BF00204FF0E02290610720106183
:100460000020DFE718ED00E000E400E031B51048BF
:1004700000684FF47A71B0FBF1F52846FFF7CCFF26
:10048000002408E000BF4FF0E020006900F4803055
:100490000028F8D0641C00988442F3D34FF0E02089
:1004A000006920F001004FF0E021086138BD000034
:1004B0000000002010B500F043F810BD10B506484C
:1004C00000680649B0FBF1F42046FFF7A5FF08B12C
:1004D00000BFFEE710BD000000000020A086010064
:1004E00010B51348006840F0010011490860084643
:1004F0004068104908400E494860084600680E49A7
:1005000008400B4908600846006820F48020086015
:100510000846406820F4FE0048604FF41F008860E1
:10052000FFF705FF4FF000600449086010BD0000B0
:10053000001002400000FFF8FFFFF6FE08ED00E0AB
:100540000448006820B103480068401E0149086063
:10055000704700001400002000BFFEE702E008C85A
:10056000121F08C1002AFAD170477047002001E02D
:1005700001C1121F002AFBD170470000FFF79EFE49
:10058000FFF79CFF012220214048FFF78FFE012248
:1005900011463E48FFF78AFE012202213B48FFF741
:1005A00085FE71E0002220213848FFF77FFE0122FE
:1005B00011463648FFF77AFE012202213348FFF741
:1005C00075FE4FF4FA70FFF751FF002220212F48EB
:1005D000FFF76CFE002201212C48FFF767FE012285
:1005E00002212A48FFF762FE4FF4FA70FFF73EFF40
:1005F000012220212548FFF759FE012211462348F8
:10060000FFF754FE002202212048FFF74FFE4FF46F
:10061000FA70FFF72BFF012220211C48FFF746FE4E
:10062000002201211948FFF741FE0122022117484B
:10063000FFF73CFE4FF4FA70FFF718FF012220216C
:100640001248FFF733FE002201211048FFF72EFE6B
:10065000002202210D48FFF729FE4FF4FA70FFF740
:1006600005FF002220210948FFF720FE0122114644
:100670000648FFF71BFE002202210448FFF716FE82
:100680004FF4FA70FFF7F2FE8CE70000000C014017
:10069000B006000800000020180000005C050008FB
:1006A000C806000818000020000400006C050008BF
:1006B00000A24A0400000000000000000102030440
:0806C000060708090000000014
:0400000508000131BD
:00000001FF
