:020000040800F2
:100000007004002049010008A90800083B08000806
:10001000A50800080D0700080313000800000000F1
:10002000000000000000000000000000C10E0008F9
:100030001107000800000000AB08000801110008CB
:100040006301000863010008630100086301000800
:1000500063010008630100086301000863010008F0
:1000600063010008630100086301000863010008E0
:1000700063010008630100086301000863010008D0
:1000800063010008630100086301000863010008C0
:1000900063010008630100086301000863010008B0
:1000A00063010008630100086301000863010008A0
:1000B0006301000863010008630100086301000890
:1000C0006301000863010008630100086301000880
:1000D0006301000863010008630100086301000870
:1000E0006301000863010008630100086301000860
:1000F0006301000863010008630100086301000850
:10010000630100086301000863010008630100083F
:10011000630100086301000863010008630100082F
:10012000630100086301000863010008630100081F
:10013000DFF810D000F0B6FA00480047851C000830
:10014000AFF300807004002006488047064800474F
:10015000FEE7FEE7FEE7FEE7FEE7FEE7FEE7FEE777
:10016000FEE7FEE70511000831010008D2B201E008
:1001700000F8012B491EFBD270470022F6E710B5AC
:1001800013460A4604461946FFF7F0FF204610BD05
:100190002DE9FE4F804681EA0300C00F0C46009017
:1001A00021F0004123F00045B8EB0200A94105D23F
:1001B0004046214690461C460B46024623F000402E
:1001C000104347D0270DC7F30A00C3F30A5102902A
:1001D000401A019040286BDAC3F3130040F4801BEF
:1001E0000098924620B10023D2EB030A63EB0B0B7D
:1001F00001985946C0F14002504600F0C4F8064646
:100200000D4650465946019A00F0CCF810EB080014
:100210006141002487EA115284EAE7731A4340D00F
:10022000009A62B3019A012A4FEA075215DC001BBB
:1002300061EB02014FF0004202EA0752CDE90042B1
:10024000001C41F5801132462B4600F0CCF803B07B
:10025000BDE8F08F40462146F9E7001B61EB020143
:10026000001C41F5801300185B412018A2F500170F
:1002700047EB030140EAD570B6196D4111E06D08F6
:100280004FEA360645EAC0754FEA0752001B61EB9C
:100290000201001C41F5801149084FEA30000019A5
:1002A000514132462B4603B0BDE8F04F00F08CB808
:1002B0000098012240000023D0EB020263EBE073C0
:1002C000009821464FEAE074B8EB000061EB0401AE
:1002D000E9E783F000435BE781F0004158E70EB5A2
:1002E00040F2334102910021CDE900110A460B464C
:1002F00000F079F803B000BD30B50B460146002090
:100300002022012409E021FA02F59D4205D303FAD7
:1003100002F5491B04FA02F52844151EA2F1010258
:10032000F1DC30BD2DE9F05F0546002092469B468A
:1003300088460646814640241BE0284641464746FB
:10034000224600F0C1F953465A46C01A914110D3D3
:1003500011461846224600F016F82D1A67EB0108E0
:100360004F4622460120002100F00DF817EB00094E
:100370004E41201EA4F10104DFDC484631462A46E6
:100380004346BDE8F09F202A04DB203A00FA02F140
:10039000002070479140C2F1200320FA03F3194373
:1003A00090407047202A06DBCB17203A41FA02F032
:1003B00043EAE07306E041FA02F3D040C2F12002C2
:1003C000914008431946704710B5141E73F100049C
:1003D00008DA401C41F1000192185B411A4301D137
:1003E00020F0010010BD2DE9F04D92469B4611B161
:1003F000B1FA81F202E0B0FA80F220329046FFF7C3
:10040000C2FF04460F4640EA0A0041EA0B01534688
:100410005A46084313D0114653EA010019D0C8F1D7
:100420004002504600F050F905460E4650465946E7
:100430004246FFF7A8FF084305D0012004E020460C
:100440003946BDE8F08D0020054346EAE0762C43AE
:1004500037430A986305E40AA0EB08000022FD0A6E
:1004600044EA47540A3002D500200146E9E7010575
:1004700010196941DDE9084500196941BDE8F04DF1
:10048000A2E72DE9FE4F81EA030404F0004421F0C5
:10049000004100944FF0000B23F0004350EA0104A8
:1004A0005ED052EA03045BD0C3F30A54C1F30A5589
:1004B0002C44A4F2F3340194A0FB0254C1F31301C1
:1004C00041F48011C3F3130343F4801301FB02448E
:1004D00000FB034E840A970A44EA815447EA835793
:1004E000A4FB076802958D0A05FB07854FEA932C4C
:1004F00004FB0C542705029D4FEA065847EA1637BD
:10050000B5EB08056EEB070C870E920E47EA8117D4
:1005100042EA8312A7FB0201B6EB0B0164EB000475
:100520002B0D43EA0C335E1844EB1C50DA4651465F
:10053000E7FB0201C5F313044FEA0B3343EA1453FC
:100540004FEA0432019C43EA0603A4F10C0402942E
:10055000009CCDE900B4FFF746FF03B0BDE8F08F83
:1005600000200146F9E72DE9F04D81EA030404F08B
:10057000004B21F0004514464FF0000A23F00041E3
:1005800050EA050220D054EA01021DD0C5F30A57F3
:100590000246C5F31303C1F31300C1F30A5640F436
:1005A000801543F48013A7EB0608101BD64608F20B
:1005B000FD3873EB050002D308F1010801E0921841
:1005C0005B41B8F1000F03DA00200146BDE8F08D71
:1005D00000204FF48011064684460EE0171B73EB93
:1005E000050705D3121B63EB050306434CEA010C18
:1005F00049084FEA300092185B4150EA0107EDD1FB
:1006000052EA030012D082EA040083EA050108439B
:1006100005D0101BAB4106D20122002306E00022C8
:100620004FF0004302E06FF0010253101AEB060096
:100630004CEB085110EB0A0041EB0B01BDE8F04D0B
:10064000FFF7C2BEC1F30A52C1F3130140F2FF33F8
:1006500041F480119A4202DA00200146704740F2CC
:1006600033439A42A2F2334202DC524200F02CB8E9
:10067000FFF789BE30B5041E71F1000404DB4FF0B2
:100680000044404264EB0101141E73F1000405DBD9
:100690001C464FF00043524263EB0403994208BFEB
:1006A000904230BD064C074D06E0E06840F0010383
:1006B00094E8070098471034AC42F6D3FFF73CFDAE
:1006C000C0210008E0210008202A04DB203A21FA9A
:1006D00002F00021704721FA02F3D040C2F120025B
:1006E000914008431946704710B5034607E0187853
:1006F0000C78A04201D0002010BD5B1C491C101ECC
:10070000A2F10104A2B2F2D10120F5E700BFFEE799
:1007100070472DE9F0410246002500260020002305
:100720000024002791F803C00CF00F0591F803C0D6
:100730000CF0100CBCF1000F03D091F802C04CEA91
:10074000050591F800C0BCF1000F31D014680020FD
:100750002BE04FF0010C0CFA00F3B1F800C00CEAEA
:1007600003069E4220D183004FF00F0C0CFA03F7D2
:10077000BC4305FA03FC4CEA040491F803C0BCF145
:10078000280F06D14FF0010C0CFA00FCC2F814C07F
:100790000AE091F803C0BCF1480F05D14FF0010CFD
:1007A0000CFA00FCC2F810C0401C0828D1D3146019
:1007B000B1F800C0BCF1FF0F34DD546800202EE01A
:1007C00000F1080C4FF0010808FA0CF3B1F800C072
:1007D0000CEA03069E4221D183004FF00F0C0CFA65
:1007E00003F7BC4305FA03FC4CEA040491F803C088
:1007F000BCF1280F05D100F1080C08FA0CF8C2F87A
:10080000148091F803C0BCF1480F07D100F1080C27
:100810004FF0010808FA0CF8C2F81080401C0828B4
:10082000CED35460BDE8F0814161704701617047EB
:100830000AB1016100E04161704700BFFEE70000BE
:1008400008B50121082000F031F801208DF80200E0
:1008500010208DF803002020ADF8000069461048F4
:10086000FFF757FF0120ADF8000069460C48FFF77D
:1008700050FF0220ADF8000069460948FFF749FF24
:10088000012220210648FFF7D3FF01221146044828
:10089000FFF7CEFF012202210148FFF7C9FF08BD83
:1008A000000C014000BFFEE77047704729B1064ABF
:1008B00092690243044B9A6104E0034A92698243BD
:1008C000014B9A61704700000010024030B50021D2
:1008D0000022002400232D4D6D6805F00C0121B18C
:1008E000042905D0082923D105E0294D056022E01F
:1008F000274D05601FE0254D6D6805F47012234DEE
:100900006D6805F48034022505EB92421CB9214D37
:10091000554305600BE01D4D6D6805F400351DB1B4
:100920001C4D5543056002E0194D5543056002E03A
:10093000174D056000BF00BF144D6D6805F0F00154
:100940000909154D6B5C0568DD4045600F4D6D680C
:1009500005F4E061090A104D6B5C4568DD40856077
:100960000A4D6D6805F46051C90A0B4D6B5C456812
:10097000DD40C560054D6D6805F44041890B074DAC
:100980006B5CC568B5FBF3F5056130BD0010024036
:1009900000127A0000093D00000000201000002035
:1009A00021B1028842F04002028004E002884FF642
:1009B000BF731A400280704770B505460C46164654
:1009C00001211048FFF730FF032000F0C7F9C4F3FE
:1009D000074000F0C3F9C4F3072000F0BFF9E0B20C
:1009E00000F0BCF904E0FF2000F0B8F928706D1C9D
:1009F000301EA6F101018EB2F5D101210148FFF7A9
:100A000015FF70BD001001402DE9F05F07460E464E
:100A100014464FF00008C146C2460025AB4606F01A
:100A2000FF0ACAF10000C5B22046E11704EB1161CC
:100A3000C1F30728E11704EB11610912A4EB0121AE
:100A400001F0FF09BAF1000F20D1B8F1000F05D174
:100A500022463146384600F0CBF864E009E04FF416
:100A600080723146384600F0C3F806F5807607F507
:100A70008077B8F10000A8F1010101F0FF08EED184
:100A80004A463146384600F0B3F84CE0B8F1000F62
:100A900018D1A94510DDA9EB050000F0FF0B2A468F
:100AA0003146384600F0A4F82E442F445A463146C9
:100AB000384600F09DF836E022463146384600F0D0
:100AC00097F830E0601B84B22046E11704EB116117
:100AD000C1F30728E11704EB11610912A4EB01210E
:100AE00001F0FF092A463146384600F081F82E44CD
:100AF0002F4409E04FF480723146384600F078F810
:100B000006F5807607F58077B8F10000A8F10101BD
:100B100001F0FF08EED1B9F1000F04D04A4631468A
:100B2000384600F065F8BDE8F09F000000B587B0DA
:100B300001210803FFF7BAFE01211420FFF7B6FEDA
:100B40000120ADF8040003208DF8060010208DF878
:100B5000070001A92348FFF7DCFD2020ADF80400C1
:100B600018208DF8070001A91F48FFF7D2FD80204B
:100B7000ADF8040001A91C48FFF7CBFD4020ADF8FB
:100B8000040004208DF8070001A91748FFF7C1FDF4
:100B900001211448FFF74AFE0020ADF808004FF489
:100BA0008270ADF80A000020ADF80C000220ADF80C
:100BB0000E000120ADF810004002ADF81200082030
:100BC000ADF814000020ADF816000720ADF81800AD
:100BD00002A9064800F036F901210448FFF7E0FEBB
:100BE00007B000BD00100140000801400030014086
:100BF00070B505460C46164600F006F90121154869
:100C0000FFF712FE022000F0A9F8C4F3074000F03D
:100C1000A5F8C4F3072000F0A1F8E0B200F09EF8B8
:100C2000B6F5807F04DD4FF480760BA000F090FBDA
:100C300003E0287800F092F86D1C301EA6F1010147
:100C40008EB2F6D101210348FFF7F0FD00F0C2F8A3
:100C500070BD0000001001403C3C2D464C41534803
:100C60002D4552524F522D3E3E205350495F464C27
:100C70004153485F50616765577269746520746FAE
:100C80006F206C61726765210A0000002DE9F04158
:100C9000002400250026002701210F48FFF7C4FD8E
:100CA0009F2000F05BF8FF2000F058F80546FF2079
:100CB00000F054F80646FF2000F050F807460121E6
:100CC0000548FFF7B3FD280440EA062040EA070480
:100CD0002046BDE8F08100000010014010B500245E
:100CE00001210C48FFF7A0FDAB2000F037F8FF20F2
:100CF00000F034F8FF2000F031F8FF2000F02EF86B
:100D0000FF2000F02BF8044601210248FFF78EFD7A
:100D1000204610BD0010014070B505460C4600F09D
:100D200073F800F057F801210B48FFF77DFD2846C6
:100D300000F014F8C4F3074000F010F8C4F30720E3
:100D400000F00CF8E0B200F009F801210248FFF7CA
:100D50006DFD00F03FF870BD0010014010B5044675
:100D60004FF48030194908600AE018490868411EAC
:100D7000164A116020B9002000F082F8C0B210BD00
:100D80000221134800F050F80028EED02146104808
:100D900000F056F84FF480300C4908600AE00B4927
:100DA0000868411E094A116020B9012000F068F866
:100DB000C0B2E4E70121064800F036F80028EED082
:100DC000034800F03AF8C0B2D9E700004000002024
:100DD0000030014010B5002401210A48FFF724FD2E
:100DE0000520FFF7BBFF00BFFF20FFF7B7FF04465A
:100DF00004F001000028F7D101210248FFF716FD99
:100E000010BD00000010014010B501210548FFF79A
:100E10000BFD0620FFF7A2FF01210248FFF706FDA8
:100E200010BD0000001001400246002013890B4055
:100E30000BB1012000E0002070470146888970470F
:100E40008181704710B50022028802F441520B885C
:100E50004C8823438C882343CC8823430C89234329
:100E60004C8923438C892343CC8923431A43028032
:100E7000838B4FF2FF74234083830B8A038210BD60
:100E800010B50446214602A000F062FA002010BD11
:100E90003C3C2D464C4153482D4552524F522D3E1D
:100EA0003E2053504920B5C8B4FDB3ACCAB121654A
:100EB00072726F72436F6465203D2025640A0000E2
:100EC000704710B500F002F810BD00000CB500200E
:100ED000019000903348006840F480303149086048
:100EE00000BF3048006800F4003000900198401CBA
:100EF0000190009818B90198B0F5A06FF1D1294878
:100F0000006800F4003010B10120009001E00020E2
:100F100000900098012843D12348006840F0100059
:100F2000214908600846006820F003000860084670
:100F3000006840F0020008601A484068194948609B
:100F40000846406848600846406840F48060486051
:100F50000846406820F47C1048600846406840F429
:100F6000E81048600846006840F08070086000BFE4
:100F70000C48006800F000700028F9D0094840686B
:100F800020F00300074948600846406840F002002E
:100F9000486000BF0348406800F00C000828F9D101
:100FA0000CBD0000001002400020024010B54FF4BC
:100FB000E1310FA000F0CCF912A000F0C9F918A09F
:100FC00000F0C6F91DA000F0C3F923A000F0C0F99D
:100FD00028A000F0BDF92EA000F0BAF933A000F06F
:100FE000B7F939A000F0B4F93EA000F0B1F910BD96
:100FF00020205553415254A3BA256420382D4E2D3C
:1010000031200A00202020434D442020202D2D2D6A
:101010002D2D2D202020205247422020200A000084
:101020002020202031202020202D2D2D2D2D2D2061
:101030002020205245442020200A0000202020208B
:1010400032202020202D2D2D2D2D2D2020204752E7
:1010500045454E20200A000020202020332020205B
:10106000202D2D2D2D2D2D20202020424C5545208A
:10107000200A00002020202034202020202D2D2D8B
:101080002D2D2D20202059454C4C4F57200A000073
:101090002020202035202020202D2D2D2D2D2D20ED
:1010A0002020505552504C45200A0000202020207E
:1010B00036202020202D2D2D2D2D2D2020202043A9
:1010C00059414E20200A00002020202037202020D7
:1010D000202D2D2D2D2D2D202020574849544520E1
:1010E000200A00002020202038202020202D2D2D17
:1010F0002D2D2D2020205247424F4646200A000029
:101100007047000010B51348006840F00100114915
:10111000086008464068104908400E494860084683
:1011200000680E4908400B4908600846006820F432
:10113000802008600846406820F4FE0048604FF4B4
:101140001F008860FFF7BDFE4FF000600449086093
:1011500010BD0000001002400000FFF8FFFFF6FE87
:1011600008ED00E021B1828942F40052828104E05E
:1011700082894DF6FF731A408281704700B585B0B1
:1011800001210420FFF792FB01218803FFF78EFB6A
:101190004FF40070ADF8100018208DF813000320F4
:1011A0008DF8120004A91348FFF7B3FA4FF48060DA
:1011B000ADF8100004208DF8130004A90D48FFF7C6
:1011C000A8FA4FF4E13000900020ADF80400ADF82B
:1011D0000600ADF80800ADF80C000C20ADF80A00D0
:1011E0006946054800F018F801210348FFF7BAFFE7
:1011F00005B000BD00080140003801400246002053
:10120000B1F5007F00D100BF13880B400BB1012066
:1012100000E00020704700002DE9F04786B0054649
:101220000E460024A24600BFA1460027B08900B1A7
:1012300000BF2F462C8A4CF6FF700440F088044310
:101240002C82AC894EF6F3100440B08831890843F3
:10125000718908430443AC81AC8A4FF6FF400440D7
:10126000B0890443AC8201A8FFF730FB1F488742D6
:1012700002D1DDF810A001E0DDF80CA0A88900F48F
:10128000004040B10AEBCA0000EB0A103168490087
:10129000B0FBF1F807E00AEBCA0000EB0A10316876
:1012A0008900B0FBF1F86420B8FBF0F004012009DC
:1012B000642101FB1089A88900F4004040B132206C
:1012C00000EBC900B0FBF1F000F00700044308E0B8
:1012D000322000EB09106421B0FBF1F000F00F00A8
:1012E00004432C8106B0BDE8F087000000380140BF
:1012F00001468888C0F308007047C1F30802828065
:10130000704700BFFEE770B504460D4629462046EB
:10131000FFF7F3FF00BF80212046FFF76FFF002893
:10132000F9D070BD70B506460C46002500BF615D62
:101330003046FFF7E8FF6D1C605D0028F7D100BF65
:1013400080213046FFF75AFF0028F9D070BD000019
:101350000FB4054B10B503A9044A029800F0DAF85F
:1013600010BC5DF814FB00005D1C00084800002064
:1013700002E008C8121F08C1002AFAD1704770475E
:10138000002001E001C1121F002AFBD170470000BC
:101390002DE9FF5F82B00021DDE90430020DDDF8A8
:1013A00040B0034318D044F61050A2F2FF3242433B
:1013B0001514119801281FD0A5EB0B00401C5FEA03
:1013C000000A4FF000064E4FDFF83891B046504605
:1013D00015D5CAF1000413E0119801244AA301288D
:1013E00001D16FEA0B010298119AC0E90031C0E9FE
:1013F000024206B0BDE8F09FCBF10000DFE70446F3
:101400000021404A491842EB0450CDE9001012E097
:10141000E00707D032463B4640464946FFF731F8E1
:101420008046894632463B4610461946FFF729F862
:1014300006460F466410002CEAD1DDE90401DDE91F
:101440000023BAF1000F06DAFFF71BF842464B46BD
:10145000FFF717F805E0FFF786F842464B46FFF71F
:1014600082F804460E460022284BFFF703F903D802
:101470004FF0FF30014607E00022254B2046314661
:10148000FEF786FEFFF7DEF8102409E0002C0ADBE9
:101490000A220023FEF746FF039B30321A55641ED2
:1014A00050EA0102F2D1641C039AC4F111031444FE
:1014B000119A012A03D0012208430DD10AE0084302
:1014C00004D000204FF0110B119072E7A3EB0B0535
:1014D0006D1E0DE05B4504DD4FF0000205F10105D6
:1014E00004E003DA4FF00002A5F10105002AECD078
:1014F00002981199C0E90231C0E9004579E700007E
:10150000000014400000F03F300000000000F043F5
:101510000000E03F2DE9FF4F95B09A468846064609
:101520000025EEE1252877D100242746F94A01213C
:10153000039400E0044316F8013F203B01FA03F056
:101540001042F7D130782A2811D06FF02F0330786D
:10155000A0F13002092A16D8039A44F0020402EBE3
:10156000820203EB42021044761C0390EFE758F826
:10157000042B0392002A03DA504244F400540390EF
:1015800044F00204761C30782E2816D116F8010F8C
:1015900044F004042A280DD06FF02F023078A0F117
:1015A0003003092B09D807EB870302EB4303C71865
:1015B000761CF3E758F8047B761C30786C280FD043
:1015C00006DC4C2817D068280DD06A2814D104E016
:1015D000742810D07A280FD10DE044F400140AE0EA
:1015E00044F4801401E044F440147278824202D141
:1015F00004F58014761C761C307866280BD013DC3A
:10160000582877D009DC002875D04528F6D0462820
:10161000F4D047281AD193E118E0632835D0642824
:1016200079D0652812D18BE1702873D008DC672847
:10163000F1D069286FD06E280DD06F2806D1ACE0AC
:1016400073282CD0752874D0782853D05246179917
:1016500090476D1C54E1C4F30250022809D00328BE
:101660000DD0D8F8001004280DD00D6008F1040842
:1016700046E1D8F80010EA17C1E90052F6E7D8F8B9
:1016800000100D80F2E70D70F0E718F8041B8DF8DC
:10169000001000208DF80100EB46012003E058F80F
:1016A00004BB4FF0FF3061074FF0000102D40DE0A2
:1016B00009F101018946B9420FDA8145F8DB1BF8CF
:1016C00009100029F4D108E009F10101894681429D
:1016D000FADB1BF809100029F6D103985346A0EB5A
:1016E000090721463846179A00F080FA284400EB93
:1016F000090507E044E008E10DE01BF8010B524644
:1017000017999047B9F10109F7D253462146384657
:10171000179AF2E039E00A21C4F302524FF0000BAD
:101720000091022A06D058F8040BC117032A09D0E9
:101730000AE023E008F1070020F00702F2E80201C6
:10174000904605E000B2C117042A01D140B2C1178A
:10175000002906DA0A460021404261EB02012D22EF
:1017600002E0220504D52B228DF80420012203E09B
:10177000E20701D02022F7E7914657E00A2100E076
:1017800010214FF0000B00910BE010214FF0000BE7
:1017900044F004040827009103E008204FF0000BF8
:1017A0000090C4F30252022A05D058F8040B00211D
:1017B000032A08D008E008F1070020F00702F2E849
:1017C0000201904603E080B2042A00D1C0B24FF07B
:1017D000000922072AD53278702A07D0DDF800C028
:1017E0008CF0100C5CEA0B0C05D00EE040228DF85A
:1017F0000420012208E050EA010306D030238DF8CE
:1018000004308DF8052002229146009B83F00803E6
:1018100053EA0B030AD150EA010201D1620705D550
:1018200030228DF804204FF001097F1E3278582AAB
:1018300004D039A20C920CAA02920BE03BA2F9E769
:101840005B46009AFEF76EFD0C9B9B5C029A521E53
:101850000292137050EA0102F2D1029804A9081A08
:1018600000F1200B600702D524F4803400E001274A
:101870005F4502DDA7EB0B0000E0002000EB0B0151
:10188000009003984944401A0390E00306D453465D
:101890002146179A039800F0A9F90544002706E0AD
:1018A00001A85246C05D179990476D1C7F1C4F459B
:1018B000F6DBE0030CD553462146179A039800F057
:1018C00095F9054404E030205246179990476D1C65
:1018D0000099481E00900029F5DC08E00298029962
:1018E00052460078491C0291179990476D1CBBF134
:1018F0000001ABF1010BF1DC5BE100F065F905449F
:10190000761C307800287FF40DAE19B02846BDE86B
:10191000F08F00000928010030313233343536377A
:10192000383961626364656600000000303132332B
:1019300034353637383941424344454600000000CB
:10194000600700D4062708F1070020F00700F0E840
:101950000223804603F0004C5FEA0C0001D097A000
:1019600009E0200501D596A005E0E00701D095A08B
:1019700001E0AFF24C001390307823F0004365286B
:101980000CD006DC452809D046281DD047287FD139
:101990003BE0662818D067287AD136E00021112F65
:1019A00001DB112000E0781CCDE9000104A90CA89E
:1019B000FFF7EEFCDDE90D010C9A4FF0000B07F18B
:1019C0000109109200914EE04FF000400097CDE9E0
:1019D000011004A90CA8FFF7DBFCDDE90D020C9B4C
:1019E0000F994FF0000B91461093009211B9791C9A
:1019F00000EB0109B7EB090003D4C0F1FF3B07F18D
:101A00000109A9EB0700019042E0012F00DA01274C
:101A10000021112F01DD112000E03846CDE9000141
:101A200004A90CA8FFF7B4FCDDE90D010C9A0091A4
:101A30004FF0000BB946109221070FD4009A4A4587
:101A400003DA914601E0A9F10109B9F1010F05DDC1
:101A5000109AA9F10101515C3029F4D0B84202DAA0
:101A600010F1040F03DA0121CDE9011010E0002884
:101A700003DC8344A9EB000102E0411C494500DD81
:101A80008946A0EB0B00401C01904FF000400290F3
:101A9000200705D40198484502DB4FF0FF30019044
:101AA00000208DF84B0002980DF14B07B0F1004F6C
:101AB00025D002200C902B200D90029800280CDAE3
:101AC000404202902D200D9007E00A210298FEF777
:101AD00013FC3031029007F8011D0C99481E0C9040
:101AE0000029F2DC02980028EFD1791E0D980870C9
:101AF000307800F0200040F0450007F8020D11A8F2
:101B0000C01BC01D02901398007800B1012000EBAB
:101B10000901019801EBE071029801440398401A11
:101B2000401E0390E00306D453462146179A0398BB
:101B300000F05CF805441398007818B152461799E4
:101B400090476D1CE00323D553462146179A03980E
:101B500000F04CF805441BE0BBF1000F07DB0098D8
:101B6000584504DD1098179910F80B0001E01799FB
:101B700030205246904701980BF1010B401E05F1B1
:101B80000105019004D12E205246179990476D1CF3
:101B9000B9F10001A9F10109DEDC05E017F8010B3C
:101BA0005246179990476D1C0299481E02900029D1
:101BB000F4DC53462146179A03989EE62D00000058
:101BC0002B000000200000002DE9F0410446002514
:101BD0001E461746880404D405E039462020B04745
:101BE0006D1C641EF9D52846BDE8F0812DE9F04151
:101BF000044600251E469046C80301D5302700E064
:101C00002027880404D505E041463846B0476D1CBE
:101C1000641EF9D52846BDE8F081002107E042F6B0
:101C2000E06100BF0A1EA1F1010399B2FAD1021EC0
:101C3000A0F1010398B2F2D17047000010B504463C
:101C400000BF20210448FFF7D9FA0028F9D0024844
:101C5000FFF74EFB10BD00000038014070B5044690
:101C60000D46E1B20548FFF748FB00BF802103485D
:101C7000FFF7C4FA0028F9D0204670BD00380140B3
:101C8000FFF7DCBF96B030210AA8FEF776FAD449F8
:101C900003C9CDE908011C2101A8FEF76EFAFEF781
:101CA000CFFD01222021CF48FEF7C2FD01221146BF
:101CB000CC48FEF7BDFD00220221CA48FEF7B8FD60
:101CC000FFF75CFAFEF732FFC7A1CB48FFF72AFB0C
:101CD000CAA0FFF73DFBFEF7D9FFCC4908600A20F8
:101CE000FFF79BFFFEF7FAFFC94908700846027824
:101CF000C6480168C7A0FFF72BFBC4480068D2495B
:101D0000884274D1D1A0FFF723FB00212020FFF7E8
:101D100003F820220021D548FEF776FED349D4A04F
:101D2000FFF716FB20220021D748FEF745FED649D3
:101D3000D6A0FFF70DFB2022D349CC48FEF7D4FCF8
:101D4000D849087008460078012812D101222021C4
:101D5000A448FEF76DFD00220121A248FEF768FDB0
:101D6000012202219F48FEF763FDCFA0FFF7F0FAA2
:101D700011E0002220219B48FEF75AFD0122114666
:101D80009848FEF755FD012202219648FEF750FDC6
:101D9000CEA0FFF7DDFAD6A0FFF7DAFA002417E0AD
:101DA0002046FEF79CFA0646D84AD94BFEF7F0F9D2
:101DB00008AA02EBC40203C204EB4400C0EBC41047
:101DC000012101EB800001A941F82400601CC4B28C
:101DD000072CE5DB38224FF4807108A8FEF714FECB
:101DE0001C224FF4007101A8FEF70EFE00E04BE04C
:101DF000C8A0FFF7ADFA002410E008A800EBC4006B
:101E0000D0E900633246C9A0FFF7A2FA01A850F852
:101E10002410CAA0FFF79CFA601CC4B2072CECDBAC
:101E200000240AE0002008AA02EBC40210605060FF
:101E300001A941F82400601CC4B2072CF2DB38224F
:101E40004FF4807108A8FEF7B7FD1C224FF4007113
:101E500001A8FEF7B1FDBDA0FFF77AFA002410E05B
:101E600008A800EBC401D1E900633246BDA0FFF72A
:101E70006FFA01A850F82410BFA0FFF769FA601CA0
:101E8000C4B2072CECDB11E0002220215548FEF7FC
:101E9000CFFC012211465348FEF7CAFC0122022161
:101EA0005048FEF7C5FCB8A0FFF752FA96E0BD48CF
:101EB000FFF7E6FEC5B22946BBA0FFF749FAA5F138
:101EC0003100082875D2DFE800F0041424344454AB
:101ED0006475002220214348FEF7AAFC0122114626
:101EE0004048FEF7A5FC012202213E48FEF7A0FC77
:101EF00073E0012220213B48FEF79AFC00220121D9
:101F00003848FEF795FC012202213648FEF790FC86
:101F100063E0012220213348FEF78AFC01221146AA
:101F20003048FEF785FC002202212E48FEF780FC97
:101F300053E0002220212B48FEF77AFC00220121E9
:101F40002848FEF775FC012202212648FEF770FCA6
:101F500043E0002220212348FEF76AFC01221146BB
:101F60002048FEF765FC002202211E48FEF760FCB7
:101F700033E0012220211B48FEF75AFC00220121F8
:101F80001848FEF755FC002202211648FEF750FCC7
:101F900023E0002220211348FEF74AFC0022012101
:101FA0001048FEF745FC002202210E48FEF740FCD7
:101FB00013E00FE0012220210A48FEF739FC01223C
:101FC00011460848FEF734FC012202210548FEF7BD
:101FD0002FFC02E0FEF7EAFF00BF00BF67E700004A
:101FE000B8210008000C01400A2048656C6C6F2085
:101FF00053544D3332210A00003801400A207374D3
:102000006D3332B8F8D2AFC5C00A000038000020E6
:10201000350000200D0A204A4544454349442069C3
:102020007320307825582C4D616E75666163747528
:10203000726572204465766963652049442069733E
:1020400020307825580D0A001740EF000D0A20BCFB
:10205000ECB2E2B5BDB4AED0D0666C617368205707
:10206000323551363420210D0A00000014000020C2
:102070000D0A20D0B4C8EBB5C4CAFDBEDDCEAAA3FC
:10208000BA2573200D0A00004C0000200D0A20B66E
:10209000C1B3F6B5C4CAFDBEDDCEAAA3BA2573206E
:1020A0000D0A00003C0000200D0A20384DB4AED0CF
:1020B000D0666C6173682857323551363429B2E2E4
:1020C000CAD4B3C9B9A6210A0D0000000D0A2038F0
:1020D0004DB4AED0D0666C61736828573235513636
:1020E0003429B2E2CAD4CAA7B0DC210A0D0000002C
:1020F0002D2D2DBDF8D0D0D0A1CAFDD0B4C8EBCACB
:10210000B5D1E92D2D2D0D0A000000009A9999995D
:102110009999B93F0D0ACFF2D0BEC6ACD0B4C8EB86
:10212000CAFDBEDDA3BA0D0A00000000D0A1CAFDA1
:102130007478203D20254C460D0A0000D5FBCAFDD1
:102140007478203D2025640D0A0000000D0AB4D3E8
:10215000D0BEC6ACB6C1B5BDCAFDBEDDA3BA0D0AC0
:1021600000000000D0A1CAFD207278203D20254C3F
:1021700046200D0A00000000D5FBCAFD2072782021
:102180003D202564200D0A000D0A20BBF1C8A1B234
:10219000BBB5BD20573235513634204944210A0D94
:1021A000000000004400002052656365697665A365
:1021B000BA25630A000000000000000000000000D3
:1021C000E0210008000000204C000000701300080F
:1021D0002C2200084C00002024040000801300087A
:1021E00000000000010203040102030406070809BD
:1021F00002040608C4E3BAC32CCED2CAC74B656C2E
:1022000065652CD2B0BBF073746D3332D6B8C4CFD1
:10221000D5DFA1A3000000000000000000000000C6
:0C222000000001000000000000000000B1
:0400000508000131BD
:00000001FF
