:020000040800F2
:10000000180400204901000859070008810500086C
:100010005507000833020008350B000800000000F7
:10002000000000000000000000000000510800086F
:1000300037020008000000005B0700083D090008C7
:100040006301000863010008630100086301000800
:1000500063010008630100086301000863010008F0
:1000600063010008630100086301000863010008E0
:1000700063010008630100086301000863010008D0
:1000800063010008630100086301000863010008C0
:1000900063010008630100086301000863010008B0
:1000A00063010008630100086301000863010008A0
:1000B0006301000863010008630100086301000890
:1000C0006301000863010008630100086301000880
:1000D0006301000863010008630100086301000870
:1000E0006301000863010008630100086301000860
:1000F0006301000863010008630100086301000850
:10010000630100086301000863010008630100083F
:10011000630100086301000863010008630100082F
:10012000630100086301000863010008630100081F
:10013000DFF810D000F04CF8004800471912000812
:10014000AFF30080180400200648804706480047A7
:10015000FEE7FEE7FEE7FEE7FEE7FEE7FEE7FEE777
:10016000FEE7FEE741090008310100082DE9F05FD4
:100170000546002092469B46884606468146402416
:100180001BE0284641464746224600F042F85346C7
:100190005A46C01A914110D311461846224600F023
:1001A00029F82D1A67EB01084F462246012000214D
:1001B00000F020F817EB00094E41201EA4F10104C5
:1001C000DFDC484631462A464346BDE8F09F000042
:1001D000064C074D06E0E06840F0010394E8070094
:1001E00098471034AC42F6D3FFF7A6FFC4120008BC
:1001F000E4120008202A04DB203A00FA02F1002071
:1002000070479140C2F1200320FA03F31943904054
:100210007047202A04DB203A21FA02F000217047BF
:1002200021FA02F3D040C2F120029140084319465E
:10023000704700BFFEE7704710B5642400BF00F0B0
:10024000A5FFA12000F078FF601E84B214B907203A
:1002500000F02EFA00F0C2FF0028F0D100F0AEFF4F
:10026000012010BD10B5C0B000F014FA20B90FA0E5
:1002700000F086FC40B010BD002404E0FF200DF823
:100280000400601C84B2FF2CF8DD4FF48072002162
:10029000684600F0B8F918B90AA000F071FCE9E767
:1002A0000DA000F06DFC00BFE4E70000C3BBD3D09D
:1002B000BCECB2E2B5BDB4AED0D0454550524F4DC6
:1002C000210D0A00B2C1B3FD656570726F6DB3F6A2
:1002D000B4EDA3A10D0A0000B2C1B3FD6565707253
:1002E0006F6DB3C9B9A6A3A10D0A000010B5ADF595
:1002F000007D00F0CFF930B92AA000F041FC0020C9
:100300000DF5007D10BD002403E040A90C55601CD4
:1003100084B2FF2CF9DD4FF48072002140A800F078
:1003200072F920B925A000F02BFC0020E8E728A0F6
:1003300000F026FCFFF780FF4FF480720021684632
:1003400000F020F920B927A000F01AFC0020D7E720
:1003500029A000F015FC00241DE01DF8040040A9B0
:10036000095D884209D01DF804102AA000F008FC9D
:100370002AA000F005FC0020C2E71DF8041030A000
:1003800000F0FEFB04F00F000F2802D120A000F0C7
:10039000F7FB601C84B2FF2CDFDD2BA000F0F0FB2C
:1003A0000120ADE7C3BBD3D0BCECB2E2B5BDB4AE67
:1003B000D0D0454550524F4D210D0A00D0B465654F
:1003C00070726F6DB3F6B4EDA3A10D0A00000000CA
:1003D000D0B4656570726F6DB3C9B9A6A3A10D0ADB
:1003E00000000000B6C1656570726F6DB3F6B4EDC4
:1003F000A3A10D0A00000000B6C1656570726F6DA3
:10040000B3C9B9A6A3ACCAFDBEDDC8E7CFC2A3BAC3
:100410000D0A00003078253032582000B4EDCEF3BC
:100420003A454550524F4DB6C1B3F6D3EBD0B4C8A0
:10043000EBB5C4CAFDBEDDB2BBD2BBD6C200000064
:100440002025303258000000656570726F6DB6C1AE
:10045000D0B4B2E2CAD4B3C9B9A60D0A00000000F4
:100460002DE9F0410246002500260020002300244B
:10047000002791F803C00CF00F0591F803C00CF0B1
:10048000100CBCF1000F03D091F802C04CEA050536
:1004900091F800C0BCF1000F31D0146800202BE0AF
:1004A0004FF0010C0CFA00F3B1F800C00CEA03069F
:1004B0009E4220D183004FF00F0C0CFA03F7BC438F
:1004C00005FA03FC4CEA040491F803C0BCF1280FC0
:1004D00006D14FF0010C0CFA00FCC2F814C00AE07F
:1004E00091F803C0BCF1480F05D14FF0010C0CFA94
:1004F00000FCC2F810C0401C0828D1D31460B1F829
:1005000000C0BCF1FF0F34DD546800202EE000F184
:10051000080C4FF0010808FA0CF3B1F800C00CEA1F
:1005200003069E4221D183004FF00F0C0CFA03F713
:10053000BC4305FA03FC4CEA040491F803C0BCF187
:10054000280F05D100F1080C08FA0CF8C2F8148045
:1005500091F803C0BCF1480F07D100F1080C4FF02F
:10056000010808FA0CF8C2F81080401C0828CED305
:100570005460BDE8F0810AB1016100E0416170475B
:1005800000BFFEE72DE9F04106460F46154600F094
:10059000FDFDA02000F0D0FD00F020FE18B10120EC
:1005A00000F086F82BE0F8B200F0C6FD00F016FE71
:1005B00018B1022000F07CF821E000F0E7FDA12056
:1005C00000F0BAFD00F00AFE18B1032000F070F848
:1005D00015E000240CE000F08DFD3055681EA042AF
:1005E00002D000F02BFD01E000F070FD601C84B231
:1005F000AC42F0DB00F0E2FD0120BDE8F08100F04C
:10060000DDFD0020F9E72DE9F047074688469146D1
:100610004646002433E014B106F0070008BB00F0A2
:10062000CDFD00250AE000F0B1FDA02000F084FD22
:1006300000F0D4FD00B903E0681C85B2642DF2DB44
:1006400000BF642D03D1042000F032F81EE0F0B2A8
:1006500000F072FD00F0C2FD18B1052000F028F88E
:1006600014E0385D00F068FD00F0B8FD18B1062018
:1006700000F01EF80AE0701C86B2601C84B24C4583
:10068000C9DB00F09BFD0120BDE8F08700F096FD7E
:100690000020F9E710B5A02000F0E8FC08B901201F
:1006A00010BD002000F004F800F088FD0020F7E7FE
:1006B00010B50446214602A000F062FA002010BDE9
:1006C0003C3C2D454550524F4D2D4552524F522DD9
:1006D0003E3E20493243B5C8B4FDB3ACCAB1216532
:1006E00072726F72436F6465203D2025640A0000BA
:1006F00008B50121082000F031F801208DF8020032
:1007000010208DF803002020ADF800006946104845
:10071000FFF7A6FE0120ADF8000069460C48FFF780
:100720009FFE0220ADF8000069460948FFF798FED9
:10073000012220210648FFF71EFF0122114604482E
:10074000FFF719FF012202210148FFF714FF08BD3E
:10075000000C014000BFFEE77047704729B1064A10
:1007600092690243044B9A6104E0034A926982430E
:10077000014B9A61704700000010024030B5002123
:100780000022002400232D4D6D6805F00C0121B1DD
:10079000042905D0082923D105E0294D056022E070
:1007A000274D05601FE0254D6D6805F47012234D3F
:1007B0006D6805F48034022505EB92421CB9214D89
:1007C000554305600BE01D4D6D6805F400351DB106
:1007D0001C4D5543056002E0194D5543056002E08C
:1007E000174D056000BF00BF144D6D6805F0F001A6
:1007F0000909154D6B5C0568DD4045600F4D6D685E
:1008000005F4E061090A104D6B5C4568DD408560C8
:100810000A4D6D6805F46051C90A0B4D6B5C456863
:10082000DD40C560054D6D6805F44041890B074DFD
:100830006B5CC568B5FBF3F5056130BD0010024087
:1008400000127A0000093D00000000201000002086
:10085000704710B500F002F810BD00000CB5002084
:10086000019000903348006840F4803031490860BE
:1008700000BF3048006800F4003000900198401C30
:100880000190009818B90198B0F5A06FF1D12948EE
:10089000006800F4003010B10120009001E0002059
:1008A00000900098012843D12348006840F01000D0
:1008B000214908600846006820F0030008600846E7
:1008C000006840F0020008601A4840681949486012
:1008D0000846406848600846406840F480604860C8
:1008E0000846406820F47C1048600846406840F4A0
:1008F000E81048600846006840F08070086000BF5B
:100900000C48006800F000700028F9D009484068E1
:1009100020F00300074948600846406840F00200A4
:10092000486000BF0348406800F00C000828F9D177
:100930000CBD000000100240002002407047000083
:1009400010B51348006840F00100114908600846DE
:100950004068104908400E494860084600680E4942
:1009600008400B4908600846006820F480200860B1
:100970000846406820F4FE0048604FF41F0088607D
:10098000FFF767FF4FF000600449086010BD0000EA
:10099000001002400000FFF8FFFFF6FE08ED00E047
:1009A00021B1828942F40052828104E082894DF6AD
:1009B000FF731A408281704700B585B00121042081
:1009C000FFF7CCFE01218803FFF7C8FE4FF400704B
:1009D000ADF8100018208DF8130003208DF81200D8
:1009E00004A91348FFF73CFD4FF48060ADF81000F8
:1009F00004208DF8130004A90D48FFF731FD4FF4D2
:100A0000E13000900020ADF80400ADF80600ADF82C
:100A10000800ADF80C000C20ADF80A006946054846
:100A200000F018F801210348FFF7BAFF05B000BD38
:100A3000000801400038014002460020B1F5007F67
:100A400000D100BF13880B400BB1012000E0002053
:100A5000704700002DE9F04786B005460E46002499
:100A6000A24600BFA1460027B08900B100BF2F46B3
:100A70002C8A4CF6FF700440F08804432C82AC8929
:100A80004EF6F3100440B088318908437189084359
:100A90000443AC81AC8A4FF6FF400440B089044364
:100AA000AC8201A8FFF76AFE1F48874202D1DDF839
:100AB00010A001E0DDF80CA0A88900F4004040B1CE
:100AC0000AEBCA0000EB0A1031684900B0FBF1F8EC
:100AD00007E00AEBCA0000EB0A1031688900B0FB9E
:100AE000F1F86420B8FBF0F004012009642101FB57
:100AF0001089A88900F4004040B1322000EBC90001
:100B0000B0FBF1F000F00700044308E0322000EBF6
:100B100009106421B0FBF1F000F00F0004432C81B8
:100B200006B0BDE8F087000000380140C1F30802BC
:100B30008280704700BFFEE770B504460D46294627
:100B40002046FFF7F3FF00BF80212046FFF774FF28
:100B50000028F9D070BD70B506460C46002500BFD0
:100B6000615D3046FFF7E8FF6D1C605D0028F7D13E
:100B700000BF80213046FFF75FFF0028F9D070BD2D
:100B80000FB4054B10B503A9044A029800F018F8F9
:100B900010BC5DF814FB00001910000814000020C0
:100BA00002E008C8121F08C1002AFAD17047704736
:100BB000002001E001C1121F002AFBD17047000094
:100BC0002DE9FF4F8DB00F460546002606E025288B
:100BD0000BD0DDE90F1290476D1C761C2878002899
:100BE000F5D111B03046BDE8F08F0024A246A146F1
:100BF0000122E94900E0044315F8013F203B02FAD5
:100C000003F00842F7D128782A2810D06FF02F027D
:100C10002878A0F13001092914D80AEB8A0102EBE7
:100C2000410144F0020400EB010A6D1CF0E701CF22
:100C30005FEA000A03D544F40054CAF1000A44F004
:100C400002046D1C28782E2817D115F8010F44F0E6
:100C500004042A280ED06FF02F022878A0F130016A
:100C600009290AD809EB890102EB410100EB0109CE
:100C70006D1CF2E757F8049B6D1C28786C280FD088
:100C800006DC4C2817D068280DD06A2814D104E05F
:100C9000742810D07A280FD10DE044F400140AE033
:100CA00044F4801401E044F440146978814202D194
:100CB00004F580146D1C6D1C28786E281ED00CDC89
:100CC000632830D004DC00288BD0582811D19FE055
:100CD000642867D069280CD164E073282DD004DC27
:100CE0006F2872D0702804D194E075286ED07828CF
:100CF0006DD0DDE90F129047761C4BE1C4F3025032
:100D0000022806D0032809D0042801CF09D00660A4
:100D100040E101CFF117C0E900613BE101CF06805E
:100D200038E1067036E117F8040B8DF8000000205A
:100D30008DF80100EB46012003E057F804BB4FF0AB
:100D4000FF3061074FF0000102D40DE008F101010E
:100D5000884649450FDA8045F8DB1BF80810002962
:100D6000F4D108E008F1010188468142FADB1BF862
:100D700008100029F6D1DDE90F23AAEB080081460F
:100D8000214600F031F9304400EB080604E0DDE9CB
:100D90000F121BF8010B9047B8F10108F7D221465A
:100DA0004846F2E00A21C4F302524FF0000B0891CA
:100DB000022A04D001CFC117032A09D00AE0FF1D7F
:100DC00027F00707F7E8020108E02CE01EE01FE02B
:100DD00000B2C117042A01D140B2C117021E71F13D
:100DE000000206DA0023D0EB030063EB01012D22A1
:100DF00002E0220504D52B228DF82420012203E0F5
:100E0000E20701D02022F7E7904653E00A210BE0E9
:100E1000102109E010214FF0000B44F004044FF0C2
:100E20000809089103E008214FF0000B0891C4F372
:100E30000252022A04D001CF0021032A06D006E084
:100E4000FF1D27F00707F7E8020103E080B2042A3C
:100E500000D1C0B24FF0000822072BD52A78702AA3
:100E600007D0DDF820C08CF0100C5CEA0B0C05D02C
:100E70000EE040228DF82420012208E050EA010310
:100E800006D030238DF824308DF82520022290469C
:100E9000089B83F0080353EA0B030BD150EA0102CD
:100EA00001D1620706D530228DF824204FF00108C9
:100EB000A9F101092A78582A04D038A20B9208AA6D
:100EC0000A920BE03AA2F9E75B46089AFFF74EF95F
:100ED0000B9B9B5C0A9A521E0A92137050EA010205
:100EE000F2D10A98ADEB000000F1200B600702D5AB
:100EF00024F4803401E04FF00109D94502DDA9EB6B
:100F00000B0000E0002000EB0B0141440890AAEB2D
:100F1000010AE00306D4DDE90F232146504600F024
:100F200063F806444FF0000908E009A911F8090028
:100F3000DDE90F12904709F10109761CC145F4DB88
:100F4000E0030CD5DDE90F232146504600F04CF8B4
:100F5000064404E0DDE90F1230209047761C089922
:100F6000481E08900029F5DC08E00A980A990078E4
:100F7000491C0A91DDE90F129047761CBBF1000174
:100F8000ABF1010BF1DC21465046DDE90F2300F007
:100F900019F806446D1C21E609280100303132336E
:100FA00034353637383961626364656600000000A5
:100FB000303132333435363738394142434445468F
:100FC000000000002DE9F041044600251E461746AA
:100FD000880404D405E039462020B0476D1C641E07
:100FE000F9D52846BDE8F0812DE9F04104460025F9
:100FF0001E469046C80301D5302700E0202788040C
:1010000004D505E041463846B0476D1C641EF9D54D
:101010002846BDE8F081000070B504460D46E1B2F7
:101020000548FFF783FD00BF80210348FFF704FD5B
:101030000028F9D0204670BD0038014010B580204E
:101040000949086000F03AF840200749091F086084
:1010500000F034F840200449086000F02FF88020A8
:101060000149091F086010BD140C014070B5044609
:1010700000F00CF800F08AF8204600F05DF800F06F
:10108000ADF8054600F09AF8284670BD08B5012174
:101090000820FFF763FBC020ADF8000003208DF8A7
:1010A000020014208DF8030069460348FFF7D8F9C1
:1010B00000F084F808BD0000000C0140002001E0B1
:1010C000411CC8B20A28FBDB7047000010B5802025
:1010D00007490860FFF7F2FF402005490860FFF765
:1010E000EDFF40200249091D0860FFF7E7FF10BD32
:1010F000100C014070B50024002516E06006040EB7
:1011000040200C490860FFF7D9FF0A4808380068FA
:1011100000F0800008B1601CC4B240200549091DE0
:101120000860FFF7CBFF681CC5B2082DE6DB204640
:1011300070BD0000100C014070B50446002520E091
:1011400004F0800018B180200F49086003E080207F
:101150000D49091D0860FFF7B1FF40200A490860EA
:10116000FFF7ACFF40200849091D0860072D02D198
:101170008020091F08606006040EFFF79FFF681CAF
:10118000C5B2082DDCDB70BD100C014010B580200D
:101190000949086040200860FFF790FF8020064959
:1011A000091D0860FFF78AFF40200349091D0860F8
:1011B000FFF784FF10BD0000100C014010B5802027
:1011C000054908604020091F0860FFF777FF80206D
:1011D0000149091F086010BD140C014010B58020A2
:1011E0000C490860FFF76AFF40200A490860FFF7D2
:1011F00065FF08480838006800F0800008B1012445
:1012000000E0002440200349091D0860FFF756FF55
:10121000204610BD100C0140FFF76AFAFFF7CCFB27
:10122000012220211D48FFF7A6F9012211461B4883
:10123000FFF7A1F9002202211848FFF79CF918A135
:101240001B48FFF788FC1BA0FFF79AFCFFF70AF882
:10125000FFF74CF801280FD1012220210F48FFF79A
:101260008AF9002201210D48FFF785F901220221A8
:101270000A48FFF780F90EE0002220210748FFF717
:101280007AF9012211460548FFF775F9012202217A
:101290000248FFF770F900BFFEE70000000C0140B4
:1012A0000948656C6C6F2053544D3332210A00009D
:1012B000003801400973746D3332B8F8D2AFC5C03D
:1012C000210A0D00E41200080000002018000000B0
:1012D000A00B0008FC120008180000200004000009
:1012E000B00B000800000000010203040102030427
:0C12F000060708090204060800000000C0
:0400000508000131BD
:00000001FF
