:020000040800F2
:1000000020040020490100085D0F0008ED030008EE
:10001000590F0008330200085913000800000000BF
:100020000000000000000000000000007510000843
:1000300037020008000000005F0F0008611100088F
:100040006301000863010008630100086301000800
:1000500063010008630100086301000863010008F0
:1000600063010008630100086301000863010008E0
:1000700063010008630100086301000863010008D0
:1000800063010008630100086301000863010008C0
:1000900063010008630100086301000863010008B0
:1000A00063010008630100086301000863010008A0
:1000B0006301000863010008630100086301000890
:1000C0006301000863010008630100086301000880
:1000D0006301000863010008630100086301000870
:1000E0006301000863010008630100086301000860
:1000F0006301000863010008630100086301000850
:10010000630100086301000863010008630100083F
:10011000630100086301000863010008630100082F
:10012000630100086301000863010008630100081F
:10013000DFF810D000F04CF80048004761180008C4
:10014000AFF300802004002006488047064800479F
:10015000FEE7FEE7FEE7FEE7FEE7FEE7FEE7FEE777
:10016000FEE7FEE765110008310100082DE9F05FA8
:100170000546002092469B46884606468146402416
:100180001BE0284641464746224600F042F85346C7
:100190005A46C01A914110D311461846224600F023
:1001A00029F82D1A67EB01084F462246012000214D
:1001B00000F020F817EB00094E41201EA4F10104C5
:1001C000DFDC484631462A464346BDE8F09F000042
:1001D000064C074D06E0E06840F0010394E8070094
:1001E00098471034AC42F6D3FFF7A6FFF419000885
:1001F000141A0008202A04DB203A00FA02F1002039
:1002000070479140C2F1200320FA03F31943904054
:100210007047202A04DB203A21FA02F000217047BF
:1002200021FA02F3D040C2F120029140084319465E
:10023000704700BFFEE7704710B54FF4805020496B
:10024000086009E01E490868411E1D4A116018B97E
:10025000002000F05DFD10BD4FF40031194800F0A2
:10026000B3FC0028EED100BF0121164800F094FC39
:100270004FF480501249086009E011490868411E96
:100280000F4A116018B9012000F042FDE3E70E4962
:100290000C4800F099FC0028EFD00022A02109486A
:1002A00000F02AFD0849491C064800F08DFC002892
:1002B000DAD00121034800F07BFC0120CBE70000ED
:1002C0001400002000540040010000102DE9F0410E
:1002D000024600250026002000230024002791F874
:1002E00003C00CF00F0591F803C00CF0100CBCF12A
:1002F000000F03D091F802C04CEA050591F800C048
:10030000BCF1000F31D0146800202BE04FF0010C3D
:100310000CFA00F3B1F800C00CEA03069E4220D1AB
:1003200083004FF00F0C0CFA03F7BC4305FA03FCF3
:100330004CEA040491F803C0BCF1280F06D14FF039
:10034000010C0CFA00FCC2F814C00AE091F803C0DA
:10035000BCF1480F05D14FF0010C0CFA00FCC2F8BB
:1003600010C0401C0828D1D31460B1F800C0BCF103
:10037000FF0F34DD546800202EE000F1080C4FF030
:10038000010808FA0CF3B1F800C00CEA03069E421B
:1003900021D183004FF00F0C0CFA03F7BC4305FA90
:1003A00003FC4CEA040491F803C0BCF1280F05D10A
:1003B00000F1080C08FA0CF8C2F8148091F803C098
:1003C000BCF1480F07D100F1080C4FF0010808FA02
:1003D0000CF8C2F81080401C0828CED35460BDE849
:1003E000F0810AB1016100E04161704700BFFEE7A2
:1003F00021B1028842F48062028004E002884FF654
:10040000FF331A400280704770B502460024002571
:1004100000230020958A138B1B0445EA030626F06F
:100420007F4404EA01068E4201D1012000E0002051
:1004300070BD21B1028842F00102028004E002880E
:100440004FF6FE731A4002807047000000B585B079
:100450000121480500F084FD0121082000F090FDF5
:1004600003208DF812001C208DF813004020ADF8F9
:10047000100004A91348FFF729FF8020ADF81000F1
:1004800004A91048FFF722FF0020ADF804004BF646
:10049000FF70ADF806000A20ADF808004FF4806048
:1004A000ADF80A000001ADF80C000748009069465D
:1004B000064800F0A7FB01210448FFF7BAFF05B08A
:1004C00000BD0000000C0140801A060000540040EE
:1004D00070B506460D4614464FF4805062490860D8
:1004E00009E061490868411E5F4A116018B911208E
:1004F00000F00EFC70BD4FF400315C4800F064FB6E
:100500000028EED10121594800F046FB4FF48050FD
:100510005549086009E054490868411E524A116073
:1005200018B9122000F0F4FBE4E751494F48FFF7F7
:100530006BFF0028EFD00022A0214C4800F0DCFB2C
:100540004FF480504849086009E047490868411E57
:10055000454A116018B9132000F0DAFBCAE7454993
:100560004248FFF751FF0028EFD031463F4800F0E6
:10057000CCFB4FF480503C49086009E03A490868D8
:10058000411E394A116018B9142000F0C1FBB1E7CF
:100590003849891C3548FFF737FF0028EED0012184
:1005A000324800F0F9FA4FF480502F49086009E012
:1005B0002D490868411E2C4A116018B9152000F019
:1005C000A7FB97E72A492948FFF71EFF0028EFD02D
:1005D0000122A021254800F08FFB4FF480502249D2
:1005E000086009E020490868411E1F4A116018B9D7
:1005F000162000F08DFB7DE71D49491C1B48FFF7C5
:1006000003FF0028EED026E0012C07D10021174877
:10061000FFF7EEFE0121154800F0CAFA4FF48050B2
:100620001149086009E010490868411E0E4A11602E
:1006300018B9172000F06CFB5CE70D493F310B48FF
:10064000FFF7E2FE0028EED0084800F051FB2870CA
:100650006D1C601E84B2002CD6D101210348FFF727
:10066000C7FE012046E700001400002000540040AF
:1006700001000300820007002DE9F04705460F4600
:1006800014464FF00008C146C24600262846E91726
:1006900005EB5171C910A5EBC10101F0FF0ACAF1C8
:1006A0000800C6B22046E11704EB5171C1F3C70838
:1006B000E11704EB5171C910A4EBC10101F0FF096E
:1006C000BAF1000F28D1B8F1000F07D14A463946D8
:1006D000284600F0C7F9FFF7AFFD60E00AE0082206
:1006E0003946284600F0BEF9FFF7A6FD05F10800DF
:1006F000C5B20837B8F10000A8F1010101F0FF0808
:10070000EDD1B9F1000F4AD04A463946284600F0EB
:10071000A9F9FFF791FD42E0B8F1000F07D14A4671
:100720003946284600F09EF9FFF786FD37E0A01B0A
:1007300084B22046E11704EB5171C1F3C708E117F9
:1007400004EB5171C910A4EBC10101F0FF094EB1D6
:1007500032463946284600F085F9FFF76DFDA819A5
:10076000C5B237440AE008223946284600F07AF933
:10077000FFF762FD05F10800C5B20837B8F10000C7
:10078000A8F1010101F0FF08EDD1B9F1000F06D089
:100790004A463946284600F065F9FFF74DFDBDE8A9
:1007A000F087000070B5044600254FF48050604982
:1007B000086009E05E490868411E5D4A116018B989
:1007C000002000F0A5FA70BD4FF40031594800F048
:1007D000FBF90028EED10121564800F0DDF94FF475
:1007E00080505349086009E051490868411E504A49
:1007F000116018B9012000F08BFAE4E74E494D482A
:10080000FFF702FE0028EFD00022A021494800F0A7
:1008100073FA4FF480504649086009E0444908687B
:10082000411E434A116018B9022000F071FACAE76C
:1008300042494048FFF7E8FD0028EFD021463D48F7
:1008400000F063FA4FF480503949086009E03849F4
:100850000868411E364A116018B9032000F058FAA2
:10086000B1E73649891E3348FFF7CEFD0028EED0A8
:100870000121304800F090F94FF480502C49086075
:1008800009E02B490868411E294A116018B9042063
:1008900000F03EFA97E728492648FFF7B5FD002803
:1008A000EFD00122A021234800F026FA4FF4805017
:1008B0001F49086009E01E490868411E1C4A116072
:1008C00018B9052000F024FA7DE71B49491C194896
:1008D000FFF79AFD0028EED000211648FFF788FDAB
:1008E0004FF480501249086009E011490868411E20
:1008F0000F4A116018B9062000F00AFA63E70E49A2
:100900003F310C48FFF780FD0028EED0094800F089
:10091000EFF905460121074800F04AF94FF48050ED
:100920000349086001210348FFF762FD28464AE7B2
:100930001400002000540040010003008200070062
:1009400070B504460D464FF480504249086009E0F6
:1009500040490868411E3F4A116018B9072000F05D
:10096000D7F970BD4FF400313B4800F02DF9002855
:10097000EED10121384800F00FF94FF4805035498D
:10098000086009E033490868411E324A116018B90D
:10099000082000F0BDF9E4E730492F48FFF734FDA7
:1009A0000028EFD00022A0212B4800F0A5F94FF439
:1009B00080502849086009E026490868411E254AF8
:1009C000116018B9092000F0A3F9CAE724492248A8
:1009D000FFF71AFD0028EFD021461F4800F095F9D7
:1009E0004FF480501B49086009E01A490868411E0D
:1009F000184A116018B90A2000F08AF9B1E71849BD
:100A0000891E1548FFF700FD0028EED0297812480E
:100A100000F07BF94FF480500E49086009E00D4961
:100A20000868411E0B4A116018B90B2000F070F9DC
:100A300097E70B49891C0848FFF7E6FC0028EED031
:100A40004FF48050034908600121034800F0B0F8DA
:100A5000012086E71400002000540040010003003C
:100A60008200070070B505460C4616464FF48050CC
:100A70004549086009E044490868411E424A11603E
:100A800018B90C2000F044F970BD4FF400313F4814
:100A900000F09AF80028EED101213C4800F07CF8E3
:100AA0004FF480503849086009E037490868411E12
:100AB000354A116018B90D2000F02AF9E4E73449ED
:100AC0003248FFF7A1FC0028EFD00022A0212F48D8
:100AD00000F012F94FF480502B49086009E02A49D0
:100AE0000868411E284A116018B90E2000F010F95C
:100AF000CAE728492548FFF787FC0028EFD0294698
:100B0000224800F002F94FF480501F49086009E0C4
:100B10001D490868411E1C4A116018B90F2000F0D9
:100B2000F7F8B1E71B49891E1848FFF76DFC00284C
:100B3000EED01AE02178154800F0E7F8641C4FF475
:100B400080501149086009E00F490868411E0E4AAB
:100B5000116018B9102000F0DBF895E70D49891CE9
:100B60000A48FFF751FC0028EED0301EA6F1010123
:100B7000CEB2DFD14FF48050034908600121034811
:100B800000F016F801207FE7140000200054004018
:100B9000010003008200070021B1028842F4807244
:100BA000028004E002884FF6FF631A40028070471B
:100BB00021B1028842F40072028004E002884FF6FC
:100BC000FF531A40028070470CB5024600200023F4
:100BD0000193009300920B0F019321F07F41019B41
:100BE0001BB1009B1433009303E0090C009B1833E6
:100BF0000093009B1B680B400BB1012000E000201C
:100C00000CBD00002DE9F04385B004460D460026DA
:100C1000B1460427DFF8CC80A6884FF6C0700640A6
:100C2000684600F0BDF9DDF808802F48B8FBF0F009
:100C30001FFA80F946EA0906A68020884FF6FE7161
:100C40000840208000262949286888420CD8286856
:100C50004000B8FBF0F087B2042F00DA04273E43CF
:100C600009F10100208427E0E8884BF6FF718842F3
:100C700006D1286800EB4000B8FBF0F087B209E02D
:100C8000286800EBC00101EB0010B8FBF0F087B260
:100C900047F48047C7F30B0008B947F0010747F452
:100CA000004006434FF4967009FB00F04FF47A7150
:100CB00090FBF1F0401C2084A683208840F00100C6
:100CC000208026884FF6F5300640A88869890843B9
:100CD00006432680A88929890843208105B0BDE8FC
:100CE000F083000000127A0040420F00A08601004D
:100CF0000146088AC0B2704712B141F0010102E01A
:100D00004FF6FE7319400182704701827047000060
:100D100010B50446214602A000F044FB002010BD9F
:100D20003C3C2D454550524F4D2D4552524F522D72
:100D30003E3E20493243B5C8B4FDB3ACCAB12165CB
:100D400072726F72436F6465203D2025640A000053
:100D500010B5ADF5007D2DA000F024FB002413E0BC
:100D600040A90C5540A8015D2CA000F01BFBE11729
:100D700004EB11710911A4EB01110F2902D129A073
:100D800000F010FB601C84B2FF2CE9DD4FF4807290
:100D900040A90020FFF770FC23A000F003FB2AA06D
:100DA00000F000FB4FF4807269460020FFF790FBD3
:100DB000002423E01DF8040040A9095D88420BD0FF
:100DC0001DF8041029A000F0EDFA2FA000F0EAFAB7
:100DD00000200DF5007D10BD1DF804100FA000F0DF
:100DE000E1FAE11704EB11710911A4EB01110F29CC
:100DF00002D10CA000F0D6FA601C84B2FF2CD9DD21
:100E000030A000F0CFFA0120E3E70000D0B4C8EB37
:100E1000B5C4CAFDBEDD0A0D0000000030782530E3
:100E2000325820000A0D00003C3C2D454550524FE1
:100E30004D2D494E464F2D3E3E200A0DD0B4B3C92C
:100E4000B9A60A0D0A0000003C3C2D454550524F02
:100E50004D2D494E464F2D3E3E200A0DB6C1B3F6EC
:100E6000B5C4CAFDBEDD0A0D0A0000003C3C2D459C
:100E70004550524F4D2D4552524F522D3E3E20303F
:100E80007825303258200A003C3C2D454550524FC1
:100E90004D2D4552524F522D3E3E20B4EDCEF33AE9
:100EA00049324320454550524F4DD0B4C8EBD3EBA7
:100EB000B6C1B3F6B5C4CAFDBEDDB2BBD2BBD6C2A5
:100EC0000A0D0A003C3C2D454550524F4D2D494ED0
:100ED000464F2D3E3E204932432841543234433060
:100EE0003229B6C1D0B4B2E2CAD4B3C9B9A60A0D88
:100EF0000A00000008B50121082000F041F8012097
:100F00008DF8020010208DF803002020ADF80000BD
:100F100069461048FFF7DAF90120ADF8000069468C
:100F20000C48FFF7D3F90220ADF8000069460948E4
:100F3000FFF7CCF9012220210648FFF752FA0122DF
:100F400011460448FFF74DFA012202210148FFF73C
:100F500048FA08BD000C014000BFFEE7704770472B
:100F600029B1064AD2690243044BDA6104E0034A1C
:100F7000D2698243014BDA617047000000100240E1
:100F800029B1064A92690243044B9A6104E0034A7C
:100F900092698243014B9A61704700000010024041
:100FA00030B500210022002400232D4D6D6805F08E
:100FB0000C0121B1042905D0082923D105E0294DD0
:100FC000056022E0274D05601FE0254D6D6805F4A2
:100FD0007012234D6D6805F48034022505EB9242B2
:100FE0001CB9214D554305600BE01D4D6D6805F49E
:100FF00000351DB11C4D5543056002E0194D5543A8
:10100000056002E0174D056000BF00BF144D6D681C
:1010100005F0F0010909154D6B5C0568DD40456080
:101020000F4D6D6805F4E061090A104D6B5C456871
:10103000DD4085600A4D6D6805F46051C90A0B4DAD
:101040006B5C4568DD40C560054D6D6805F4404149
:10105000890B074D6B5CC568B5FBF3F5056130BDC9
:101060000010024000127A0000093D00000000203C
:1010700010000020704710B500F002F810BD00000D
:101080000CB50020019000903348006840F4803097
:101090003149086000BF3048006800F4003000901B
:1010A0000198401C0190009818B90198B0F5A06F04
:1010B000F1D12948006800F4003010B101200090FF
:1010C00001E0002000900098012843D123480068E7
:1010D00040F01000214908600846006820F0030035
:1010E00008600846006840F0020008601A4840683E
:1010F000194948600846406848600846406840F41E
:10110000806048600846406820F47C1048600846CB
:10111000406840F4E81048600846006840F080707D
:10112000086000BF0C48006800F000700028F9D08B
:101130000948406820F003000749486008464068B5
:1011400040F00200486000BF0348406800F00C0017
:101150000828F9D10CBD0000001002400020024018
:101160007047000010B51348006840F001001149B5
:10117000086008464068104908400E494860084623
:1011800000680E4908400B4908600846006820F4D2
:10119000802008600846406820F4FE0048604FF454
:1011A0001F008860FFF767FF4FF000600449086088
:1011B00010BD0000001002400000FFF8FFFFF6FE27
:1011C00008ED00E021B1828942F40052828104E0FE
:1011D00082894DF6FF731A408281704700B585B051
:1011E00001210420FFF7CCFE01218803FFF7C8FE90
:1011F0004FF40070ADF8100018208DF81300032094
:101200008DF8120004A91348FFF760F84FF48060CE
:10121000ADF8100004208DF8130004A90D48FFF765
:1012200055F84FF4E13000900020ADF80400ADF81F
:101230000600ADF80800ADF80C000C20ADF80A006F
:101240006946054800F018F801210348FFF7BAFF86
:1012500005B000BD000801400038014002460020F2
:10126000B1F5007F00D100BF13880B400BB1012006
:1012700000E00020704700002DE9F04786B00546E9
:101280000E460024A24600BFA1460027B08900B147
:1012900000BF2F462C8A4CF6FF700440F0880443B0
:1012A0002C82AC894EF6F3100440B0883189084393
:1012B000718908430443AC81AC8A4FF6FF40044077
:1012C000B0890443AC8201A8FFF76AFE1F48874239
:1012D00002D1DDF810A001E0DDF80CA0A88900F42F
:1012E000004040B10AEBCA0000EB0A103168490027
:1012F000B0FBF1F807E00AEBCA0000EB0A10316816
:101300008900B0FBF1F86420B8FBF0F0040120097B
:10131000642101FB1089A88900F4004040B132200B
:1013200000EBC900B0FBF1F000F00700044308E057
:10133000322000EB09106421B0FBF1F000F00F0047
:1013400004432C8106B0BDE8F0870000003801405E
:10135000C1F308028280704700BFFEE770B5044603
:101360000D4629462046FFF7F3FF00BF80212046A7
:10137000FFF774FF0028F9D070BD70B506460C4623
:10138000002500BF615D3046FFF7E8FF6D1C605D22
:101390000028F7D100BF80213046FFF75FFF00280B
:1013A000F9D070BD0FB4054B10B503A9044A0298DB
:1013B00000F018F810BC5DF814FB00003D180008A0
:1013C0001800002002E008C8121F08C1002AFAD144
:1013D00070477047002001E001C1121F002AFBD1B5
:1013E000704700002DE9FF4F8DB00F4605460026DF
:1013F00006E025280BD0DDE90F1290476D1C761C06
:1014000028780028F5D111B03046BDE8F08F0024CF
:10141000A246A1460122E94900E0044315F8013F34
:10142000203B02FA03F00842F7D128782A2810D08E
:101430006FF02F022878A0F13001092914D80AEBA7
:101440008A0102EB410144F0020400EB010A6D1C29
:10145000F0E701CF5FEA000A03D544F40054CAF173
:10146000000A44F002046D1C28782E2817D115F8C4
:10147000010F44F004042A280ED06FF02F022878C0
:10148000A0F1300109290AD809EB890102EB4101D9
:1014900000EB01096D1CF2E757F8049B6D1C2878DE
:1014A0006C280FD006DC4C2817D068280DD06A288D
:1014B00014D104E0742810D07A280FD10DE044F440
:1014C00000140AE044F4801401E044F44014697804
:1014D000814202D104F580146D1C6D1C28786E28A1
:1014E0001ED00CDC632830D004DC00288BD05828B8
:1014F00011D19FE0642867D069280CD164E073287B
:101500002DD004DC6F2872D0702804D194E07528A7
:101510006ED078286DD0DDE90F129047761C4BE134
:10152000C4F30250022806D0032809D0042801CFB2
:1015300009D0066040E101CFF117C0E900613BE14D
:1015400001CF068038E1067036E117F8040B8DF8FC
:10155000000000208DF80100EB46012003E057F861
:1015600004BB4FF0FF3061074FF0000102D40DE0E3
:1015700008F10101884649450FDA8045F8DB1BF880
:1015800008100029F4D108E008F1010188468142E1
:10159000FADB1BF808100029F6D1DDE90F23AAEBCE
:1015A00008008146214600F031F9304400EB08067E
:1015B00004E0DDE90F121BF8010B9047B8F10108B8
:1015C000F7D221464846F2E00A21C4F302524FF016
:1015D000000B0891022A04D001CFC117032A09D0B9
:1015E0000AE0FF1D27F00707F7E8020108E02CE0FA
:1015F0001EE01FE000B2C117042A01D140B2C1179A
:10160000021E71F1000206DA0023D0EB030063EB47
:1016100001012D2202E0220504D52B228DF8242081
:10162000012203E0E20701D02022F7E7904653E0D1
:101630000A210BE0102109E010214FF0000B44F0CB
:1016400004044FF00809089103E008214FF0000B53
:101650000891C4F30252022A04D001CF0021032AC8
:1016600006D006E0FF1D27F00707F7E8020103E0B8
:1016700080B2042A00D1C0B24FF0000822072BD557
:101680002A78702A07D0DDF820C08CF0100C5CEAB4
:101690000B0C05D00EE040228DF82420012208E03A
:1016A00050EA010306D030238DF824308DF8252030
:1016B00002229046089B83F0080353EA0B030BD1E8
:1016C00050EA010201D1620706D530228DF82420AC
:1016D0004FF00108A9F101092A78582A04D038A24C
:1016E0000B9208AA0A920BE03AA2F9E75B46089A25
:1016F000FEF73CFD0B9B9B5C0A9A521E0A921370EC
:1017000050EA0102F2D10A98ADEB000000F1200B83
:10171000600702D524F4803401E04FF00109D94577
:1017200002DDA9EB0B0000E0002000EB0B014144BF
:101730000890AAEB010AE00306D4DDE90F23214655
:10174000504600F063F806444FF0000908E009A98C
:1017500011F80900DDE90F12904709F10109761C23
:10176000C145F4DBE0030CD5DDE90F2321465046EB
:1017700000F04CF8064404E0DDE90F1230209047F9
:10178000761C0899481E08900029F5DC08E00A98A4
:101790000A990078491C0A91DDE90F129047761CDE
:1017A000BBF10001ABF1010BF1DC21465046DDE954
:1017B0000F2300F019F806446D1C21E609280100EA
:1017C00030313233343536373839616263646566B7
:1017D0000000000030313233343536373839414279
:1017E00043444546000000002DE9F0410446002531
:1017F0001E461746880404D405E039462020B04729
:101800006D1C641EF9D52846BDE8F0812DE9F04134
:10181000044600251E469046C80301D5302700E047
:101820002027880404D505E041463846B0476D1CA2
:10183000641EF9D52846BDE8F081000070B5044665
:101840000D46E1B20548FFF783FD00BF8021034844
:10185000FFF704FD0028F9D0204670BD0038014094
:10186000C0B0FFF747FBFFF7B9FCFEF7EFFD002222
:1018700020213F48FEF7B5FD012211463C48FEF706
:10188000B0FD012202213A48FEF7ABFD39A13D48E7
:10189000FFF773FD3CA0FFF785FD09208DF80000E0
:1018A00008208DF8070007208DF808009DF800102B
:1018B00039A0FFF777FD69460020FFF741F83BA00C
:1018C000FFF770FDFEF7B8FC0020FEF76BFFC0B21B
:1018D0008DF800009DF800103DA0FFF763FD092280
:1018E00069460020FFF7BEF830A0FFF75BFDFEF76A
:1018F000A3FC0020FEF756FFC0B28DF800009DF853
:10190000001033A0FFF74EFD012220211848FEF7FA
:1019100068FD012211461648FEF763FD00220221F0
:101920001348FEF75EFDFFF713FA01280FD10122DD
:1019300020210F48FEF755FD002201210C48FEF73B
:1019400050FD012202210A48FEF74BFD0EE0002265
:1019500020210748FEF745FD012211460448FEF705
:1019600040FD012202210248FEF73BFD00BFFEE7D9
:10197000000C01400948656C6C6F2053544D3332A4
:10198000210A0000003801400973746D3332B8F841
:10199000D2AFC5C0210A0D00D0B4C8EBB5C4CAFD92
:1019A000BEDD3A3078253032580A0D003C3C2D45DA
:1019B0004550524F4D2D494E464F2D3E3E200A2058
:1019C000202020D0B4B3C9B9A60A0D0A0000000037
:1019D0003C3C2D454550524F4D2D494E464F2D3ED6
:1019E0003E200A20202020B6C1B3C9B9A63A2564FA
:1019F0000A0D0A00141A0008000000201C00000054
:101A0000C4130008301A00081C0000200404000061
:101A1000D4130008000000000102030401020304C3
:101A20000607080902040608001000000000000074
:0400000508000131BD
:00000001FF
