:020000040800F2
:10000000200400204901000895120008C9080008D2
:10001000911200080D07000891160008000000006A
:10002000000000000000000000000000AD13000808
:10003000110700080000000097120008991400083A
:100040006301000863010008630100086301000800
:1000500063010008630100086301000863010008F0
:1000600063010008630100086301000863010008E0
:1000700063010008630100086301000863010008D0
:1000800063010008630100086301000863010008C0
:1000900063010008630100086301000863010008B0
:1000A00063010008630100086301000863010008A0
:1000B0006301000863010008630100086301000890
:1000C0006301000863010008630100086301000880
:1000D0006301000863010008630100086301000870
:1000E0006301000863010008630100086301000860
:1000F0006301000863010008630100086301000850
:10010000630100086301000863010008630100083F
:10011000630100086301000863010008630100082F
:10012000630100086301000863010008630100081F
:10013000DFF810D000F0C8FA00480047CD1F0008D3
:10014000AFF300802004002006488047064800479F
:10015000FEE7FEE7FEE7FEE7FEE7FEE7FEE7FEE777
:10016000FEE7FEE79D1400083101000840EA0103A4
:100170009B0703D009E008C9121F08C0042AFAD25D
:1001800003E011F8013B00F8013B521EF9D2704721
:10019000D2B201E000F8012B491EFBD270470022C9
:1001A000F6E710B513460A4604461946FFF7F0FF76
:1001B000204610BD2DE9FE4F804681EA0300C00FA6
:1001C0000C46009021F0004123F00045B8EB0200FE
:1001D000A94105D24046214690461C460B460246A0
:1001E00023F00040104347D0270DC7F30A00C3F3A4
:1001F0000A510290401A019040286BDAC3F31300B1
:1002000040F4801B0098924620B10023D2EB030AF1
:1002100063EB0B0B01985946C0F14002504600F0C9
:10022000C4F806460D4650465946019A00F0CCF8EF
:1002300010EB08006141002487EA115284EAE77359
:100240001A4340D0009A62B3019A012A4FEA07523A
:1002500015DC001B61EB02014FF0004202EA07527D
:10026000CDE90042001C41F5801132462B4600F0DA
:10027000CCF803B0BDE8F08F40462146F9E7001BFB
:1002800061EB0201001C41F5801300185B4120184E
:10029000A2F5001747EB030140EAD570B6196D418E
:1002A00011E06D084FEA360645EAC0754FEA07527D
:1002B000001B61EB0201001C41F5801149084FEA67
:1002C00030000019514132462B4603B0BDE8F04FD3
:1002D00000F08CB80098012240000023D0EB02020D
:1002E00063EBE073009821464FEAE074B8EB00003E
:1002F00061EB0401E9E783F000435BE781F0004133
:1003000058E70EB540F2334102910021CDE90011CA
:100310000A460B4600F079F803B000BD30B50B4635
:10032000014600202022012409E021FA02F59D4225
:1003300005D303FA02F5491B04FA02F52844151EF9
:10034000A2F10102F1DC30BD2DE9F05F054600208D
:1003500092469B4688460646814640241BE0284636
:1003600041464746224600F0C1F953465A46C01A54
:10037000914110D311461846224600F016F82D1A66
:1003800067EB01084F4622460120002100F00DF8DE
:1003900017EB00094E41201EA4F10104DFDC4846A2
:1003A00031462A464346BDE8F09F202A04DB203A26
:1003B00000FA02F1002070479140C2F1200320FAB8
:1003C00003F3194390407047202A06DBCB17203AED
:1003D00041FA02F043EAE07306E041FA02F3D0404A
:1003E000C2F12002914008431946704710B5141E0F
:1003F00073F1000408DA401C41F1000192185B41DE
:100400001A4301D120F0010010BD2DE9F04D9246B4
:100410009B4611B1B1FA81F202E0B0FA80F22032CB
:100420009046FFF7C2FF04460F4640EA0A0041EA41
:100430000B0153465A46084313D0114653EA0100B4
:1004400019D0C8F14002504600F050F905460E465A
:10045000504659464246FFF7A8FF084305D0012001
:1004600004E020463946BDE8F08D0020054346EA09
:10047000E0762C4337430A986305E40AA0EB0800B2
:100480000022FD0A44EA47540A3002D50020014602
:10049000E9E7010510196941DDE9084500196941DD
:1004A000BDE8F04DA2E72DE9FE4F81EA030404F018
:1004B000004421F0004100944FF0000B23F0004372
:1004C00050EA01045ED052EA03045BD0C3F30A543D
:1004D000C1F30A552C44A4F2F3340194A0FB025456
:1004E000C1F3130141F48011C3F3130343F48013E8
:1004F00001FB024400FB034E840A970A44EA81543C
:1005000047EA8357A4FB076802958D0A05FB078518
:100510004FEA932C04FB0C542705029D4FEA065822
:1005200047EA1637B5EB08056EEB070C870E920EFF
:1005300047EA811742EA8312A7FB0201B6EB0B01DF
:1005400064EB00042B0D43EA0C335E1844EB1C50A3
:10055000DA465146E7FB0201C5F313044FEA0B33B9
:1005600043EA14534FEA0432019C43EA0603A4F120
:100570000C040294009CCDE900B4FFF746FF03B0E1
:10058000BDE8F08F00200146F9E72DE9F04D81EA42
:10059000030404F0004B21F0004514464FF0000A1C
:1005A00023F0004150EA050220D054EA01021DD098
:1005B000C5F30A570246C5F31303C1F31300C1F391
:1005C0000A5640F4801543F48013A7EB0608101B6D
:1005D000D64608F2FD3873EB050002D308F1010896
:1005E00001E092185B41B8F1000F03DA00200146E8
:1005F000BDE8F08D00204FF48011064684460EE0E1
:10060000171B73EB050705D3121B63EB05030643AA
:100610004CEA010C49084FEA300092185B4150EA5D
:100620000107EDD152EA030012D082EA040083EA06
:100630000501084305D0101BAB4106D2012200235F
:1006400006E000224FF0004302E06FF00102531079
:100650001AEB06004CEB085110EB0A0041EB0B01C2
:10066000BDE8F04DFFF7C2BEC1F30A52C1F313015A
:1006700040F2FF3341F480119A4202DA0020014631
:10068000704740F233439A42A2F2334202DC5242B4
:1006900000F02CB8FFF789BE30B5041E71F10004DC
:1006A00004DB4FF00044404264EB0101141E73F17F
:1006B000000405DB1C464FF00043524263EB040389
:1006C000994208BF904230BD064C074D06E0E068F5
:1006D00040F0010394E8070098471034AC42F6D389
:1006E000FFF72AFDB0230008D0230008202A04DBEE
:1006F000203A21FA02F00021704721FA02F3D0409B
:10070000C2F12002914008431946704700BFFEE73E
:100710007047000010B54FF480502049086009E090
:100720001E490868411E1D4A116018B9002000F0DA
:100730005DFD10BD4FF40031194800F0B3FC0028F6
:10074000EED100BF0121164800F094FC4FF4805018
:100750001249086009E011490868411E0F4A1160FA
:1007600018B9012000F042FDE3E70E490C4800F003
:1007700099FC0028EFD00022A021094800F02AFDB2
:100780000849491C064800F08DFC0028DAD00121F8
:10079000034800F07BFC0120CBE7000014000020A0
:1007A00000540040010000102DE9F04102460025F0
:1007B0000026002000230024002791F803C00CF03D
:1007C0000F0591F803C00CF0100CBCF1000F03D022
:1007D00091F802C04CEA050591F800C0BCF1000F89
:1007E00031D0146800202BE04FF0010C0CFA00F31C
:1007F000B1F800C00CEA03069E4220D183004FF0FE
:100800000F0C0CFA03F7BC4305FA03FC4CEA040492
:1008100091F803C0BCF1280F06D14FF0010C0CFA7F
:1008200000FCC2F814C00AE091F803C0BCF1480F04
:1008300005D14FF0010C0CFA00FCC2F810C0401CAE
:100840000828D1D31460B1F800C0BCF1FF0F34DD2B
:10085000546800202EE000F1080C4FF0010808FA5F
:100860000CF3B1F800C00CEA03069E4221D18300CC
:100870004FF00F0C0CFA03F7BC4305FA03FC4CEAEB
:10088000040491F803C0BCF1280F05D100F1080C55
:1008900008FA0CF8C2F8148091F803C0BCF1480FB4
:1008A00007D100F1080C4FF0010808FA0CF8C2F863
:1008B0001080401C0828CED35460BDE8F0810AB1F6
:1008C000016100E04161704700BFFEE721B102888D
:1008D00042F48062028004E002884FF6FF331A403F
:1008E0000280704770B502460024002500230020D6
:1008F000958A138B1B0445EA030626F07F4404EA1D
:1009000001068E4201D1012000E0002070BD21B11E
:10091000028842F00102028004E002884FF6FE7372
:100920001A4002807047000000B585B001214805DB
:1009300000F0B2FC0121082000F0BEFC03208DF87D
:1009400012001C208DF813004020ADF8100004A9FF
:100950001348FFF729FF8020ADF8100004A91048C4
:10096000FFF722FF0020ADF804004BF6FF70ADF852
:1009700006000A20ADF808004FF48060ADF80A00C8
:100980000001ADF80C00074800906946064800F0E9
:10099000A7FB01210448FFF7BAFF05B000BD000026
:1009A000000C0140801A06000054004070B5064655
:1009B0000D4614464FF480506249086009E06149D1
:1009C0000868411E5F4A116018B9112000F00EFC42
:1009D00070BD4FF400315C4800F064FB0028EED19C
:1009E0000121594800F046FB4FF4805055490860FA
:1009F00009E054490868411E524A116018B9122092
:100A000000F0F4FBE4E751494F48FFF76BFF002883
:100A1000EFD00022A0214C4800F0DCFB4FF48050C6
:100A20004849086009E047490868411E454A116085
:100A300018B9132000F0DAFBCAE745494248FFF72E
:100A400051FF0028EFD031463F4800F0CCFB4FF477
:100A500080503C49086009E03A490868411E394A1B
:100A6000116018B9142000F0C1FBB1E73849891CA6
:100A70003548FFF737FF0028EED00121324800F05B
:100A8000F9FA4FF480502F49086009E02D490868B1
:100A9000411E2C4A116018B9152000F0A7FB97E7FA
:100AA0002A492948FFF71EFF0028EFD00122A02184
:100AB000254800F08FFB4FF480502249086009E080
:100AC00020490868411E1F4A116018B9162000F01D
:100AD0008DFB7DE71D49491C1B48FFF703FF0028DC
:100AE000EED026E0012C07D100211748FFF7EEFEDB
:100AF0000121154800F0CAFA4FF4805011490860EE
:100B000009E010490868411E0E4A116018B9172003
:100B100000F06CFB5CE70D493F310B48FFF7E2FE4C
:100B20000028EED0084800F051FB28706D1C601EB4
:100B300084B2002CD6D101210348FFF7C7FE012063
:100B400046E70000140000200054004001000300AC
:100B5000820007002DE9F04705460F4614464FF086
:100B60000008C146C24600262846E91705EB517128
:100B7000C910A5EBC10101F0FF0ACAF10800C6B215
:100B80002046E11704EB5171C1F3C708E11704EBEC
:100B90005171C910A4EBC10101F0FF09BAF1000FB6
:100BA00028D1B8F1000F07D14A463946284600F04F
:100BB000C7F9FFF7AFFD60E00AE008223946284692
:100BC00000F0BEF9FFF7A6FD05F10800C5B2083731
:100BD000B8F10000A8F1010101F0FF08EDD1B9F171
:100BE000000F4AD04A463946284600F0A9F9FFF7D7
:100BF00091FD42E0B8F1000F07D14A463946284638
:100C000000F09EF9FFF786FD37E0A01B84B2204676
:100C1000E11704EB5171C1F3C708E11704EB5171FF
:100C2000C910A4EBC10101F0FF094EB132463946AB
:100C3000284600F085F9FFF76DFDA819C5B23744C5
:100C40000AE008223946284600F07AF9FFF762FDEB
:100C500005F10800C5B20837B8F10000A8F101019C
:100C600001F0FF08EDD1B9F1000F06D04A46394630
:100C7000284600F065F9FFF74DFDBDE8F08700005C
:100C800070B5044600254FF480506049086009E0C3
:100C90005E490868411E5D4A116018B9002000F0E5
:100CA000A5FA70BD4FF40031594800F0FBF9002857
:100CB000EED10121564800F0DDF94FF48050534940
:100CC000086009E051490868411E504A116018B98E
:100CD000012000F08BFAE4E74E494D48FFF702FE91
:100CE0000028EFD00022A021494800F073FA4FF409
:100CF00080504649086009E044490868411E434A5B
:100D0000116018B9022000F071FACAE74249404860
:100D1000FFF7E8FD0028EFD021463D4800F063FAD8
:100D20004FF480503949086009E038490868411E8D
:100D3000364A116018B9032000F058FAB1E7364975
:100D4000891E3348FFF7CEFD0028EED00121304840
:100D500000F090F94FF480502C49086009E02B49CD
:100D60000868411E294A116018B9042000F03EFAB3
:100D700097E728492648FFF7B5FD0028EFD0012264
:100D8000A021234800F026FA4FF480501F49086044
:100D900009E01E490868411E1C4A116018B9052067
:100DA00000F024FA7DE71B49491C1948FFF79AFD1A
:100DB0000028EED000211648FFF788FD4FF4805040
:100DC0001249086009E011490868411E0F4A116084
:100DD00018B9062000F00AFA63E70E493F310C48C3
:100DE000FFF780FD0028EED0094800F0EFF9054636
:100DF0000121074800F04AF94FF480500349086088
:100E000001210348FFF762FD28464AE7140000204D
:100E100000540040010003008200070070B5044642
:100E20000D464FF480504249086009E04049086887
:100E3000411E3F4A116018B9072000F0D7F970BD74
:100E40004FF400313B4800F02DF90028EED101218C
:100E5000384800F00FF94FF480503549086009E038
:100E600033490868411E324A116018B9082000F061
:100E7000BDF9E4E730492F48FFF734FD0028EFD0F3
:100E80000022A0212B4800F0A5F94FF480502849FA
:100E9000086009E026490868411E254A116018B912
:100EA000092000F0A3F9CAE724492248FFF71AFDF8
:100EB0000028EFD021461F4800F095F94FF48050EC
:100EC0001B49086009E01A490868411E184A116068
:100ED00018B90A2000F08AF9B1E71849891E1548A7
:100EE000FFF700FD0028EED02978124800F07BF9CA
:100EF0004FF480500E49086009E00D490868411E12
:100F00000B4A116018B90B2000F070F997E70B49F4
:100F1000891C0848FFF7E6FC0028EED04FF480500B
:100F2000034908600121034800F0B0F8012086E77A
:100F3000140000200054004001000300820007005C
:100F400070B505460C4616464FF48050454908607A
:100F500009E044490868411E424A116018B90C2052
:100F600000F044F970BD4FF400313F4800F09AF8AA
:100F70000028EED101213C4800F07CF84FF480506D
:100F80003849086009E037490868411E354A116050
:100F900018B90D2000F02AF9E4E734493248FFF788
:100FA000A1FC0028EFD00022A0212F4800F012F968
:100FB0004FF480502B49086009E02A490868411E17
:100FC000284A116018B90E2000F010F9CAE7284924
:100FD0002548FFF787FC0028EFD02946224800F07B
:100FE00002F94FF480501F49086009E01D49086864
:100FF000411E1C4A116018B90F2000F0F7F8B1E744
:101000001B49891E1848FFF76DFC0028EED01AE036
:101010002178154800F0E7F8641C4FF4805011491E
:10102000086009E00F490868411E0E4A116018B9AE
:10103000102000F0DBF895E70D49891C0A48FFF7FE
:1010400051FC0028EED0301EA6F10101CEB2DFD156
:101050004FF48050034908600121034800F016F85E
:1010600001207FE71400002000540040010003002D
:101070008200070021B1028842F48072028004E0FD
:1010800002884FF6FF631A400280704721B1028840
:1010900042F40072028004E002884FF6FF531A40C7
:1010A000028070470CB50246002000230193009394
:1010B00000920B0F019321F07F41019B1BB1009B1C
:1010C0001433009303E0090C009B18330093009B3A
:1010D0001B680B400BB1012000E000200CBD00009C
:1010E0002DE9F04385B004460D460026B14604279D
:1010F000DFF8CC80A6884FF6C0700640684600F046
:10110000EBF8DDF808802F48B8FBF0F01FFA80F903
:1011100046EA0906A68020884FF6FE710840208026
:1011200000262949286888420CD828684000B8FB66
:10113000F0F087B2042F00DA04273E4309F10100E2
:10114000208427E0E8884BF6FF71884206D12868A2
:1011500000EB4000B8FBF0F087B209E0286800EB34
:10116000C00101EB0010B8FBF0F087B247F48047F4
:10117000C7F30B0008B947F0010747F400400643E6
:101180004FF4967009FB00F04FF47A7190FBF1F088
:10119000401C2084A683208840F0010020802688FF
:1011A0004FF6F5300640A888698908430643268033
:1011B000A88929890843208105B0BDE8F083000093
:1011C00000127A0040420F00A08601000146088A02
:1011D000C0B2704712B141F0010102E04FF6FE7358
:1011E00019400182704701827047000010B5044623
:1011F000214602A000F072FA002010BD3C3C2D45B3
:101200004550524F4D2D4552524F522D3E3E204992
:101210003243B5C8B4FDB3ACCAB1216572726F7206
:10122000436F6465203D2025640A000008B5012154
:10123000082000F041F801208DF8020010208DF800
:1012400003002020ADF8000069461048FFF7ACFA13
:101250000120ADF8000069460C48FFF7A5FA02200E
:10126000ADF8000069460948FFF79EFA01222021E7
:101270000648FFF724FB012211460448FFF71FFB35
:10128000012202210148FFF71AFB08BD000C0140B2
:1012900000BFFEE77047704729B1064AD269024392
:1012A000044BDA6104E0034AD2698243014BDA61FC
:1012B000704700000010024029B1064A92690243BB
:1012C000044B9A6104E0034A92698243014B9A619C
:1012D000704700000010024030B5002100220024B9
:1012E00000232D4D6D6805F00C0121B1042905D0B6
:1012F000082923D105E0294D056022E0274D05602E
:101300001FE0254D6D6805F47012234D6D6805F4DE
:101310008034022505EB92421CB9214D55430560EE
:101320000BE01D4D6D6805F400351DB11C4D554396
:10133000056002E0194D5543056002E0174D056058
:1013400000BF00BF144D6D6805F0F0010909154D8F
:101350006B5C0568DD4045600F4D6D6805F4E0612C
:10136000090A104D6B5C4568DD4085600A4D6D686B
:1013700005F46051C90A0B4D6B5C4568DD40C560E2
:10138000054D6D6805F44041890B074D6B5CC568E0
:10139000B5FBF3F5056130BD0010024000127A0084
:1013A00000093D000000002010000020704710B52B
:1013B00000F002F810BD00000CB500200190009074
:1013C0003348006840F480303149086000BF30483D
:1013D000006800F4003000900198401C01900098D3
:1013E00018B90198B0F5A06FF1D12948006800F450
:1013F000003010B10120009001E000200090009822
:10140000012843D12348006840F0100021490860BA
:101410000846006820F0030008600846006840F0B5
:10142000020008601A484068194948600846406848
:1014300048600846406840F480604860084640685C
:1014400020F47C1048600846406840F4E81048608A
:101450000846006840F08070086000BF0C480068D3
:1014600000F000700028F9D00948406820F003001F
:10147000074948600846406840F00200486000BFE5
:101480000348406800F00C000828F9D10CBD0000AA
:1014900000100240002002407047000010B51348C1
:1014A000006840F001001149086008464068104992
:1014B00008400E494860084600680E4908400B493C
:1014C00008600846006820F48020086008464068EC
:1014D00020F4FE0048604FF41F008860FFF767FFAC
:1014E0004FF000600449086010BD00000010024089
:1014F0000000FFF8FFFFF6FE08ED00E021B1828951
:1015000042F40052828104E082894DF6FF731A4052
:101510008281704700B585B001210420FFF7CCFE21
:1015200001218803FFF7C8FE4FF40070ADF81000EA
:1015300018208DF8130003208DF8120004A9134819
:10154000FFF732F94FF48060ADF8100004208DF8F9
:10155000130004A90D48FFF727F94FF4E13000907C
:101560000020ADF80400ADF80600ADF80800ADF8B5
:101570000C000C20ADF80A006946054800F018F888
:1015800001210348FFF7BAFF05B000BD0008014084
:101590000038014002460020B1F5007F00D100BFB5
:1015A00013880B400BB1012000E0002070470000C1
:1015B0002DE9F04786B005460E460024A24600BF3E
:1015C000A1460027B08900B100BF2F462C8A4CF6F7
:1015D000FF700440F08804432C82AC894EF6F3106F
:1015E0000440B08831890843718908430443AC81C1
:1015F000AC8A4FF6FF400440B0890443AC8201A896
:10160000FFF76AFE1F48874202D1DDF810A001E013
:10161000DDF80CA0A88900F4004040B10AEBCA0034
:1016200000EB0A1031684900B0FBF1F807E00AEB63
:10163000CA0000EB0A1031688900B0FBF1F86420A1
:10164000B8FBF0F004012009642101FB1089A8898E
:1016500000F4004040B1322000EBC900B0FBF1F0D3
:1016600000F00700044308E0322000EB0910642179
:10167000B0FBF1F000F00F0004432C8106B0BDE890
:10168000F087000000380140C1F3080282807047F3
:1016900000BFFEE770B504460D4629462046FFF719
:1016A000F3FF00BF80212046FFF774FF0028F9D028
:1016B00070BD70B506460C46002500BF615D304622
:1016C000FFF7E8FF6D1C605D0028F7D100BF8021A7
:1016D0003046FFF75FFF0028F9D070BD0FB4054B0F
:1016E00010B503A9044A029800F0DAF810BC5DF8BE
:1016F00014FB0000A91F00081800002002E008C821
:10170000121F08C1002AFAD170477047002001E07B
:1017100001C1121F002AFBD1704700002DE9FF5FB5
:1017200082B00021DDE90430020DDDF840B0034352
:1017300018D044F61050A2F2FF324243151411980B
:1017400001281FD0A5EB0B00401C5FEA000A4FF0F8
:1017500000064E4FDFF83891B046504615D5CAF115
:10176000000413E0119801244AA3012801D16FEA73
:101770000B010298119AC0E90031C0E9024206B09B
:10178000BDE8F09FCBF10000DFE704460021404AAE
:10179000491842EB0450CDE9001012E0E00707D0F1
:1017A00032463B4640464946FEF77DFE8046894626
:1017B00032463B4610461946FEF775FE06460F4672
:1017C0006410002CEAD1DDE90401DDE90023BAF15F
:1017D000000F06DAFEF767FE42464B46FEF763FE51
:1017E00005E0FEF7D2FE42464B46FEF7CEFE04462B
:1017F0000E460022284BFEF74FFF03D84FF0FF3074
:10180000014607E00022254B20463146FEF7D2FC78
:10181000FEF72AFF102409E0002C0ADB0A2200232D
:10182000FEF792FD039B30321A55641E50EA010206
:10183000F2D1641C039AC4F111031444119A012AD1
:1018400003D0012208430DD10AE0084304D0002050
:101850004FF0110B119072E7A3EB0B056D1E0DE01D
:101860005B4504DD4FF0000205F1010504E003DAF9
:101870004FF00002A5F10105002AECD00298119961
:10188000C0E90231C0E9004579E7000000001440DA
:101890000000F03F300000000000F0430000E03F97
:1018A0002DE9FF4F95B09A46884606460025EEE1A1
:1018B000252877D100242746F94A0121039400E026
:1018C000044316F8013F203B01FA03F01042F7D120
:1018D00030782A2811D06FF02F033078A0F1300231
:1018E000092A16D8039A44F0020402EB820203EBA1
:1018F00042021044761C0390EFE758F8042B039241
:10190000002A03DA504244F40054039044F00204E5
:10191000761C30782E2816D116F8010F44F00404F6
:101920002A280DD06FF02F023078A0F13003092B58
:1019300009D807EB870302EB4303C718761CF3E7CC
:1019400058F8047B761C30786C280FD006DC4C28C5
:1019500017D068280DD06A2814D104E0742810D05C
:101960007A280FD10DE044F400140AE044F4801406
:1019700001E044F440147278824202D104F58014EC
:10198000761C761C307866280BD013DC582877D06C
:1019900009DC002875D04528F6D04628F4D0472821
:1019A0001AD193E118E0632835D0642879D06528EE
:1019B00012D18BE1702873D008DC6728F1D0692838
:1019C0006FD06E280DD06F2806D1ACE073282CD0D4
:1019D000752874D0782853D05246179990476D1CBB
:1019E00054E1C4F30250022809D003280DD0D8F8DE
:1019F000001004280DD00D6008F1040846E1D8F865
:101A00000010EA17C1E90052F6E7D8F800100D807F
:101A1000F2E70D70F0E718F8041B8DF800100020B5
:101A20008DF80100EB46012003E058F804BB4FF0AD
:101A3000FF3061074FF0000102D40DE009F1010110
:101A40008946B9420FDA8145F8DB1BF809100029F5
:101A5000F4D108E009F1010189468142FADB1BF863
:101A600009100029F6D103985346A0EB0907214637
:101A70003846179A00F080FA284400EB090507E081
:101A800044E008E10DE01BF8010B5246179990471E
:101A9000B9F10109F7D2534621463846179AF2E0C8
:101AA00039E00A21C4F302524FF0000B0091022AE0
:101AB00006D058F8040BC117032A09D00AE023E026
:101AC00008F1070020F00702F2E80201904605E065
:101AD00000B2C117042A01D140B2C117002906DAA9
:101AE0000A460021404261EB02012D2202E022055C
:101AF00004D52B228DF80420012203E0E20701D057
:101B00002022F7E7914657E00A2100E010214FF02C
:101B1000000B00910BE010214FF0000B44F0040487
:101B20000827009103E008204FF0000B0090C4F359
:101B30000252022A05D058F8040B0021032A08D0CB
:101B400008E008F1070020F00702F2E802019046E1
:101B500003E080B2042A00D1C0B24FF0000922078E
:101B60002AD53278702A07D0DDF800C08CF0100C2E
:101B70005CEA0B0C05D00EE040228DF80420012217
:101B800008E050EA010306D030238DF804308DF8C8
:101B9000052002229146009B83F0080353EA0B03C1
:101BA0000AD150EA010201D1620705D530228DF831
:101BB00004204FF001097F1E3278582A04D039A240
:101BC0000C920CAA02920BE03BA2F9E75B46009A4A
:101BD000FEF7BAFB0C9B9B5C029A521E029213709A
:101BE00050EA0102F2D1029804A9081A00F1200B70
:101BF000600702D524F4803400E001275F4502DD50
:101C0000A7EB0B0000E0002000EB0B010090039815
:101C10004944401A0390E00306D453462146179ADC
:101C2000039800F0A9F90544002706E001A85246F0
:101C3000C05D179990476D1C7F1C4F45F6DBE00394
:101C40000CD553462146179A039800F095F90544A0
:101C500004E030205246179990476D1C0099481EA9
:101C600000900029F5DC08E00298029952460078BD
:101C7000491C0291179990476D1CBBF10001ABF113
:101C8000010BF1DC5BE100F065F90544761C30786E
:101C900000287FF40DAE19B02846BDE8F08F000093
:101CA0000928010030313233343536373839616232
:101CB00063646566000000003031323334353637F6
:101CC000383941424344454600000000600700D4D3
:101CD000062708F1070020F00700F0E802238046FD
:101CE00003F0004C5FEA0C0001D097A009E020054A
:101CF00001D596A005E0E00701D095A001E0AFF284
:101D00004C001390307823F0004365280CD006DC9B
:101D1000452809D046281DD047287FD13BE06628BA
:101D200018D067287AD136E00021112F01DB11206D
:101D300000E0781CCDE9000104A90CA8FFF7EEFC37
:101D4000DDE90D010C9A4FF0000B07F1010910922B
:101D500000914EE04FF000400097CDE9011004A93A
:101D60000CA8FFF7DBFCDDE90D020C9B0F994FF08F
:101D7000000B91461093009211B9791C00EB0109F8
:101D8000B7EB090003D4C0F1FF3B07F10109A9EB50
:101D90000700019042E0012F00DA01270021112FF6
:101DA00001DD112000E03846CDE9000104A90CA8AE
:101DB000FFF7B4FCDDE90D010C9A00914FF0000B28
:101DC000B946109221070FD4009A4A4503DA91468A
:101DD00001E0A9F10109B9F1010F05DD109AA9F19E
:101DE0000101515C3029F4D0B84202DA10F1040F3D
:101DF00003DA0121CDE9011010E0002803DC83445F
:101E0000A9EB000102E0411C494500DD8946A0EB39
:101E10000B00401C01904FF000400290200705D4B9
:101E20000198484502DB4FF0FF30019000208DF80B
:101E30004B0002980DF14B07B0F1004F25D0022066
:101E40000C902B200D90029800280CDA4042029052
:101E50002D200D9007E00A210298FEF75FFA30313D
:101E6000029007F8011D0C99481E0C900029F2DC25
:101E700002980028EFD1791E0D980870307800F094
:101E8000200040F0450007F8020D11A8C01BC01D3E
:101E900002901398007800B1012000EB090101982D
:101EA00001EBE071029801440398401A401E039030
:101EB000E00306D453462146179A039800F05CF8D5
:101EC00005441398007818B15246179990476D1C35
:101ED000E00323D553462146179A039800F04CF8A7
:101EE00005441BE0BBF1000F07DB0098584504DDFB
:101EF0001098179910F80B0001E0179930205246FE
:101F0000904701980BF1010B401E05F1010501906E
:101F100004D12E205246179990476D1CB9F100014B
:101F2000A9F10109DEDC05E017F8010B524617990B
:101F300090476D1C0299481E02900029F4DC53461C
:101F40002146179A03989EE62D0000002B00000002
:101F5000200000002DE9F041044600251E461746EA
:101F6000880404D405E039462020B0476D1C641E67
:101F7000F9D52846BDE8F0812DE9F0410446002559
:101F80001E469046C80301D5302700E0202788046C
:101F900004D505E041463846B0476D1C641EF9D5AE
:101FA0002846BDE8F081000070B504460D46E1B258
:101FB0000548FFF769FB00BF80210348FFF7EAFAF5
:101FC0000028F9D0204670BD00380140ACB0002098
:101FD0002A907CA2D2E900109268CDE928022791CC
:101FE0001C227BA120A8FEF7C1F81C227FA119A802
:101FF000FEF7BCF884A2D2E900109268CDE917027E
:10200000169130210AA8FEF7CAF8824903C9CDE922
:1020100008011C2101A8FEF7C2F8FFF707F9FFF736
:1020200079FAFEF781FC7CA17F48FFF742FB7FA095
:10203000FFF754FB27AA0B2180A0FFF74FFB0B22D1
:1020400027A96020FEF786FD0B2227A96020FEF756
:10205000ADFC27A980A0FFF741FB20AA1B2183A08C
:10206000FFF73CFB1B2220A97020FEF773FD1B220B
:1020700020A97020FEF79AFC20A977A0FFF72EFB7D
:1020800019AA1B217FA0FFF729FB1B2219A9902069
:10209000FEF760FD1B2219A99020FEF787FC19A905
:1020A0006DA0FFF71BFB16AA0C217CA0FFF716FB07
:1020B0000C2216A9B020FEF74DFD0C2216A9B02067
:1020C000FEF774FC16A964A0FFF708FB9DF8A800B2
:1020D000FEF7D6FDC0B22A909DF8A800CD284AD0C0
:1020E00074A0FFF7FBFACD202A902AA90020FEF762
:1020F00095FE002417E02046FEF703F905467D4AC9
:102100007D4BFEF757F808AA02EBC40203C204EBAA
:102110004400C0EBC410012101EB800001A941F88B
:102120002400601CC4B2072CE5DB382208A9082073
:10213000FEF710FD1C2201A94020FEF70BFD6FA049
:10214000FFF7CCFA002410E008A800EBC400D0E9A7
:1021500000532A466EA0FFF7C1FA01A850F82410D8
:102160006FA0FFF7BBFA601CC4B2072CECDB70A0B9
:10217000FFF7B4FA24E078A0FFF7B0FA382208A9F4
:102180000820FEF713FC1C2201A94020FEF70EFCDC
:1021900076A0FFF7A3FA002410E008A800EBC40122
:1021A000D1E900532A4677A0FFF798FA01A850F822
:1021B000241079A0FFF792FA601CC4B2072CECDB64
:1021C00000BFFEE73031323334353637383900005E
:1021D0006162636465666768696A6B6C6D6E6F7077
:1021E0007172737475767778797A0000414243444E
:1021F0004546474849474B4C4D4E4F50515253541A
:1022000055565758595A000053544D3332BAC3B932
:10221000F3B0A100A82300080948656C6C6F205337
:10222000544D3332210A0000003801400973746DA7
:102230003332B8F8D2AFC5C0210A0D000D0A646967
:10224000676974616C5F636861723D25642027254E
:1022500073270D0A00000000524541445F45455078
:10226000524F4D3A25730D0A000000006C657474DE
:1022700065725F4C636861723D2564202725732772
:102280000D0A00006C65747465725F556368617255
:102290003D256420272573270D0A00004368696ED9
:1022A0006573655F636861723D2564202725732728
:1022B0000D0A00000D0AC3BBD3D0BCECB2E2B5BD21
:1022C000CAFDBEDDB1EAD6BEA3AC464C415348C3FD
:1022D000BBD3D0B4E6B4A2CAFDBEDDA3ACBCB4BDD2
:1022E000ABBDF8D0D0D0A1CAFDD0B4C8EBCAB5D12F
:1022F000E90D0A009A9999999999B93FCFF2D0BE00
:10230000C6ACD0B4C8EBCAFDBEDDA3BA0000000065
:10231000D0A1CAFD7478203D20254C460D0A00004E
:10232000D5FBCAFD7478203D2025640D0A0000000D
:102330000D0AC7EBB8B4CEBBBFAAB7A2B0E5A3AC39
:10234000D2D4B6C1C8A1CAFDBEDDBDF8D0D0BCECA8
:10235000D1E90D0A000000000D0ABCECB2E2B5BDE7
:10236000CAFDBEDDB1EAD6BE0D0A00000D0AB4D327
:10237000D0BEC6ACB6C1B5BDCAFDBEDDA3BA0D0A9E
:1023800000000000D0A1CAFD207278203D20254C1D
:1023900046200D0A00000000D5FBCAFD20727820FF
:1023A0003D202564200D0A00000000000000000010
:1023B000D0230008000000201C000000FC160008CC
:1023C000EC2300081C000020040400000C17000887
:1023D00000000000010203040102030406070809CB
:0C23E000020406080010000000000000CD
:0400000508000131BD
:00000001FF
