:020000040800F2
:1000000060060020B1010008B9010008BB0100082A
:10001000BD010008BF010008C10100080000000088
:10002000000000000000000000000000C301000804
:10003000C501000800000000C7010008C901000850
:10004000CB010008CB010008CB010008CB01000860
:10005000CB010008CB010008CB010008CB01000850
:10006000CB010008CB010008CB010008CB01000840
:10007000CB010008CB010008CB010008CB01000830
:10008000CB010008CB010008CB010008CB01000820
:10009000CB010008CB010008CB010008CB01000810
:1000A000CB010008CB010008CB010008CB01000800
:1000B000CB010008CB010008CB010008CB010008F0
:1000C000CB010008CB010008CB010008CB010008E0
:1000D000CB010008CB010008CB010008CB010008D0
:1000E000CB010008CB010008CB010008CB010008C0
:1000F000CB010008CB010008CB010008CB010008B0
:10010000CB010008CB010008CB010008CB0100089F
:10011000CB010008CB010008CB010008CB0100088F
:10012000CB010008CB010008CB010008CB0100087F
:1001300000F002F800F02CF80AA090E8000C8244CD
:100140008344AAF10107DA4501D100F021F8AFF2AA
:10015000090EBAE80F0013F0010F18BFFB1A43F0A5
:10016000010318473C0300004C0300000023002457
:1001700000250026103A28BF78C1FBD8520728BFB7
:1001800030C148BF0B6070471FB51FBD10B510BD13
:1001900000F031F81146FFF7F7FF00F00BF900F01F
:1001A0004FF803B4FFF7F2FF03BC00F057F800006C
:1001B0000948804709480047FEE7FEE7FEE7FEE7FB
:1001C000FEE7FEE7FEE7FEE7FEE7FEE70448054937
:1001D000054A064B704700009103000831010008F2
:1001E0006000002060060020600200206002002005
:1001F000704770477047754600F02CF8AE46050012
:100200006946534620F00700854618B020B5FFF731
:10021000DDFFBDE820404FF000064FF000074FF033
:1002200000084FF0000B21F00701AC46ACE8C00914
:10023000ACE8C009ACE8C009ACE8C0098D4670471D
:1002400010B50446AFF300802046BDE81040FFF72C
:10025000A8BF000000487047000000200149182096
:10026000ABBEFEE72600020070472DE9F0410246D2
:1002700000250026002000230024002791F804C058
:100280000CF00F0591F804C00CF0100CBCF1000F3D
:1002900003D0B1F802C04CEA050591F800C0BCF1EA
:1002A000000F31D0146800202BE04FF0010C0CFA45
:1002B00000F3B1F800C00CEA03069E4220D183008F
:1002C0004FF00F0C0CFA03F7BC4305FA03FC4CEAA1
:1002D0000404B1F804C0BCF1280F06D14FF0010CA2
:1002E0000CFA00FCC2F814C00AE0B1F804C0BCF17A
:1002F000480F05D14FF0010C0CFA00FCC2F810C0F9
:10030000401C0828D1D31460B1F800C0BCF1FF0F25
:1003100034DD546800202EE000F1080C4FF0010895
:1003200008FA0CF3B1F800C00CEA03069E4221D192
:1003300083004FF00F0C0CFA03F7BC4305FA03FCE3
:100340004CEA0404B1F804C0BCF1280F05D100F157
:10035000080C08FA0CF8C2F81480B1F804C0BCF11B
:10036000480F07D100F1080C4FF0010808FA0CF80B
:10037000C2F81080401C0828CED35460BDE8F0813C
:1003800042690A434261704702690A430261704749
:100390007047002107E042F6E06100BF0A1EA1F1AC
:1003A000010399B2FAD1021EA0F1010398B2F2D171
:1003B000704700001CB53848806940F00800364995
:1003C00088613648006820F47000344908600846A7
:1003D000006820F00F0008600846006820F0F00078
:1003E00008602E480C30006840F020002B490C318A
:1003F00008600846006840F0010008600846006890
:1004000040F0020008600120ADF802001020ADF8B5
:1004100004002020ADF8000069462048FFF725FFC2
:100420000120ADF8000069461C48FFF71EFF0220BE
:10043000ADF8000069461948FFF717FF6420FFF781
:10044000A8FF28E015480C30006820F02000134970
:100450000C3108606420FFF79CFF10480C300068E6
:1004600040F020000D490C31086001210B48FFF7D6
:1004700087FF6420FFF78DFF01210848FFF784FF05
:1004800002210648FFF77CFF6420FFF782FF02216C
:100490000248FFF779FFD5E700100240000C014049
:1004A000B004000800000020600600006C01000895
:0400000508000131BD
:00000001FF
