:020000040800F2
:1000000060060020B1010008B9010008BB0100082A
:10001000BD010008BF010008C10100080000000088
:10002000000000000000000000000000C301000804
:10003000C501000800000000C7010008C901000850
:10004000CB010008CB010008CB010008CB01000860
:10005000CB010008CB010008CB010008CB01000850
:10006000CB010008CB010008CB010008CB01000840
:10007000CB010008CB010008CB010008CB01000830
:10008000CB010008CB010008CB010008CB01000820
:10009000CB010008CB010008CB010008CB01000810
:1000A000CB010008CB010008CB010008CB01000800
:1000B000CB010008CB010008CB010008CB010008F0
:1000C000CB010008CB010008CB010008CB010008E0
:1000D000CB010008CB010008CB010008CB010008D0
:1000E000CB010008CB010008CB010008CB010008C0
:1000F000CB010008CB010008CB010008CB010008B0
:10010000CB010008CB010008CB010008CB0100089F
:10011000CB010008CB010008CB010008CB0100088F
:10012000CB010008CB010008CB010008CB0100087F
:1001300000F002F800F02CF80AA090E8000C8244CD
:100140008344AAF10107DA4501D100F021F8AFF2AA
:10015000090EBAE80F0013F0010F18BFFB1A43F0A5
:1001600001031847100200002002000000230024B1
:1001700000250026103A28BF78C1FBD8520728BFB7
:1001800030C148BF0B6070471FB51FBD10B510BD13
:1001900000F031F81146FFF7F7FF00F077F800F0B4
:1001A0004FF803B4FFF7F2FF03BC00F057F800006C
:1001B0000948804709480047FEE7FEE7FEE7FEE7FB
:1001C000FEE7FEE7FEE7FEE7FEE7FEE70448054937
:1001D000054A064B704700006B0200083101000819
:1001E0006000002060060020600200206002002005
:1001F000704770477047754600F02CF8AE46050012
:100200006946534620F00700854618B020B5FFF731
:10021000DDFFBDE820404FF000064FF000074FF033
:1002200000084FF0000B21F00701AC46ACE8C00914
:10023000ACE8C009ACE8C009ACE8C0098D4670471D
:1002400010B50446AFF300802046BDE81040FFF72C
:10025000A8BF000000487047000000200149182096
:10026000ABBEFEE72600020070477047002107E0A2
:1002700042F6E06100BF0A1EA1F1010399B2FAD172
:10028000021EA0F1010398B2F2D17047374880698D
:1002900040F00800354988613548006820F4700056
:1002A000334908600846006840F48010086008463A
:1002B000006820F00F0008600846006840F0010068
:1002C00008600846006820F0F000086008460068F2
:1002D00040F01000086026480C30006840F0010033
:1002E00023490C3108600846006840F002000860AD
:1002F0000846006840F02000086036E01C480C30DA
:10030000006820F001001A490C3108606420FFF7F2
:10031000ADFF17480C30006840F0010014490C3163
:10032000086013481430006840F00200104914318E
:1003300008606420FFF79AFF0D481030006840F015
:1003400002000B4910310860081D006840F02000D1
:10035000091D08606420FFF789FF05481030006818
:1003600040F02000024910310860C7E70010024049
:10037000000C01408403000800000020600600001B
:040380006C01000804
:0400000508000131BD
:00000001FF
